:020000041FFFDC
:1000000000000000F154FF1F4C67FF1F5067FF1FE7
:10001000C068FF1F0000000000000000000000009A
:1000200000000000000000000000000000000000D0
:1000300000000000000000000000000000000000C0
:1000400000000000000000000000000000000000B0
:1000500000000000000000000000000000000000A0
:100060000000000000000000000000000000000090
:100070000000000000000000000000000000000080
:100080000000000000000000000000000000000070
:100090000000000000000000000000000000000060
:1000A0000000000000000000000000000000000050
:1000B0000000000000000000000000000000000040
:1000C0000000000000000000000000000000000030
:1000D0000000000000000000000000000000000020
:1000E0000000000000000000000000000000000010
:1000F0000000000000000000000000000000000000
:1001000000000000000000000000000000000000EF
:1001100000000000000000000000000000000000DF
:1001200000000000000000000000000000000000CF
:1001300000000000000000000000000000000000BF
:1001400000000000000000000000000000000000AF
:10015000000000000000000000000000000000009F
:10016000000000000000000000000000000000008F
:10017000000000000000000000000000000000007F
:10018000000000000000000000000000000000006F
:10019000A548FF1F3D49FF1F555DFF1F00000000E0
:1001A000000000000000000000000000000000004F
:1001B000000000000000000000000000000000003F
:1001C000000000000000000000000000000000002F
:1001D000000000000000000000000000000000001F
:1001E000000000000000000000000000000000000F
:1001F00000000000000000000000000000000000FF
:1002000000000000000000000000000000000000EE
:1002100000000000000000000000000000000000DE
:1002200000000000000000000000000000000000CE
:1002300000000000000000000000000000000000BE
:1002400000000000000000000000000000000000AE
:10025000000000000000000000000000000000009E
:10026000000000000000000000000000000000008E
:10027000000000000000000000000000000000007E
:10028000000000000000000000000000000000006E
:10029000000000000000000000000000000000005E
:1002A000000000000000000000000000000000004E
:1002B000000000000000000000000000000000003E
:1002C000000000000000000000000000000000002E
:1002D000000000000000000000000000000000001E
:1002E000000000000000000000000000000000000E
:1002F00000000000000000000000000000000000FE
:1003000000000000000000000000000000000000ED
:1003100000000000000000000000000000000000DD
:1003200000000000000000000000000000000000CD
:1003300000000000000000000000000000000000BD
:1003400000000000000000000000000000000000AD
:10035000000000000000000000000000000000009D
:10036000000000000000000000000000000000008D
:100370005918FF1F000000000000000000000000EE
:10038000000000000000000000000000000000006D
:10039000000000000000000000000000000000005D
:1003A0000000000000000000000000003B23FF1FD1
:1003B000000000000000000000000000000000003D
:1003C000000000000000000000000000000000002D
:1003D000000000000000000000000000000000001D
:1003E000000000000000000000000000000000000D
:1003F00000000000000000000000000000000000FD
:0C04000001FF01FF01FF01FF41000000AF
:020000041FFFDC
:101838006076FF1F8918FF1F0448854600F07EFA6E
:10184800004800470953FF1FC046C0466076FF1F87
:1018580009484838694601600430F0C044464D469E
:1018680056465F46F0C030BCF0BCF0C0F0BCF0C0DB
:1018780044380249084700000004FF1F3133FF1FA6
:101888000248804702480047FEE700007D31FF1FFD
:101898004118FF1FF0B507460846584087B0C00FEB
:1018A800049048000E46590040084908BC1A88416F
:1018B80005D2384631461E4617460B4602465800A2
:1018C800400810434DD0300D039040055900400D9D
:1018D800490D0590401A0290402873DA1803012137
:1018E800000B09050843019004980092002806D0CF
:1018F8001146019A494200209041009101900298B6
:1019080040210A1A0199009800F084F905460C460E
:101918006B4607CB00F09FF9C0197141039A0E0D71
:101928000023D71756401A467A40164344D0049AE3
:10193800002A2DD0029A012A039A15DC1205C01A32
:10194800914101263605001C7141D20F059ED20730
:101958000093019202962A46234600F09CF907B0AC
:10196800F0BD38463146FAE71605234A0F46B21845
:10197800C01AB74101210905001C4F4100187F41D9
:10198800114618187941E20F10436D19644113E0AC
:10199800E2076D0815436408C2071443039A012639
:1019A8001205C01A91413605001C7141CE07400846
:1019B80030434908C01851412A46234600F05EF9D1
:1019C800CDE7FFE7049801224000C117121A00234F
:1019D8008B4104983146C417381AA141EEE730B458
:1019E8000124E407634030BC54E730B40124E40721
:1019F800614030BC4EE700000000E0FFF0B51FB4C6
:101A080088B00B990998002448400999C00F4900EB
:101A180049080991C0070B990090490049080B91A2
:101A280009990898A64608431CD00B990A980843B8
:101A380018D0099801244000420D4800410D09982A
:101A480024050003000B204309900B980003000BAA
:101A580020430B9050181C4940180022019014464E
:101A6800104605E0002001460DB0F0BD032801DA5C
:101A7800034600E003239C46C11A0AAE0AE05F0051
:101A880008ADED5B4F00F75B7D430027AA187C414A
:101A9800491C5B1E6145F2DD410004AB5A5221042A
:101AA800120C0A43240C401C0828DFDB0198029022
:101AB8000099704601910090059B049A0799069831
:101AC80000F0E9F8D0E700000DFCFFFFF0B50C4688
:101AD8005C4085B0E40FE40703944C0000266408DA
:101AE80059009446490802460296224321D062468C
:101AF8000A431ED06200570D4A000E032303550DFA
:101B0800012402462C492405781B1B0B360B401870
:101B180023432643614600901C46501AB44103D320
:101B28000098401C009002E0921800985B41002841
:101B380003DA0020014605B0F0BD002001210905A7
:101B48000746864611E064461D46141BB54106D378
:101B58006546521BB341744607430C43A646CD075E
:101B680040084908284392185B4105460D43EAD1CD
:101B78001046184313D06046194650407140084338
:101B880006D06046101AB34106D20122002306E0AF
:101B980000220123DB0702E00122D2435310009800
:101BA80074460105381C6141029C039D0019694176
:101BB80000F064F8BFE70000FD0300000EB505491A
:101BC8000291002100910A460B46019100F063F84A
:101BD80003B000BD330400004A0009030123090BC8
:101BE8001B051943094B10B5520D9A4201DA002022
:101BF80010BD064B34339A4203DC9A1A00F01AF8E7
:101C080010BD03495118884010BD0000FF030000B3
:101C1800CDFBFFFF10B5202A04DB0146203A914096
:101C2800002010BD914020239C1A0346E34019432D
:101C3800904010BD10B5202A04DB0846203AD04059
:101C4800002110BD0B46D340D0402024A21A914059
:101C58000843194610BD10B5202A06DBCB170846E5
:101C6800203A1041C1170B4306E00B461341D04000
:101C78002024A21A91400843194610BD10B5002B24
:101C880008DA0024401C614192185B411A4301D1D3
:101C98004008400010BDF0B51FB482B005460C00E6
:101CA80003D0084601F08EFA02E001F08BFA2030EA
:101CB8000246009021462846FFF7ACFF049B059A90
:101CC80004460F4618431143084314D018461043DE
:101CD8001BD0009840210A1A18460599FFF7AAFF59
:101CE80005460E46009A05990498FFF793FF0843A6
:101CF80005D0012004E02046394607B0F0BD002099
:101D0800C11705430E432C43374300990E986305CA
:101D1800401A7905E40A00220C43FD0A0A3002D56C
:101D280000200146E9E70105101969410C9C0D9D49
:101D380000196941FFF7A2FFDFE70000064C012503
:101D4800064E05E0E36807CC2B430C3C984710345B
:101D5800B442F7D3FFF774FD7868FF1FA868FF1F28
:101D680070B58C180578401C6B075B0F01D10378A0
:101D7800401C2A1106D10278401C03E006780E7038
:101D8800401C491C5B1EF9D12B0705D40023521EA9
:101D98000DD40B70491CFAE70378401CCB1A921C2F
:101DA80003E01D780D70491C5B1C521EF9D5A14239
:101DB800D8D3002070BD000003B40148019001BDD4
:101DC800D94F010003B40148019001BD75A9000075
:101DD80003B40148019001BDF9A6000003B401480D
:101DE800019001BDA1AF000003B40148019001BDFD
:101DF8009DA9000003B40148019001BDADAE0000EB
:101E080003B40148019001BD456B010003B40148CA
:101E1800019001BD0189000003B40148019001BD92
:101E2800C53F000003B40148019001BDE94C010021
:101E380003B40148019001BDC95C010003B4014825
:101E4800019001BDDD3F000003B40148019001BDD0
:101E58008944000003B40148019001BD21440000F9
:101E680003B40148019001BD750F000003B4014897
:101E7800019001BD1907010003B40148019001BD9B
:101E8800BD0B010003B40148019001BDDD0C010048
:101E980003B40148019001BDDD0A010003B4014803
:101EA800019001BD0134010003B40148019001BD56
:101EB8000934010003B40148019001BD0534010053
:101EC80003B40148019001BDF535010003B4014890
:101ED800019001BDF935010003B40148019001BD2D
:101EE800E917010003B40148019001BD6137010001
:101EF80003B40148019001BD01D7000003B40148B3
:101F0800019001BD6DF6000003B40148019001BDC8
:101F18007912010003B40148019001BD4DF9000098
:101F280003B40148019001BDC1F7000003B40148A2
:101F3800019001BD116E000003B40148019001BD7C
:101F48008D82000003B40148019001BD6D0E0100AF
:101F580003B40148019001BDE90E010003B4014832
:101F6800019001BD0D52010003B40148019001BD6B
:101F78008B52010003B40148019001BD090E000015
:101F880003B40148019001BDE1AC000003B401486D
:101F9800019001BDE53A010003B40148019001BD7B
:101FA800496D010003B40148019001BD3D71010074
:101FB80003B40148019001BD6189000003B40148E0
:101FC800019001BDED4A010003B40148019001BD33
:101FD800A54F010003B40148019001BD85520100DD
:101FE80003B40148019001BD156B010003B4014819
:101FF800019001BD016C010003B40148019001BDCD
:10200800B30E000003B40148019001BDBD5C01009E
:1020180003B40148019001BDD1AE000003B40148EA
:10202800019001BDCD4C010003B40148019001BDF0
:10203800350E000003B40148019001BD810E000077
:1020480003B40148019001BD21A9000003B401486F
:10205800019001BDB54C010003B40148019001BDD8
:10206800C56D010003B40148019001BD51B80000DD
:1020780003B40148019001BD85C1000003B40148C3
:10208800019001BDE9D4000003B40148019001BDED
:10209800E90B010003B40148019001BD6D0B01007B
:1020A80003B40148019001BDC115010003B4014802
:1020B800019001BDCD0C010003B40148019001BDA0
:1020C80071B0000003B40148019001BDD9B000000F
:1020D80003B40148019001BD5976010003B40148D9
:1020E800019001BD53B9000003B40148019001BD3E
:1020F800ED6B010003B40148019001BDC9A90000BE
:1021080003B40148019001BDEDA5000003B40148E6
:10211800019001BD3D4B010003B40148019001BD90
:10212800154D010003B40148019001BD2D110100B6
:1021380003B40148019001BDF90D010003B4014841
:10214800019001BDA111010003B40148019001BD36
:10215800B912010003B40148019001BDDD1301006B
:1021680003B40148019001BDC913010003B401483B
:10217800019001BD0514010003B40148019001BD9F
:102188009112010003B40148019001BDF11301004F
:1021980003B40148019001BDE910010003B40148EE
:1021A800019001BDB110010003B40148019001BDC7
:1021B8008914010003B40148019001BD810E00009B
:1021C80003B40148019001BDD1A5000003B4014842
:1021D800019001BDD544010003B40148019001BD3F
:1021E8002D6C010003B40148019001BD79970000EE
:1021F80003B40148019001BD6911010003B401480D
:10220800019001BD8512010003B40148019001BD90
:102218008D11010003B40148019001BDE5120100D0
:1022280070B5514A8AB0012800D1504A430150483C
:1022380002AC1D18287E00280AD084208058C3B21A
:10224800002002E016782654401C9842FADB04E08D
:10225800107D012310786A461072E869002807D0BB
:102268006846017608A807940370E96906A88847B4
:102278000AB070BDFEB5044642013D483A4D1318F8
:10228800805C191D00282AD0187E002827D0987E47
:10229800002824D00878022821D188884A888E68A6
:1022A800801A82B2102A01D9102201E0002A02D035
:1022B800012C17D01DE0012008700020488088807C
:1022C800D869002806D02B4A6D4607CA07C5D969C0
:1022D80068468847002C03D0192002F0F7FAFEBDA3
:1022E8000820FAE7214D04E04888431C4B80305C05
:1022F80028701046521E92B20028F5D1FEBD1B4828
:1023080080680007000F062812D006DC02280AD0D1
:1023180004280DD10121012082E7072805D00C28C7
:1023280006D10221F7E70120A4E710484030C06B2E
:1023380070470D4880680007000F062812D006DC99
:1023480002280AD004280DD10121002068E70728B7
:1023580005D00C2806D10221F7E700208AE70248B9
:102368004030C06B704700000040004000900040C3
:102378004C70FF1F6C67FF1F10B50D497620C860B1
:10238800FFF71AFD10BD0446FFF71CFD0949C8698F
:1023980040229043C8612046FFF71AFD02F0F4F985
:1023A80004490420C03108600120FFF717FDFEE74B
:1023B8000020004000F0004010B5FFF703FD0A4878
:1023C8000468094A41178032116008490160FFF723
:1023D8000BFD204610BD10B50446FFF7F3FC02487C
:1023E8000460FFF701FD10BD00E100E010001000DF
:1023F800F8B5D449D24A002004464A608300401CFC
:10240800D450FF28FADD4868CF4A014680318A60F7
:102418006E22C262CD4A1278002A01D07F22C2629F
:102428000A220265CA4A13788363CA4BC3611578C6
:102438001023022D08D01578012D05D01578032D0D
:1024480002D01578042D00D10362C34D45611925CA
:10245800AD0185613725CD6036272826C763082555
:10246800466405644F6032270F603B27CF634127DE
:10247800CF6439274031E0C132274F6002274F61CE
:1024880042270831E0C11E274F60CE608D600526C7
:102498004E6142260E615A2660390E614D613C2517
:1024A8008D61AF25ED000560AC4D05631578022DF3
:1024B80009D01578012D08D01578032D07D0157887
:1024C800042D06D007E0152504E0436003E00E253F
:1024D80000E00C254560FF252D358560C560FF258A
:1024E800F53505619E4D85647D25ED009D4ECD67D2
:1024F800C66445629C4D85627325C565062545659C
:102508008565C51D0826F93502272E6047664B27C5
:10251800FF0087660927C766944F07674667BE109E
:102528008467C667924F8F4E3E601678022E09D098
:102538001678012E0AD01678032E0BD01278042AAA
:102548000CD00EE01A22CA61212205E01422CA61C9
:10255800182201E01322CB610A6202E00E220B620C
:10256800CA617F4A8A627D22D2008A6764224A62EF
:102578000522CA6202220A63C8228C634A63382190
:1025880069607C4929647C49A9614B21C900E961DA
:1025980074497B4A643929627D2109016962EC66C4
:1025A8001E212C67A9667149A965E9658910296604
:1025B800696469677149EA67A9677249FF308130C0
:1025C80006C00160FF21F531416081606F486E49A6
:1025D8005B4A81606E49803A11616C496D4A80316D
:1025E8008A626D4ACA626D4A82616D4AC2626D4AE8
:1025F800026366486C4A403842636C4AC2636C4A5C
:10260800CA616C49816361496B48403188616C4992
:102618006A4888605D486B4A803842606A4A42630B
:102628006A4A0A626A49816058496A48C039C8607A
:10263800FFF7E0FB0120FFF7E3FBF8BDF3B5074622
:10264800654881B0C169654A1140FF310931C161EE
:10265800002613E000252C461120FFF7D7FB5E4823
:10266800406A8007800F610088402843641CE4B2F8
:102678000546102CF0D301C7761CF6B202988642A4
:10268800E8D3FEBD10B52F4C607800280AD104218C
:102698005348FFF7D3FF524804211030FFF7CEFF0D
:1026A8000120607010BDF0B500248BB00D460646C1
:1026B800102902D901200BB0F0BDFFF7E3FF48490C
:1026C80000200A5C401C1419C0B21028F9D3002C51
:1026D80003D0102D03D90B20EDE70E20EBE741487E
:1026E8003F4C0023006802A91034E25CC75C7A40C2
:1026F800CA545B1CDBB2102BF7D306AA3848FFF785
:102708008BFB102D00D910252A4606A93046FFF765
:1027180089FBFFF78DFB216840182060FFF788FBD5
:10272800616840186060FFF783FBA1684018A060EB
:10273800FFF77EFBE1684018E0600020BBE700007F
:102748000004FF1F2C69FF1F6076FF1FA868FF1F8A
:102758004A0AFF1F3A07000080C3C9019A02000015
:1027680050C30000280A00006A180000204E00002C
:10277800F009FF1F0040001168100000DC05000090
:1027880040420F00102700008D4EFF1F0001FF1F61
:10279800CD2CFF1F6959FF1F555CFF1FDB29FF1F49
:1027A8006D2BFF1FF529FF1FD13BFF1FE53AFF1FC8
:1027B800ED65FF1F1164FF1FD14BFF1F4D2EFF1F3B
:1027C8000002FF1F194CFF1FE14CFF1F254CFF1F84
:1027D800D54BFF1F7D2EFF1F40F0004000FEFEFF7F
:1027E8003072FF1F4C69FF1F10B50021042001F053
:1027F800EBFE00F0B9FC0021032001F0E5FE052006
:1028080001F0D0F90121042001F0DEFE052001F0DD
:10281800C9F90021042001F0D7FE10BD10B5002130
:10282800042001F0D1FE00F09FFC0121032001F0FB
:10283800CBFE052001F0B6F90121042001F0C4FE09
:10284800052001F0AFF90021042001F0BDFE10BD04
:1028580070B5002400F07EFC00250021042001F062
:10286800B3FE052001F09EF90121042001F0ACFE21
:102878006006040E032001F0A1FD002801D0641CAD
:10288800E4B2052001F08EF96D1CEDB2082DE4D3F9
:10289800204670BD70B5044600F066FC0021042097
:1028A80001F092FE0025200601D5012100E000215B
:1028B800032001F089FE6006040E052001F072F97C
:1028C8000121042001F080FE052001F06BF90021B0
:1028D800042001F079FE052001F064F96D1CEDB2C9
:1028E800082DE0D370BD10B500F03EFC0121032097
:1028F80001F06AFE0121042001F066FE052001F0C6
:1029080051F90021032001F05FFE052001F04AF98A
:102918000021042001F058FE10BD10B500F024FC81
:102928000021032001F050FE0121042001F04CFE9B
:10293800052001F037F90121032001F045FE0520AB
:1029480001F030F910BD000010B50024012103206A
:1029580001F03AFE052001F025F900F0FBFB01210A
:10296800042001F031FE052001F01CF907E0641C89
:10297800FF2C04D907A001F0F9F8012010BD0320AD
:1029880001F01CFD0028F2D10021042001F01CFEFA
:10299800002010BD666561740A00000070B5012250
:1029A80014E055002B18403B445BDE8FB4420CD238
:1029B800531E465302E02D186E805B1E5D00465B79
:1029C800A642F8DC5B001B185C80521C8A42E8DBDC
:1029D80070BD70B50124A407A36810252B43A3601C
:1029E800FFF72CFAA068A843A06070BDFFB50646A3
:1029F80001208007816881B01D4610221143816043
:102A0800554F002038603046D730FFF71DFA9D201B
:102A1800800034468059FF36CA34013600283068B1
:102A280022462CD00121FFF715FA4B4F2078F86386
:102A3800641C2046FFF714FA00BA000AE178000285
:102A48000843B863241D2046FFF70AFA00BA000AB3
:102A5800E178000208437863241D2046FFF700FA56
:102A680000BA000AE1780002084338630398029923
:102A780000020843F860039F00243F1D0EE0002178
:102A8800D1E72819401CFFF7EBF90102285D014343
:102A9800324820180160241DA4B23F1F042FF0DA29
:102AA800032F04D0022F08D0012F0CD011E02819D1
:102AB800FFF7D6F90102090A06E0291948780A78C9
:102AC8000102114300E0295D244820180160241DFB
:102AD800A4B20021214F02E0E0190160241DFF2C5F
:102AE800FADD1D481E4A42600F220261012202607F
:102AF8004269002AFCD04269930701D4520708D4DE
:102B080001208007826810218A438260002005B076
:102B1800F0BD01600020039A11E0C1190968295429
:102B2800401C80B20B0A2B54401C0B0C80B22B5457
:102B3800401C80B2090E2954401C80B2121F002A82
:102B4800EBDC3068401C306001208007826810216F
:102B58008A4382600120DAE7000004400001044053
:102B6800080F0000FFB5054601208007816881B085
:102B78001E46102211438160504F002038602846BD
:102B8800D730FFF761F99D2080002C464059CA34A0
:102B980080350028E86F22462BD00021FFF75AF92C
:102BA800464F2078F863641C2046FFF759F900BAAD
:102BB800000AE17800020843B863241D2046FFF7A5
:102BC8004FF900BA000AE178000208437863241D2F
:102BD8002046FFF745F900BA000AE17800020843E9
:102BE80038630398029900020843F8600024039FA1
:102BF8000EE00121D2E73019401CFFF731F901023C
:102C0800305D01432E4820180160241DA4B23F1FE7
:102C1800042FF0DA032F04D0022F08D0012F0FD091
:102C280014E03019FFF71CF90102090A09E031190B
:102C3800487809780002084321496118086003E0D0
:102C4800315D1F4820180160241DA4B200211C4BCF
:102C580002E0E0180160241DFF2CFADD0F2217485E
:102C6800120242600F220261012202604269002AB8
:102C7800FCD00160039A0020121D11E0C1180968F8
:102C88003154401C80B20C0A3454401C0C0C80B2E5
:102C98003454401C80B2090E3154401C80B2121FBB
:102CA800002AEBDCE86F401CE86701208007826897
:102CB80010218A43826005B0F0BD00000000044086
:102CC80000010440F8B5FFF7B3F85649086004203E
:102CD800FFF7CCF8FFF7D0F80646C00715D05249E1
:102CE8000020086051480078012811D0032813D02B
:102CF800042815D0022817D0052819D0FFF7C2F8E4
:102D08004B4F044601281AD01EE0FFF7C1F8F8BD62
:102D18003046FFF7C3F80EE03046FFF7C5F80AE083
:102D28003046FFF7C7F806E03046FFF7C9F802E07B
:102D38003046FFF7CBF840B20128E8D04FE03878AA
:102D480005280BD0062809D03A483B4D00780228C0
:102D580008D0052806D0022C0ED005E0304602F037
:102D68005FF93CE0022C02D0012C11D014E0A87BC2
:102D7800002805D0022803D03878052804D00BE0B5
:102D8800304602F065F915E0304602F055F911E0D9
:102D9800012807D0062809D03046FFF79DF8022CF5
:102DA80008D01CE0304602F06BF918E0304602F01B
:102DB8005BF914E03878012811D170050FD4687BCD
:102DC800C10701D0252004E0800701D5262000E0B6
:102DD8002720297D814202D93220FFF783F8154C3C
:102DE8002078042804D003280ED0072811D014E036
:102DF800FFF77EF8002810D0FFF780F85820FFF77B
:102E080083F80220207008E00C48807CFFF782F8E5
:102E180003E00B48807BFFF783F80320FFF726F8D1
:102E2800F8BD00009C09FF1F9809FF1F9009FF1FAC
:102E38001C09FF1F2309FF1FA60BFF1FBC0BFF1F49
:102E4800D40BFF1F10B5FB2908D8084B9A4205D8A8
:102E58001B2903D3FF2349339A4201D2302010BDE6
:102E6800034B19825A82FFF761F810BD4808000029
:102E78008410FF1F10B5FFF75FF802490020488053
:102E880010BD00002C69FF1FC106C90E0120884033
:102E9800014908607047000000E100E0F0B585B026
:102EA800FEF7C6FF3C4DA860FEF7E6FF0446C007E4
:102EB80011D03A4900200860FEF784FFFEF7E2FFD0
:102EC800374900280BD00F460C3F2E4601280BD05F
:102ED800022831D051E0FEF7DBFF05B0F0BD0878DD
:102EE80000284AD1042145E00878012845D12A4A1A
:102EF800111DC81E02F0FEFEF878002813D06005E8
:102F08000FD502AB01AA03A92648FFF71BF8224BED
:102F180000961B1DDA1E0299019802F003FF02F0C9
:102F2800D5FB082126E06007FBD402AB01AA03A960
:102F38001C48FFF70DF8EAE7087802281DD1164A61
:102F4800111DC81E02F0D6FEF87800281AD06005B8
:102F58000FD502AB01AA03A91248FEF7F3FF0E4BE7
:102F680000961B1DDA1E0299019802F0DBFE02F0A2
:102F7800ADFB1021A878FEF7F1FFFEF789FFFEF7F9
:102F880033FFAAE76007F4D402AB01AA03A90548F6
:102F9800FEF7DEFFE3E70000AC68FF1F9809FF1F9C
:102FA8008C6FFF1F606DFF1FFEB53E4F3F49B87025
:102FB8003D480861062269463D4801F051F86946D6
:102FC800384609780C30C17069464978817069467D
:102FD800897841706946C9780170694609794171F3
:102FE8006946497901710020324A01461154401C52
:102FF800C0B2FF28FAD33048022404700125457076
:10300800062282701B22C270FF26067104224271BA
:1030180005228271C571047203224272CC23837225
:10302800C1720273AA23437381739321C17303741A
:1030380067214174F7218174DB21C1743421017542
:10304800C421417582758E21C1755C2101760B21E1
:10305800417683769721C1763021017756214177D1
:10306800E62181770F490246891D1F23881D02F03A
:1030780063FB11487D222C300670D20042600C3868
:10308800057025214170C4700C494160532181703D
:103098000B4981600121B878FEF766FF02F05CF900
:1030A800FEBD0000AC68FF1FA52EFF1F8003FF1F99
:1030B80000400011606EFF1F606FFF1F55555500DF
:1030C800D6BE898EF8B5204E204C0D46C80716D0BE
:1030D80020781F4FFF2806D014220121B878FEF768
:1030E80043FF012027E00020207002202073532096
:1030F800B07002F0D7FF02F0B5FA6268EDE7680732
:103108001BD50021132001F05FFA207B022804D090
:103118001A2806D050280BD00CE01A202073332030
:1031280002E0502020737320B07002F09BFA01E097
:10313800FF20207004206840F8BDE80602D5102062
:103148004840F8BD0020F8BD806FFF1F8C6FFF1F3F
:10315800AC68FF1F10B50021032001F0DDF8022143
:10316800032001F009F910BD10B50121032001F079
:10317800D3F810BD024901480860704740787D01C6
:103188002869FF1F10B57D21C003C900FEF7F2FEB4
:10319800FEF73CFE10BD000030B5084CE16A8A0815
:1031A80007498A1A8D1AE36A9B08CB1A934201D3FE
:1031B8009B1A00E0EB188342F5D930BD001000409F
:1031C800FFFF3F002021020C01D010211046020A07
:1031D80001D010460839020901D01046091F82089B
:1031E80001D01046891E420801D0881E7047081A6F
:1031F80070470000002805DBC106C90E0120884081
:10320800014908607047000000E100E08307FF22E1
:10321800DB0E9A408907090E9940002808DB8308CD
:1032280009489B001B1818689043084318607047AA
:103238000007000F0838830804489B001B18D8694A
:1032480090430843D861704700E400E000ED00E0D7
:103258008307FF22DB0E9A408907090E9940002850
:1032680008DB830809489B001B181868904308432B
:10327800186070470007000F0838830804489B004F
:103288001B18D86990430843D861704700E400E0F0
:1032980000ED00E08307FF22DB0E9A408907090E44
:1032A8009940002808DB830809489B001B18186808
:1032B80090430843186070470007000F08388308D8
:1032C80004489B001B18D86990430843D86170478D
:1032D80000E400E000ED00E002E008C8121F08C1A9
:1032E800002AFAD170477047002001E001C1121F7F
:1032F800002AFBD1704700000248C069002800D0AE
:10330800004770474003FF1F1CB569460120FEF7C0
:1033180037FE012000900348019000F06BFC01206B
:103328001CBD0000BB0B0000044629A0FEF72EFEC2
:103338002DA0616AFEF72AFE2FA0A16AFEF726FEDD
:1033480031A0E16AFEF722FE33A0216BFEF71EFED4
:1033580035A06168FEF71AFE37A0A168FEF716FED1
:1033680039A0E168FEF712FE3BA02169FEF70EFEC8
:103378003DA06169FEF70AFE3FA0A169FEF706FEBF
:1033880041A0E169FEF702FE43A0216AFEF7FEFDB7
:1033980045A0616BFEF7FAFD47A02168FEF7F6FD30
:1033A80049A0A16BFEF7F2FD4BA0E16BFEF7EEFD25
:1033B8004DA0216CFEF7EAFD4F4841684FA0FEF78B
:1033C800E5FD52480068002800D08047FEE700006D
:1033D8005B48617264206661756C742068616E6414
:1033E8006C65725D0A00000052302020203D2030BC
:1033F80078253038780A000052312020203D2030CE
:1034080078253038780A000052322020203D2030BC
:1034180078253038780A000052332020203D2030AB
:1034280078253038780A000052342020203D20309A
:1034380078253038780A000052352020203D203089
:1034480078253038780A000052362020203D203078
:1034580078253038780A000052372020203D203067
:1034680078253038780A000052382020203D203056
:1034780078253038780A000052392020203D203045
:1034880078253038780A000052313020203D20302D
:1034980078253038780A000052313120203D20301C
:1034A80078253038780A000052313220203D20300B
:1034B80078253038780A000053502020203D2030ED
:1034C80078253038780A00004C522020203D2030E2
:1034D80078253038780A000050432020203D2030DD
:1034E80078253038780A000050535220203D20308B
:1034F80078253038780A000000ED00E0494353523F
:10350800203D203078253038780A00002469FF1FD4
:1035180010B500F04DFBFFF7F7FE002802D0024877
:10352800804710BDFEE70000E1A20000F0B585B0BD
:1035380005460291002927D0154F0024144E803FDC
:10354800002300940222194605200194FEF724FD69
:1035580030698007FCD420200090411E009101D3DF
:103568000846FAE738680028FCDA012103A8FEF7C4
:1035780019FD6846007B284007D00520FEF746FC69
:103588000298401E0290DBD1112005B0F0BD00006A
:1035980080C800400A4610B50146002001F0C6FA6E
:1035A80010BD000070B5A0B00446072802D0032C57
:1035B80002D005E0002200E00122012100F03AF8E3
:1035C8001949C86B06229043001DC863FF202D309F
:1035D800FFF7E2FDA000154A002180188038144C3E
:1035E800856F6B4688002A581A501605360D2652E4
:1035F8001201120D0019491CC9B242801D29F1D3CC
:1036080000F0F8F83A210A48FFF7C8F90021182015
:103618004200A25A401C5118C0B22828F8D3080307
:10362800000C20B070BD000040F000405467FF1F40
:10363800CC6FFF1FF7B56E4C064620681546012172
:1036480089040843206060688021084360606068DE
:103658008903884360606068091208436060480411
:103668008068800302D4112000F0A2FCE06B1021D6
:103678000843E063A068E0218843710849012031CC
:103688000843A060B21E01214E1B0198584F0199B2
:103698000002403FC9021300FEF78AFC06041E41DF
:1036A8005B758F38A1680122D2029143A160A1689D
:1036B800D21091430143A16001210E2000F08EFD3C
:1036C800386A012149028843690208433862386A26
:1036D80002218843710089E0A068FF2201329043EB
:1036E800A060A068D20090430843A0600121072091
:1036F80000F074FD386AFF2101318843290208432C
:103708003862386A4008400030433862A0680821AF
:103718000843A060A06801210843A060FEBDA1681D
:103728000122D2029143A160A168D21091430143C2
:10373800A1600121082000F051FD386A0121C90269
:103748008843E90208433862386A08218843F1004F
:103758004CE0A068FF2201329043A060A068D2002C
:1037680090430843A06001210F2000F037FD386A1C
:10377800012189028843A90208433862386A042172
:103788008843B10032E0A1680122D2029143A160CE
:10379800A168D21091430143A16001210D2000F0DE
:1037A8001DFD386A0121C9038843E90308433862CB
:1037B800386A80218843F10118E0A068FF220132AD
:1037C8009043A060A068D20090430843A060012104
:1037D800092000F003FD386A012109038843290301
:1037E80008433862386A10218843310108438CE75E
:1037F80040F00040014900200862704700F0004096
:1038080004480168FF22120291430122D2031143A6
:10381800016070471CE400E010B5FEF7CFFB012003
:10382800FEF7D2FBFEF7D6FB002010BD0C490D4871
:103838000A78521C0A700270DD2242704A88130A04
:103848008370C2708A1D137803715378437192781C
:10385800827189880A0AC2710172EE214172704729
:10386800D468FF1F606FFF1FF8B54E484068C0431B
:10387800000603D53C20FEF7C9FAF8BDFEF7B0FBF9
:10388800484D0090803D286801218904084328603C
:10389800E869454908402830E8610320FEF7B6FA90
:1038A800686AC703FF0B0320FEF7B0FA686AC4030F
:1038B800E40B0320FEF7AAFA686AC603F60BA742D0
:1038C80001D3204600E03846B04200D33046A74234
:1038D80001D3394600E02146B14200D23146334A8D
:1038E800BA18C32A26D2314BDB439C4222D9304A2C
:1038F80094421FD29E421DD996421BD2081A132801
:1039080018D2284842680C218A4342604168FF2245
:103918001202914341601420FEF778FA214880385A
:10392800416AC269C903C90B08239A43C261214885
:10393800C160F8BD274634460320FEF767FA1948E8
:103948008038406AC603F60BFEF74AFB00998842A6
:1039580001D3401A01E0401A401E17498842AED3ED
:103968001048416809040D0E4168FF221202914374
:103978006A1C1206120C1143416041680C229143E3
:10398800091D41600020FEF731FB642D02D3054874
:1039980000214160062D00D306250748A840FEF700
:1039A800F2FC8CE7C0F0004000FEFEFF91FCFFFF38
:1039B800320400002C69FF1FE40C0000F8B53D48F4
:1039C80040683C4C0006803C8021002806DB60688B
:1039D800084360600320FEF719FAF8BD364D002051
:1039E800686120680122920410432060334F6068A8
:1039F8008021084360600320FEF708FA6869401CCC
:103A08006861606801210904084360600026E06974
:103A18002B4938404018E0610320FEF7F7F9606A47
:103A2800E169C003C00B08229143E161E9680622FD
:103A38005143814201D3091A00E0411A3C2909D2B5
:103A4800E269012109048A43E26162688A4362608B
:103A58002861F8BD761CF6B2052ED8D3E16901209D
:103A680000048143E16161688143616068692E46B1
:103A7800052807D3BFF34F8F13491248C860BFF317
:103A88004F8FFEE760688021884360600320FEF75F
:103A9800BDF9E06938402830E0610320FEF7B6F947
:103AA800606AC003C00BF060E16908208143E161EE
:103AB8009DE70000C0F000402C69FF1F00FEFEFFDC
:103AC800280001000400FA0500ED00E010B52821E7
:103AD8000148FEF791FA10BDA46FFF1FF8B5044620
:103AE8000120FEF793F9FEF78DFA1849184A086085
:103AF800966A184B1E60184BDF6A184D2D68AF4246
:103B080002D2DB6AEB1A00E00023154D2B60331953
:103B1800D362536A2924E40323435362114A127877
:103B2800002A0FD0104A1378022B07D01378012BE4
:103B380006D01278032A06D0C01E02E00F3800E033
:103B480008380860F8BD401FFBE70000E408FF1FC5
:103B580000F00040340AFF1F00100040180AFF1F41
:103B68001C0AFF1F1C09FF1F4A0AFF1F0FB410B5CC
:103B780003AA0448029901F08FFA10BC08BC04B0EB
:103B8800184700009D35FF1F38B5034B00240FCBA5
:103B9800009400F099FF38BD0468FF1F10B5FFF7C7
:103BA800F1FA10BD10B54000FFF7F6FA10BD00009D
:103BB80003490020486103490860486070470000D5
:103BC80040F0004040F1004010B504460748406806
:103BD800808DC00705D00648406AC003C00B01F0BD
:103BE80093FE2046FEF714FA10BD00002C69FF1F53
:103BF80040F0004070B58AB000241E4D049405942E
:103C08002878012806D004A90120FEF7B9F9002870
:103C180002D000200AB070BD049800900598019069
:103C2800154881680291C0681349039006AA1031AB
:103C38006846FEF703F9104E10222036314606A8D2
:103C4800FEF7ECF9002811D0012028700B4A314604
:103C58006846FEF7F3F8049400206946059482004C
:103C6800401C8C500428FADB0120D3E7FF20287081
:103C7800CFE700005069FF1F002900115072FF1F95
:103C880070B50720FFF78EFC1F4C20800320FFF73C
:103C980089FC1E4EFDF792FF00221D4BFDF7AEFE7C
:103CA80000221C4BFDF712FF00221B4BFDF7F2FD13
:103CB800FDF792FF85B235802088FDF77FFF174A10
:103CC800174BFDF79BFEFDF787FF80B2FF22291AED
:103CD800FF325043FEF7A8F980B2FDF76FFF0022CC
:103CE800104BFDF77CFE104A104BFDF787FE0022B3
:103CF8000F4BFDF77AFE00220E4BFDF770FEFDF725
:103D08006BFF208070BD0000D668FF1FD868FF1FBA
:103D180000C8A94000C6AC4000C06C40998FF99813
:103D28008FF9C83F0020544054E3A59BC4200540A8
:103D380000C0724000001840F0B52D4895B0C16B26
:103D48008F05416BBF0D490A4902416329484078F4
:103D5800B84245D1022404AE0125A5403D4236D0E3
:103D680023494A6BAA434A630020E1018C46624614
:103D780081005218204951188A6813051B0D42000A
:103D8800B352896892190901090D401C51801D28F8
:103D9800EDDB17480123856316490878002816D0FB
:103DA800E00701D0601E00E0601C820052185168D4
:103DB800002908D06946009308711D2002960873EF
:103DC8005168684688470A49486B28434863641C19
:103DD800072CC1DD07488078002801D100F050F891
:103DE8000348416B054A1143416315B0F0BD00001B
:103DF80000000540A46FFF1F00040540FF010000FC
:103E080010B50448C16B034A40321068D06000F016
:103E18001FFC10BD008000400648006AC00708D09B
:103E280004481030C06804480168002901D0052002
:103E38000847704740100040E468FF1F0648406B81
:103E4800C00708D004482430C06804480168002925
:103E580001D006200847704740100040E468FF1F63
:103E680010B5054901200870044A0021112000F00E
:103E7800F7FCFFF72BFE10BDC468FF1F0938FF1FB2
:103E8800F8B525480078002844D0254823494163DF
:103E98000122244B52071A60BFF34F8FBFF36F8F75
:103EA800214B00225A638163C26B002AFBD11F4D4C
:103EB800A86808218843A860686889028843686000
:103EC8001B4E0024A00080194068002811D0124918
:103ED800E0B2891D0F5CFF2F0BD00021384600F09F
:103EE8007DF90021384600F017FA0021384600F025
:103EF80043FA641C092CE5DBA86840084000A86068
:103F0800112000F03BF8FFF7E1FD112000F0DEFC86
:103F18000020F8BD1220F8BDC468FF1FFF01000093
:103F28000000054080E100E0C003FF1F40F00040B2
:103F3800A46FFF1F38B5FDF745FF01229207936A6A
:103F480008240094002B01D1012090620A48022124
:103F5800016000994D1E0095FBD203210160009479
:103F6800641E0094FCD200210160002B00D19162F4
:103F7800FDF73AFF38BD000000C000400121890765
:103F88000122202804D28B68824093438B607047BB
:103F9800402805D24B692038824093434B617047D3
:103FA8006028FCD20B6A4038824093430B6270470A
:103FB800012292070121202804D2936881400B43F3
:103FC80093607047402805D25369203881400B43DD
:103FD800536170476028FCD2136A403881400B4314
:103FE80013627047012110B589070122202813D2D6
:103FF8000346153B012B07D80A68202082430A6034
:104008000A6802430A6010BD0B68824093430B6044
:1040180008681043086010BD402814D20346353B99
:10402800032B07D8CA6810208243CA60CA680243B3
:10403800CA6010BDCB68203882409343CB60C86803
:104048001043C86010BD6028FCD24B6A4224201A75
:10405800824093434B62486A1043486210BD000097
:10406800F7B582B00446FEF7A7F900906003112166
:10407800400B090647188D01AE6A22488168E8128C
:10408800814209D91F20C004044005D01E4844625B
:104098000168AA1311430160002E09D1FDF792FEB1
:1040A8001A490220086068620120A862FDF79CFE98
:1040B800002003E03A5C03990A54401C04998842A2
:1040C800F8D30027002E08D1FDF77CFE0F480760C3
:1040D80003206862AF62FDF787FE0A488168012005
:1040E800C004814208D9002C06D0074847620268FC
:1040F800012109048A4302600098FEF76CF9002048
:1041080005B0F0BD1869FF1F00C8004000C000409E
:10411800F0B52E4C89B02078012818D0FEF74CF95C
:104128002B4D079028698007FCD42027009700981A
:10413800411E0091FBD2264E803E30680028FCDAF2
:1041480024490120FFF7F2F9002821D102E00020DC
:1041580009B0F0BD002000900346014601900322FB
:104168009F20FDF719FF032102A8FDF71BFF28690F
:104178008007FCD400970098411E0091FBD230685C
:104188000028FCDA13490120FFF7D0F9002801D0F4
:104198001120DDE70798FEF71EF96A46917A527AF0
:1041A8000804120210436A46127A0B4B10436060EF
:1041B800084611380122052802D81046884001E037
:1041C8000120C004A06098612270C0E71869FF1F31
:1041D80080C80040FFFFFF078008FF1F30B5C21FDF
:1041E8000A2A01D3062030BD0124074D9440002936
:1041F80005D0002100F0C0F82868204301E02868B5
:10420800A0432860002030BD00380040054B012243
:104218008240D868002901D0104300E09043D8605C
:10422800704700000038004070B5FF2814D082079E
:10423800D30E8408094A5E1DA400A518AC69F21AB9
:104248000126521C9640761E9E40B44399400C436A
:10425800AC610121FFF7DAFF70BD000000380040B3
:1042680010B5114C2078002801D0072010BDFF217F
:104278002D310D48FDF7C0FE012020700B490020AC
:10428800086348630A490862486202211020FEF761
:10429800DFFF1020FEF7AEFF064A07490D2000F0A9
:1042A800DFFA002010BD00008C70FF1F0080004066
:1042B80080F00040D144FF1F4544FF1F10B5172868
:1042C80001D3052010BD0C4B9C6B01228240104687
:1042D80020439863586B90435863DC6B012907D0DF
:1042E80020469043D863186B02431A63002010BD20
:1042F80010462043F6E7000000800040054B0122ED
:10430800801E82405869002901D0104300E0904384
:10431800586170470038004070B5044614480E468E
:104328000519002902D16878012808D00021204603
:10433800FFF76CFF022C04D0032C02D005E0072005
:1043480070BD01212046FFF7D9FF00212046FFF765
:1043580045FF08490120A0404A68012E05D0824344
:104368004A6002206870002070BD02434A60FAE784
:104378008C70FF1F0080004070B5420083180D4A02
:104388009C18A5786478D65C641B0122641CA24042
:10439800521EAA40084BA940132806D2B000C018E4
:1043A800836893430B43836070BD58699043084307
:1043B800586170BD8F67FF1F00F0004007494A68C9
:1043C800012383401A4201D0096802E003494031C1
:1043D8000969C140C807C00F70470000008000404D
:1043E80070B5154C45002E1976780123114AB34053
:1043F80000290ED0142809D0152807D0162805D072
:10440800605780008018816819430DE0506918438F
:104418000EE014280AD0152808D0162806D06057B0
:104428008000801881689943816070BD5069984305
:10443800506170BD00F00040D467FF1F70B5104D8B
:1044480000242E197078012803D1E0B20121FFF76A
:10445800C7FF707802280ED1E0B2FFF7AFFF012145
:104468004140E0B200F074F8E0B2FFF7A7FF0C217A
:10447800614349194876641C172CE2DB70BD0000C3
:104488008C70FF1F10B50F4C0D4A0123245C1428B3
:1044980009D2106A002902D0A340184301E0A340C2
:1044A8009843106210BD506A002903D0203CA340F5
:1044B800184302E0203CA3409843506210BD00001E
:1044C80080F000407867FF1F70B502211020FEF7CA
:1044D800BFFE1020FEF78EFE00241C4D07E0022CC4
:1044E80001D0032C03D1E0B20121FFF707FF2819FF
:1044F800407801280BD1E0B2FFF760FFE2B2014635
:10450800104600F061F8E0B20021FFF769FF0C20C7
:1045180060434019007E002814D0E0B200F066F82D
:10452800E6B23046FFF74AFF002801D0012100E03B
:1045380000210C2272435219527E824202D0304628
:1045480000F0BAF8641C172CC9DB70BD8C70FF1F13
:10455800F8B542008318184AD55C9A189278521E0A
:10456800D4B2164A12185278022A21D1144EB76BC7
:104578000122134683401F43B763124B13280ED200
:10458800002906D0A900C9188B68A24093438B6004
:104598000BE0A900C9188B68A2401343F7E700296C
:1045A800596906D0A240914359610121FFF76AFF7A
:1045B800F8BDA2401143F7E78F67FF1F8C70FF1FFC
:1045C8000080004000F00040012200B5064B824008
:1045D8000029196801D0114300E0914319600121B5
:1045E800FFF79AFE00BD00000080004070B5044649
:1045F800164821460C2251430D186A680026002AE5
:1046080002D1AA68002A1CD0104B0222183B1B19A1
:104618005A700122425400212046FFF77DFE686847
:10462800002808D0A86800280DD02046FFF7C6FE4D
:10463800002808D0002631462046FFF73FFE00201C
:1046480070BD122070BD0126F5E70000A470FF1FA1
:10465800F3B5184E002481B0074601252846A0402E
:10466800384223D00299084000D001200090E0B2DF
:10467800009900F021F80C20604380194168806897
:1046880000290ED0002807D00098002802D0002169
:10469800E0B203E00121FBE7E0B20121FFF70EFEE3
:1046A80004E0002802D0E0B20021F7E7641C172CD0
:1046B800D4DBFEBDA470FF1F074A0C2343439B189D
:1046C8005A68002A01D0012904D09A68002A02D029
:1046D800002900D110477047A470FF1F074900B593
:1046E80009184A78022A06D001224A701146FFF7B3
:1046F80013FE002000BD062000BD00008C70FF1FC7
:1047080030B587B0182217496846FDF793FC002496
:104718006D46600041194978285CFFF72DFE641C3E
:10472800E4B20B2CF5D310484169C200914305222D
:1047380012048918416141690122520611434161FD
:1047480041690322520591430122520589184161AA
:10475800072000F00DF800F021F800F007F807B086
:1047680030BD00003467FF1F00F000400F20704785
:104778000449420903D00020C86006207047C86079
:1047880000207047E868FF1F0348C1691F225204D0
:104798009143C1610020704700F000400548C1699D
:1047A8001F2252049143044A928952041143C16161
:1047B8000020704700F00040E868FF1F10B578211E
:1047C8000C48FDF719FC0C480078012803D0022892
:1047D80004D0042804D1FDF733FC01E0FDF70AFBFF
:1047E80006480078C00702D006490548086300203B
:1047F80010BD0000B871FF1FE868FF1F00200040CF
:104808008123FF1FC000FF1F70B505461248122400
:104818000078012815D0042813D0FDF7D3FA0F48E3
:1048280000210C224A43825C002A11D0AA420CD1F2
:104838000C235943012208184270FDF701FC00249B
:1048480006E0FDF7FDFB002070BD491C0A29E8DBE6
:10485800FDF7CAFA204670BDE868FF1FB871FF1F50
:1048680030B50D4C00230C255D43655D854201D1B3
:10487800072030BD002D04D05B1C0A2BF3DB03207E
:1048880030BD0C256B431B19F9D000245C701870DF
:104898009A602046596030BDB871FF1F70B5FFF7A8
:1048A8007DFF094D002420460C214843295C00293E
:1048B80007D040194068002800D08047641C0A2CA3
:1048C800F1DB002070BD0000B871FF1F70B5054610
:1048D800164800240078012811D004280FD0FDF7CD
:1048E80071FA0021124A0B4608460C267043165CE2
:1048F800002E0FD0AE4205D18018437007E0FDF7B7
:104908009FFB0DE080184078002800D0641C491CEB
:104918000A29E9DB002C05D0FDF792FBFDF764FAC4
:10492800002070BDFDF766FAF8E70000E868FF1F91
:10493800B871FF1F70B519480121890742688A605C
:10494800826801231A434A6115490A6B0261496B5F
:10495800416100210420FEF79DFC01211420FEF78F
:1049680099FC01211520FEF795FC01211720FEF77F
:1049780091FC0C4D002420460C214843295C002959
:1049880009D040198068002800D08047641C0A2C90
:10499800F1DB002070BD122070BD0000E868FF1F29
:1049A80080F00040B871FF1F10B516493F2008700D
:1049B8001549012008701549002008701448C16B7A
:1049C800490949010931C163C16B60229143203112
:1049D800C16300F021F800210420FEF717FC012133
:1049E8001420FEF713FC01211520FEF70FFC01210E
:1049F8001720FEF70BFC012189020648FDF726FB6C
:104A080010BD0000480AFF1F490AFF1F680AFF1F60
:104A180080F000406069FF1F10B5FEF779FD10BDFA
:104A280070B540251C4C012802D0002811D027E081
:104A38006069052140014009C90640186061E069C4
:104A48001649084016494018E061E0692843E061CA
:104A580016E000210A20FFF78FFC00210B20FFF74A
:104A68008BFCE069032109020843E061E069A8437F
:104A7800E06160690B214001400909074018606145
:104A880060690121090708436061A069032149049D
:104A98008843A06170BD000000F000407F00FEFF69
:104AA80080FD010010B5064AD160906000F04EF814
:104AB800044A00211320FFF7D3FE002010BD000098
:104AC8000869FF1F554BFF1FFFB581B00A9F144DA2
:104AD8007E01A85D002802D0112005B0F0BD68460F
:104AE800407B002801D00520F7E7741920212046D3
:104AF800FDF782FA01A80FC810340FC4384601F038
:104B0800CDFB0120A855002F06D0064A0021192008
:104B1800FFF7A6FE0020E0E70021034A0820F7E798
:104B28004C70FF1F0764FF1FFD63FF1F10B5064C85
:104B380043011B199B7E002B02D001F011FB10BD15
:104B480001F0D8FA10BD00004C70FF1FF8B5002521
:104B580018480095426800782B460121FDF77CFA39
:104B68001649154888630120154980040860BFF379
:104B78004F8FBFF36F8F13480168FF22120402267C
:104B88009143B20511430160642000904120FFF772
:104B98000FFA4020FFF70CFA740766620098411E6E
:104BA8000091FBD203206062FFF7C4F9A562FFF70A
:104BB800AFFAF8BD1069FF1F050001FF00C80040EB
:104BC80080E100E010E400E07047000070B50D4699
:104BD8000446282910D1A420005BE188401A0B491B
:104BE80080B2884208D321466A3105220E46481F02
:104BF800FDF714FA002804D029462046FDF732FABA
:104C080070BD31462046FDF733FA70BDFF7F0000C6
:104C180010B5002901D0FDF731FA10BD70B5264D49
:104C2800264E2868002804D0FDF72EFA2978C840B7
:104C380004E0FDF729FA3168FDF79CF90446286875
:104C4800002804D0FDF726FA2978C84004E0FDF7CB
:104C580021FA3168FDF78EF91949A1228978920065
:104C68005143184A184B126889180D78174A002DB5
:104C780017D0FF31FF3102314C6C1548641C4C646D
:104C880000689968884201D3401A02E0114B591A0A
:104C98000818D2381060012C02D1FF30F5301060AE
:104CA80070BDFF31FF31002502314D645968201A6B
:104CB800C9684018F3E700001C08FF1F1808FF1F09
:104CC800300DFF1F3409FF1F2C69FF1FA009FF1FAC
:104CD8009C09FF1FFFFF3F00F3B506466548A12169
:104CE800807889004843644983B00968A122441840
:104CF8002046FF3021305F49009089789200514367
:104D08005D4A407D126800258F18FF3781373228A9
:104D18001DD022281BD0F86A0168002909D0818893
:104D2800001D090A891CFDF7BBF9F96A0020012555
:104D38000860FDF7BBF904992746FF370880C1379B
:104D4800387C002821D0B0421FDC002014E04B49F9
:104D5800012008600020F96A01250860E9E7800061
:104D68000019FF308130006B8188001D090A891CF9
:104D7800FDF796F90198401C0190397C8142EEDCE0
:104D8800C8B2361A4519002038743D490020C87049
:104D9800FF20AD3000590168002903D00079C043D5
:104DA80080071ED00098C07D00281AD00098807D0A
:104DB800002816D1387CB04213DAFF204930005B56
:104DC800010A2046FF304930891CFDF769F900992E
:104DD8000020C87500980121817529486D1CC17093
:104DE800761E387C002802D0284605B0F0BD204643
:104DF800FDF762F90090002821DD002E1FDD002755
:104E080018E02046FDF75EF980000019FF300130F8
:104E1800C06E8188001D090A891CFDF741F92046EA
:104E2800FDF756F9E01DFF30FA30016A6D1C491C88
:104E38007F1C01620098874201DAB742E1DB092052
:104E480080012018817E002911D0017D00290ED013
:104E5800428E002A0BD0817F914202D2491C817771
:104E680005E0002181771A212046FDF737F9A8B21D
:104E7800BBE70000300DFF1F3409FF1F001403407B
:104E8800E010FF1F70B54E480068012803D14D4857
:104E9800816D491C8165FCF7CBFF4B4D4B49A860E0
:104EA8004B4841610124C46004602878002806D07A
:104EB800062248494848FCF7B5FF002028704749B2
:104EC800486B474AC0B21278002A17D1454A0023D6
:104ED800D356002B444BD35606DB1B0400255557ED
:104EE8002A029A18121808E0FF331B0400255557A8
:104EF8002A029A183D4B1218D2184A63022801D286
:104F0800022002E0502800D95020394A1278022A9B
:104F180011D0384A1578384B1E78B5420FD9157814
:104F28001B78EB1A801E4010434310784001C01ACA
:104F38001030401104E0314A1578314BECE7107815
:104F48004A69120A120210434861FCF79BFF0546A2
:104F5800052801D0042D1ED12A480078002806D043
:104F680029480078002802D00020FDF7BDF827481E
:104F7800A121807889004843254909684018FF30F5
:104F8800FF300230007B042801D0032803D1FF2022
:104F98005F30FCF7B9FF022D0ED11E4800780128BA
:104FA80007D0032805D0022803D01B480078022820
:104FB80002D16C20FCF7A8FF1848C48270BD00001D
:104FC8009809FF1FFC0FFF1F2C69FF1FFF3F000000
:104FD80000100340D50BFF1F7211FF1F8000034014
:104FE8008C09FF1F680AFF1F00000000FFFE000079
:104FF800490AFF1F440AFF1F450AFF1F460AFF1FF1
:10500800470AFF1FF908FF1F2209FF1F300DFF1F66
:105018003409FF1F1C09FF1F2309FF1FBC0BFF1FBB
:1050280010B504490968002901D0884710BDFCF76C
:1050380053FF10BD8002FF1F10B50449896800297D
:1050480001D0884710BDFCF747FF10BD8002FF1F45
:1050580010B504494968002901D0884710BDFCF7FC
:105068003BFF10BD8002FF1F10B5044909690029E4
:1050780001D0884710BDFCF72FFF10BD8002FF1F2D
:1050880010B50449C968002901D0884710BDFCF74C
:1050980023FF10BD8002FF1FF7B5064686B000202B
:1050A80004900390079810E125290AD00499002953
:1050B80001D0039802E0049000200390401C039064
:1050C80000E10398002805D081B20498B047002079
:1050D8000490039000250422082310210798401CFF
:1050E800079000782B2819D004DC202818D0232812
:1050F80004D117E02D280FD0302815D0079A0027A3
:105108001078FF430346303B3C46092B0FD807A8CD
:1051180000F0B8FF044615E00D43DFE71543DDE76F
:105128001D43DBE7202000E001200543D6E72A28BD
:1051380008D1521C0898079210C80890002C01DA70
:1051480064420D43079938460A782E2A14D1491C1F
:10515800079108780246303A092A03D807A800F0D0
:1051680091FF06E02A2806D1491C0791089901C930
:105178000891002800DA0020079A39461778682F26
:1051880003D06C2F01D04C2F02D1521C3946079204
:10519800079B0A221B786E2B2CD00CDC632B2AD0A1
:1051A80004DC412B26D0582B11D19BE0642B01D075
:1051B800692B0CD19AE0732B3DD004DC6F2B77D090
:1051C800702B04D164E0752B73D0782B6FD0252B0E
:1051D80009D0252069460872012102A8B04707981E
:1051E8000178002975D0079869460078087201216E
:1051F80002A8B04766E0E80609D42025641E002C02
:1052080005DD68460572012102A8B047F6E708984F
:105218006A4601781172001D0890012102A8B04762
:10522800202504E068460572012102A8B047641EE3
:10523800002CF7DC46E0089A02CA0892009100297F
:1052480001D12DA100910A4600E0491C0B78002BE2
:1052580001D0401EF9D28F1AE8060AD4202520462C
:10526800641EB84205DD68460572012102A8B047F0
:10527800F5E7B9B20098B047202504E06846057202
:10528800012102A8B0472046641EB842F6DC19E0A6
:10529800611C02D1082401210D4300900898019552
:1052A80002C823461022089009E001E001E01BE053
:1052B8000822089B02CB08930195009023463046AC
:1052C80000F05EF80798401C07900178002901D08B
:1052D800EAE60EE00398002802D081B20498B047AD
:1052E80009B0F0BD402215431022E2E702231D4316
:1052F800DFE7401E0790E5E73C4E554C4C3E00006A
:1053080070B5124C04202070114D01202870FCF754
:10531800F1FEFDF76DF8FFF747FBFFF7F1F920788D
:10532800FCF7EEFE2878FFF77BFBFFF747FA094901
:1053380003C9FFF7B7FBFEF727FCFEF791FFFEF75F
:105348008FFDFEF769FA002070BD00004A0AFF1FB2
:10535800A868FF1F2C67FF1F10B501210820FFF761
:1053680033F90820FFF7BAF97D20C000FDF70AFFDE
:1053780000210820FFF728F900F0F6F910BD000019
:10538800FFB50746574897B0219D006815901E46FF
:105398000A46680602D5534840681590E80601D5C4
:1053A8006D086D001998801E232870D2E80701D077
:1053B800302100E0202110A8017300210172A80704
:1053C80010D5002A04DA2D2010A90872524208E0EC
:1053D800680701D52B2002E0280703D5202010A953
:1053E80008725E1EA80608D51998102802D0082849
:1053F80002D002E0B61E00E0761E0024002A14D077
:1054080010461999FCF7B6FD159A525C01A90A5580
:10541800641C0200F4D12098844200DD2094209876
:10542800361A112005420BD00EE03020694608716B
:105438000124F0E720206946087001216846B84732
:105448003046761E0028F5DC10A8007A002802D025
:10545800012112A8B847A80616D51998082802D01D
:10546800102802D010E0302009E03020694608708A
:1054780001216846B8471B480068203040786946D3
:10548800087001216846B847E80604D507E027E018
:10549800012113A8B8473046761E0028F8DC3025CD
:1054A8002099481E2090A1420BDD68460570012115
:1054B800B847F5E7285D6946087001216846B8478E
:1054C80000E001AD2046641E0028F3DC20243046AD
:1054D800761E002804DD684604700121B847F6E707
:1054E8001BB0F0BD0069FF1F10B500240220FCF7B7
:1054F8000DFE0549022208600021FCF70DFE20463A
:10550800FDF752FD10BD0000C068FF1F30B51A48F6
:1055180000681B48194941610121C16001601949AE
:10552800486BC0B2022801D2022002E0502800D9FC
:105538005020154A1278022A11D0144A1478144BB4
:105548001D78AC4215D914781B78E31A801E4010D8
:10555800434310784001C01A1030401103E00D4A4F
:1055680014780D4BECE74A69120A1202104348619D
:1055780030BD1078F7E700009809FF1FFF3F0000D3
:105588000010034080000340806FFF1F440AFF1F84
:10559800450AFF1F460AFF1F470AFF1F37B568461F
:1055A800007800F081FA6846C078104C002816D0C0
:1055B8000146FCF7B7FDA0680199000E00060843F4
:1055C800A0600220FCF7B4FDA06869460002897853
:1055D800000A09060843A0600298E0603EBD6846DC
:1055E8004078FCF7ABFD0020ECE7000040000340EA
:1055F80010B5FCF7A9FD3C2208215A20FCF7AAFDAA
:1056080010BD10B5FCF780FCFCF7AAFD3C22082170
:105618005A20FCF79FFD10BD70B500242120FCF72F
:1056280073FC064D06E00320FCF7F0FB641CE4B2B3
:105638000A2C02D828680028F5D170BD9809FF1FE8
:1056480010B501210A20FCF791FD3C20FCF794FDE0
:105658004220FCF797FD342208213920FCF77AFD17
:1056680010BD000010B5FFF7D7FFFCF7ABFB1448DF
:1056780007C8FFF793FFFFF7E3FF114C0C34207BBB
:1056880000F036F82078022815D0FFF7B1FFFCF7B4
:105698007FFDFCF783FDFF20FCF726FD09484178D4
:1056A800891CFCF7FDFCFFF731FF07490120086062
:1056B800FCF79AFB10BD208AFFF7A3FFE7E700007D
:1056C800806FFF1F606EFF1F9809FF1F10B5064807
:1056D8000078032806D0054820218078FCF73EFC96
:1056E800002010BD012010BD8C6FFF1FAC68FF1F8C
:1056F80010B50D490023CB560C4A002B0C4BCB564A
:1057080006DB1B0400240C5721025918081808E06E
:10571800FF331B0400240C572102591808180549A7
:105728004018506310BD0000680AFF1F8000034046
:1057380000000000FFFE000070B5164604461D4636
:1057480002220848FCF76EFB064806222146801C08
:10575800FCF768FB03482A4631460830FCF762FB31
:1057680070BD0000606EFF1F10B5B621362000F036
:105778007AF80021362000F076F8C021112000F0D8
:1057880072F80A20FEF70AFA8C21122000F06BF852
:10579800F921162000F067F80A20FEF7FFF9F82132
:1057A800192000F060F80A20FEF7F8F905211D20FD
:1057B80000F059F801210F2000F055F801210F20C1
:1057C80000F051F809211F2000F04DF810BD10B568
:1057D8000446FDF788F82420FDF75CF8FDF7B4F8D7
:1057E8002046FDF757F8FDF7AFF8FDF796F8FDF7F7
:1057F8007AF82520FDF74EF8FDF7A6F8FDF728F80A
:105808000446FDF70BF8FDF788F8204610BD70B583
:1058180015460C460646FDF766F82420FDF73AF8CB
:10582800FDF792F83046FDF735F8FDF78DF8FDF7EE
:1058380074F8FDF758F82520FDF72CF8FDF784F8E3
:1058480005E0FDF705F82070FCF7CEFF641C6D1E1F
:105858002D062D0EF5D1FCF7FBFF2070FCF7DEFFBF
:10586800FDF75BF870BD70B50D460446FDF73BF8D3
:105878002420FDF70FF8FDF767F82046FDF70AF832
:10588800FDF762F82846FDF705F8FDF75DF8FDF726
:1058980044F870BDF8B51B48416880221143416047
:1058A800184D0A260027803DE86940084000E86155
:1058B8000620FCF7ABFA134CC03CA06980210843D2
:1058C800A061E86901210843E86102E00820FCF7CB
:1058D8009DFAA86A800504D43046761EF6B20028E0
:1058E800F4D1002E07D0286A7E21C70BA0690F408B
:1058F80088433843A061A16980208143A1613806AB
:10590800400EF8BDC0F00040124B10B512497E227F
:1059180098420AD98B695B069B0E06D088698B6909
:105928004006800E9343401E0CE00C4B98420FD269
:10593800886910407E280BD288698B694006800EE2
:105948009343401C400003438B610320FCF75EFA3D
:1059580010BD00000B20000000F00040FD1C0000FE
:1059680010B50849064808600749086000F0D6FAEB
:10597800064A0121582000F041FAFFF78BFF10BDBD
:10598800841E0000140AFF1F380AFF1F600AFF1F49
:1059980030B538480168012292041143016041681A
:1059A800032212069143344A13781B0619434160B7
:1059B8004368032189058B4330490C78A4052343A8
:1059C800436043686024234343601378022B08D064
:1059D8001378012B05D00B78022B02D00B78012B02
:1059E80004D14368FF240134234343601278032A17
:1059F80002D00A78032A03D1426880231A434260FE
:105A0800426803239B041A4342600B780122D205A3
:105A18001B48002B03D11B4B1B78032B19D0C368E1
:105A28009343C360164A184B4032D360FF25813533
:105A38001561164C5461164B9361114B80335D60B0
:105A48009C60144CDC60144B03600978002903D077
:105A580006E0C3681343E4E70168012319430160C2
:105A68000E4909780E4BC906C90BC91881630D4840
:105A7800D06130BD40F000404C0AFF1F4B0AFF1FA9
:105A8800800003404A0AFF1FC00B00207A3E6A07C5
:105A98000000890400808904CC240000480AFF1F04
:105AA800250800002FFCA601F8B505004A484B4B15
:105AB8004B4C4C4A4C4934D0022D32D086155710E5
:105AC800066286699E43B31883612078002833D024
:105AD8000F6146480863464800780122120380187F
:105AE8004861414E404C434B803E403C002D27D0FE
:105AF8006521414AC9024148012D2ED0022D31D0DD
:105B0800032D5AD0042D58D03D49691831603D49BC
:105B1800A1602360E06002210846FCF703FB3A48D5
:105B28002BE08026066286699E430123DB04F61873
:105B380086612078002801D00A61CAE70B61C8E7AE
:105B4800324830600020A06023603148E0600321C3
:105B58000846FCF7E7FA2F480FE02F4B3360A260A6
:105B68002160D7E72C4B5B1C3360A2602160E060AA
:105B780002210846FCF7D6FA28482061F068FF2180
:105B88000843F060264860612648A0612648E06125
:105B980026482062264860622648A0622648E062BD
:105BA8002648206326486063E020012D0DD0216837
:105BB800022D0ED081432160F8BD224BEB183360D3
:105BC800214B73602160A260A4E7216881432031E2
:105BD800F1E781434031EEE7C000034000001C00BC
:105BE8004B0AFF1F0000040080000340030000016F
:105BF800440AFF1F00280B0055555537D6BE898E1D
:105C080000800642555555008055082200800678C8
:105C180007EE7536806608220180063D8045082219
:105C2800A49C5C544C44434241524C46403A342E66
:105C380028007F554F49433D37312B4C46403A3475
:105C48002E28221C00800698545A9850F0B5224BF2
:105C5800214D21498026204A0727BF04403BC03DEB
:105C6800E024803902281662966914D0BE430127C1
:105C7800BF04F6199661194A1278002A1ED07A10C4
:105C88001A6101281ED0164A801828601548086134
:105C98000868A04314E00120BE43C004361896618A
:105CA8000E4A1278002A00D0401018610E48286069
:105CB8000E4808610868A043403001E01F61E0E732
:105CC8000860F0BD0848401E286009480861086857
:105CD800A0432030F4E70000C00003404B0AFF1F38
:105CE80000800698805508220280063D80450822DB
:105CF8008066082270B50A4B5C6A9D6AA305012676
:105D08009B0D7602B34201D99B1B02E0FF33FF33A0
:105D180002330B80290E0170200E107070BD000038
:105D2800C000034070B584050126A40D7602049DC9
:105D3800B44201D9A41B02E0FF34FF340234090E37
:105D48001C801170000E287070BD000010B50A4943
:105D580000200870094902200870FFF719FE08485A
:105D6800007800F011F8074C2078FFF79DFE2078A6
:105D7800FCF71AFA10BD00004B0AFF1F4C0AFF1F60
:105D8800480AFF1F490AFF1FF0B51A4A03230725CF
:105D9800D60019499B026024ED0157693F281AD0A3
:105DA800B74305263604BE195661CA689A43CB1410
:105DB800D218CA60CA69A2432032CA61CA69AA4312
:105DC800CA610D4940398A6BC0061205120DC00B15
:105DD80002438A63F0BDB7430126B604BE19566173
:105DE800CA689A43CA60CA69A243CA61CA69AA430F
:105DF8008032E5E700F00040C0000340F8B53A4BB8
:105E08005D6A9C6A00265E629E62384B58630E206B
:105E180018629E155E62402098625020D862FF206A
:105E28002B30586231484030012915D08021016259
:105E38002F49FF232D48A533403083602D4B436005
:105E48002A4B2D48403B18617D20C0000090471E1A
:105E5800009705D33846FAE7066225498331E8E713
:105E6800264889050F18214840388763234B5B1C57
:105E7800C918816322480090224800780300FCF783
:105E880097F805040408060D08001F4800E01F489D
:105E980000901F4810601548403005E01D48F7E79E
:105EA800C16AC943890F14D000994B1E0093F7D2D9
:105EB8000E4940398F630D4900228A62CA628260A6
:105EC8004E620A62FF204130486207484562846298
:105ED800F8BDC16A104B1940116011680122090C04
:105EE800120489184160E3E7001003408000034072
:105EF800CA0200002020000080560C2064652100A2
:105F0800102700004A0AFF1F204E000030750000CD
:105F180000002020409C0000FFFF3F3F00B500210B
:105F2800022000F021F80C49801C08700021422052
:105F380000F01AF80949801C08700121022000F0BD
:105F480013F80749801C08700121422000F00CF862
:105F58000449801C087000BD440AFF1F450AFF1F42
:105F6800460AFF1F470AFF1FF8B53B4C394A226013
:105F7800394D394A07239B04803540320129A969E4
:105F88000ED0994301239B04C918A9613349D160F4
:105F980033490B780121C905324E002B07D009E09F
:105FA80099430123DB04C918A9612F49EFE7337826
:105FB800032B14D0D3688B43D36050630E20106238
:105FC80000275762FF20153050622848009030782B
:105FD8000300FBF7EDFF0507070D090B0D00D3685C
:105FE8000B43E9E7224802E0224800E022480090FB
:105FF8000098431E0093FBD2686B57620002000EA4
:1060080017621E4BD360FF23413353626523DB02C3
:1060180023601B4D2F78E023012F0AD02D78022D05
:1060280025680AD09D4325600D4B1B78002B07D0AF
:1060380009E025689D432035F5E79D434035F2E7A3
:106048003378032B03D0D3688B43D360F8BDD36870
:106058000B43FAE710000300400003407F40730041
:106068004B0AFF1F4A0AFF1F7F40530010270000FA
:10607800204E000030750000409C00004040100099
:10608800490AFF1F0146002006E0531C0B600A2343
:1060980012785843303810180A681378303B092BA7
:1060A800F3D9704710B502220E490720FFF7AFFB5E
:1060B8000E20FFF78CFB0B4988704A780004120207
:1060C8000978104308430749891FC860FDF7D8FDC0
:1060D800FDF7ACFB1F23044A04490548FFF72CFBD6
:1060E80010BD0000DA68FF1F606FFF1FB268FF1F56
:1060F800B868FF1F78B5174B012800D1164B00244C
:106108001648009404E0009D6E1C009685421ADC37
:10611800DD6FED07F7D10AE0009D6E1C0096854201
:1061280011DC1D7DAD06F7D50D781D70491C15468F
:10613800521E92B2002D0094F3D106E000994A1C39
:106148000092814201DD0D2078BD197D4906F5D503
:10615800002078BD0040004000900040A08601006B
:10616800F7B507462A49400144182A4E241D15460A
:10617800002A10D0019800280DD02178002908D0D5
:10618800E088A84205D3012916D0A188491981427F
:1061980003D90320FEBD0620FEBDFBF713FEA18830
:1061A800A0682A4640180199FCF704F8A08840190D
:1061B800A080FBF719FE27E0A0680199FBF7FAFF1A
:1061C800A5800020608002202070A168102D00D9D1
:1061D8001025012F00D1104E726802208243726090
:1061E80004E06088421C6280085C307028466D1E9E
:1061F800ADB20028F5D1002F08D01920FEF704FB16
:1062080070680221084370600020FEBD0820F5E791
:106218004C70FF1F0040004000900040F8B5064653
:1062280008270B20184C012E02D11927174C1120D2
:106238000121814016480160BFF34F8FBFF36F8F74
:10624800144871010D18287C0021FDF7DFFF687CD8
:106258000021FDF7DBFF80202073002525712570C4
:106268002573257265603846FDF7BCFE3846FDF794
:1062780085FE002E03D0084845600020F8BD06487A
:106288004038C562F9E70000004000400090004037
:1062980080E100E04C70FF1FC003FF1FF0B587B01E
:1062A8000746FBF78DFF0690082001900420009018
:1062B80005200390464C0B263846FFF7AFFF012F09
:1062C80007D119200190082011260090414C09207F
:1062D8000390414879010D18287CFF2802D1687C79
:1062E800FF282CD010350198FDF762FE0198FDF7C4
:1062F80079FE28780221FEF73FF868780221FEF738
:106308003BF828780099FDF78FFF68780399FDF727
:106318008BFF002020730698696800114A088018CE
:10632800FBF728FE014600202061802020730A0A1E
:1063380022712170E97A002904D01B2103E006208C
:1063480007B0F0BD03212173297A002900D08721E5
:106358002172012161602A7A002A02D06268024310
:106368006260AA7A002A03D0626802231A43626034
:10637800002F12D01A4B194A5A60FF22002E11DB47
:10638800B408184BA400E4182368B507ED0EAA401A
:106398009343A8400343236013E0114B124A403B48
:1063A800DA62EAE733071B0F083B9C080F4BA4008F
:1063B800E418E369B507ED0EAA409343A8400343E8
:1063C800E361002E02DB0A48B14001600020B7E714
:1063D80000400040009000404C70FF1F0723FF1F43
:1063E800C003FF1F00E400E03B23FF1F00ED00E0B7
:1063F80000E100E010B50020FFF750FF10BD10B518
:106408000120FFF74BFF10BDF8B5614C6068803084
:10641800806880F30888FBF76DFE5E485E49006877
:106428000225884206D00020FBF7E0FD68070169D5
:10643800A943016100F0D6F858480078FBF7B4FE8C
:10644800574E0020F061F561564D75610120FBF74C
:10645800DDFC0320F061FBF7C3FD0746FBF7E8FC12
:106468000646FBF7BDFD50490860FFF76FFC4F4833
:106478000068874201D9381A01E0381A401E4C4991
:10648800884200D9084061688A8DD20709D0494AF4
:10649800030C126880B2534350431B02000A1818B9
:1064A8000BE0C2018300D21A4300D21AC3001818A5
:1064B800921C80309208400A1018E061FF313E4873
:1064C80001314968006809183C480068081A4119F0
:1064D8008B083B488A073B4903600D68920F5219A5
:1064E8000A60042A04D95B1C9207920F03600A60B1
:1064F800E169354FC8183946FBF73CFD0246334879
:10650800334D0368D31803602A688A182A60BA4290
:1065180006D95B1C036039461046FBF72BFD296042
:10652800FBF754FE2B480078002810D0FBF780FCBE
:10653800294AE169801B12680B18934202D2511A4A
:10654800091A01E07D21C9001548FBF745FE234DD6
:10655800287A002811D0FBF76BFC811BE3691048EF
:10656800EA685C183C30A24202D9D21A511A00E0FB
:106578001B49FBF731FE00202872FBF733FE02208F
:10658800FBF774FC0020FBF731FDFBF723FDF8BD9A
:106598002C69FF1F0C0AFF1FB6412103490AFF1F80
:1065A80000100040C4090000100AFF1F340AFF1F32
:1065B800FFFF3F00380AFF1F1C0AFF1F200AFF1FAA
:1065C800240AFF1F280AFF1F710200006008FF1F2E
:1065D8002C0AFF1F1C09FF1FE408FF1F740BFF1F75
:1065E800DC050000F8B5FDF7E3FAFCF785FE0120AD
:1065F800404E00903078404C022810D0FBF7F0FC59
:1066080005463220FBF702FCFDF72EF90F20FBF7B9
:10661800FDFB3078012808D0FDF7D0F91AE037489B
:106628004068006AFBF7F2FB24E033484038C06B4F
:106638004007400F012802D10020FBF761FD606888
:10664800FF270137B84360600220FBF7DFFB606873
:1066580038436060FBF7C4FCA84201D3401B01E04B
:10666800401B401E25491E2288615043244A496820
:106678008018C8612449234808602348234980308A
:10668800C163FF21413141623078FBF739FD204970
:106698002048FBF7A1FD1F481F491430FBF79CFD5C
:1066A8000420FCF7F1FB1420FCF7EEFB1520FCF7A7
:1066B800EBFB1720FCF7E8FBFF20FBF715FD01209B
:1066C800FBF796FDFF20F530FBF798FD5820FBF708
:1066D8001BFC1248FBF798FD0098FBF79BFD072071
:1066E800FBF726FDE0690E490840FF300930E061FC
:1066F800F8BD00004A0AFF1F40F000402C69FF1F48
:10670800720600000180063D0000034034080000C6
:106718007102000014100040FFFF3F0030750000B8
:1067280000FEFEFF040000003B0001080200030019
:106738000400050206020700080009000C000D000D
:1067480016000000CD30FF1F0100000000050540C5
:106758008005054000060540800605400007054005
:106768008007054003000000000000000000000052
:106778000001020307090A0B0E0F10111214171853
:10678800191A1B1F20212200020100050400080716
:10679800000B0A001716001D1C0102010105040167
:1067A8000E0D011110011413011716011A19020216
:1067B80001020B0A020E0D02111002141302171621
:1067C800030504030807030B0A030E0D000D000E52
:1067D800001000110013001401070108010A010B41
:1067E800011C011D02040205020702080219021A0F
:1067F800021C021D03010302031700000506FFFF28
:1068080000C20100010000000000000030313233F6
:106818003435363738394142434445464748494A72
:106828004B4C4D4E4F505152535455565758595A38
:106838000000000030313233343536373839616280
:10684800636465666768696A6B6C6D6E6F70717298
:10685800737475767778797A000000005048592B60
:1068680036325858504C55533035303400000000FB
:106878000004FF1F6069FF1F0C000000E032FF1FCB
:106888006069FF1F0004FF1F00040000681DFF1F50
:106898006069FF1F6069FF1F000D0000F032FF1FD5
:1068A80000000000000000000000002500000000BB
:1068B8000000000000000000000000000000FF0FC2
:1068C800FF0FFFFF070E0F08090DFF000000000073
:1068D80000000000000000000000000000000000B0
:1068E80002000000882108005902E00100000000B1
:1068F80000000000000000003C68FF1F1468FF1F34
:106908000000000000000000040000003B00010837
:106918000000000000000000000008000000000067
:1069280040787D0100000000000000000000000029
:10693800000000000000000001000000000000004E
:10694800000000006468FF1F000000000000000055
:08695800000000000000000037
:040000051FFF184180
:00000001FF
