:020000041FFFDC
:1000000000000000214AFF1F185CFF1F205CFF1F3B
:10001000885DFF1F000000000000000000000000DD
:1000200000000000000000000000000000000000D0
:1000300000000000000000000000000000000000C0
:1000400000000000000000000000000000000000B0
:1000500000000000000000000000000000000000A0
:100060000000000000000000000000000000000090
:100070000000000000000000000000000000000080
:100080000000000000000000000000000000000070
:100090000000000000000000000000000000000060
:1000A0000000000000000000000000000000000050
:1000B0000000000000000000000000000000000040
:1000C0000000000000000000000000000000000030
:1000D0000000000000000000000000000000000020
:1000E0000000000000000000000000000000000010
:1000F0000000000000000000000000000000000000
:1001000000000000000000000000000000000000EF
:1001100000000000000000000000000000000000DF
:1001200000000000000000000000000000000000CF
:1001300000000000000000000000000000000000BF
:1001400000000000000000000000000000000000AF
:10015000000000000000000000000000000000009F
:10016000000000000000000000000000000000008F
:10017000000000000000000000000000000000007F
:10018000000000000000000000000000000000006F
:10019000893DFF1F213EFF1F7152FF1F000000001D
:1001A000000000000000000000000000000000004F
:1001B000000000000000000000000000000000003F
:1001C000000000000000000000000000000000002F
:1001D000000000000000000000000000000000001F
:1001E000000000000000000000000000000000000F
:1001F00000000000000000000000000000000000FF
:1002000000000000000000000000000000000000EE
:1002100000000000000000000000000000000000DE
:1002200000000000000000000000000000000000CE
:1002300000000000000000000000000000000000BE
:1002400000000000000000000000000000000000AE
:10025000000000000000000000000000000000009E
:10026000000000000000000000000000000000008E
:10027000000000000000000000000000000000007E
:10028000000000000000000000000000000000006E
:10029000000000000000000000000000000000005E
:1002A000000000000000000000000000000000004E
:1002B000000000000000000000000000000000003E
:1002C000000000000000000000000000000000002E
:1002D000000000000000000000000000000000001E
:1002E000000000000000000000000000000000000E
:1002F00000000000000000000000000000000000FE
:1003000000000000000000000000000000000000ED
:1003100000000000000000000000000000000000DD
:1003200000000000000000000000000000000000CD
:1003300000000000000000000000000000000000BD
:1003400000000000000000000000000000000000AD
:10035000000000000000000000000000000000009D
:10036000000000000000000000000000000000008D
:100370005918FF1F000000000000000000000000EE
:10038000000000000000000000000000000000006D
:10039000000000000000000000000000000000005D
:1003A0000000000000000000000000009B1EFF1F76
:1003B000000000000000000000000000000000003D
:1003C000000000000000000000000000000000002D
:1003D000000000000000000000000000000000001D
:1003E000000000000000000000000000000000000D
:1003F00000000000000000000000000000000000FD
:0C04000001FF01FF01FF01FF910000005F
:020000041FFFDC
:10183800686AFF1F8918FF1F0448854600F02AF8C8
:1018480000480047ED47FF1FC046C046686AFF1FB3
:1018580009484838694601600430F0C044464D469E
:1018680056465F46F0C030BCF0BCF0C0F0BCF0C0DB
:1018780044380249084700000004FF1F3D2DFF1FA0
:101888000248804702480047FEE70000F92BFF1F87
:101898004118FF1F064C0125064E05E0E36807CCFA
:1018A8002B430C3C98471034B442F7D3FFF7C8FFDA
:1018B800305DFF1F605DFF1F30B58C180278401C3B
:1018C80013071B0F01D10378401C120906D10278B7
:1018D800401C03E005780D70401C491C5B1EF9D1C3
:1018E80001E00B70491C521EFBD1A142E6D3002037
:1018F80030BD000003B40148019001BDD94F01007B
:1019080003B40148019001BD75A9000003B4014862
:10191800019001BDF9A6000003B40148019001BD82
:10192800A1AF000003B40148019001BD9DA90000CA
:1019380003B40148019001BDADAE000003B40148F5
:10194800019001BD456B010003B40148019001BD40
:101958000189000003B40148019001BDC53F0000A2
:1019680003B40148019001BDE94C010003B40148EA
:10197800019001BDC95C010003B40148019001BD9B
:10198800DD3F000003B40148019001BD8944000017
:1019980003B40148019001BD2144000003B401488B
:1019A800019001BD750F000003B40148019001BD0D
:1019B8001907010003B40148019001BDBD0B0100E6
:1019C80003B40148019001BDDD0C010003B40148D6
:1019D800019001BDDD0A010003B40148019001BD79
:1019E8000134010003B40148019001BD093401002C
:1019F80003B40148019001BD0534010003B4014856
:101A0800019001BDF535010003B40148019001BD05
:101A1800F935010003B40148019001BDE91701003F
:101A280003B40148019001BD6137010003B40148C6
:101A3800019001BD01D7000003B40148019001BD28
:101A48006DF6000003B40148019001BD7912010050
:101A580003B40148019001BD4DF9000003B40148E9
:101A6800019001BDC1F7000003B40148019001BD18
:101A7800116E000003B40148019001BD8D82000081
:101A880003B40148019001BD6D0E010003B4014883
:101A9800019001BDE90E010003B40148019001BDA8
:101AA8000D52010003B40148019001BD8B520100A1
:101AB80003B40148019001BD350E000003B401488C
:101AC800019001BDF54E010003B40148019001BD2C
:101AD800434D010003B40148019001BDE1AC000091
:101AE80003B40148019001BDE53A010003B401487F
:101AF800019001BD496D010003B40148019001BD89
:101B08003D71010003B40148019001BDED4A010097
:101B180003B40148019001BDA54F010003B4014879
:101B2800019001BD8552010003B40148019001BD37
:101B3800156B010003B40148019001BD016C01005F
:101B480003B40148019001BDBD5C010003B4014824
:101B5800019001BDD1AE000003B40148019001BD60
:101B6800CD4C010003B40148019001BDB30E000043
:101B780003B40148019001BD810E000003B401487F
:101B8800019001BD21A9000003B40148019001BDE5
:101B9800B54C010003B40148019001BDC56D0100B9
:101BA80003B40148019001BD51B8000003B40148D5
:101BB800019001BD85C1000003B40148019001BD39
:101BC800E9D4000003B40148019001BDE90B01000C
:101BD80003B40148019001BD090E000003B4014897
:101BE800019001BD6D0B010003B40148019001BDD6
:101BF800C115010003B40148019001BDCD0C0100DD
:101C080003B40148019001BD71B0000003B401485C
:101C1800019001BDD9B0000003B40148019001BD95
:101C28005976010003B40148019001BD53B9000081
:101C380003B40148019001BDED6B010003B40148F4
:101C4800019001BDC9A9000003B40148019001BD7C
:101C5800EDA5000003B40148019001BD3D4B010012
:101C680003B40148019001BD154D010003B40148BA
:101C7800019001BD2D11010003B40148019001BD7F
:101C8800F90D010003B40148019001BDA111010043
:101C980003B40148019001BDA512010003B4014835
:101CA800019001BDDD13010003B40148019001BD9D
:101CB800B912010003B40148019001BDC913010024
:101CC80003B40148019001BD0514010003B40148A3
:101CD800019001BD9112010003B40148019001BDBA
:101CE800F113010003B40148019001BDE91001009E
:101CF80003B40148019001BDB110010003B40148CB
:101D0800019001BD8914010003B40148019001BD8F
:101D18006189000003B40148019001BD810E0000F3
:101D280003B40148019001BDD1A5000003B40148E6
:101D3800019001BDD544010003B40148019001BDE3
:101D48002D6C010003B40148019001BD7997000092
:101D580003B40148019001BD6911010003B40148B1
:101D6800019001BD8512010003B40148019001BD35
:101D78008D11010003B40148019001BDE512010075
:101D880070B5514A8AB0012800D1504A43015048E1
:101D980002AC1D18287E00280AD084208058C3B2BF
:101DA800002002E016782654401C9842FADB04E032
:101DB800107D012310786A461072E869002807D060
:101DC8006846017608A807940370E96906A8884759
:101DD8000AB070BDFEB5044642013D483A4D13189D
:101DE800805C191D00282AD0187E002827D0987EEC
:101DF800002824D00878022821D188884A888E684B
:101E0800801A82B2102A01D9102201E0002A02D0D9
:101E1800012C17D01DE00120087000204880888020
:101E2800D869002806D02B4A6D4607CA07C5D96964
:101E380068468847002C03D0192001F0B9FFFEBD81
:101E48000820FAE7214D04E04888431C4B80305CA9
:101E580028701046521E92B20028F5D1FEBD1B48CC
:101E680080680007000F062812D006DC02280AD076
:101E780004280DD10121012082E7072805D00C286C
:101E880006D10221F7E70120A4E710484030C06BD3
:101E980070470D4880680007000F062812D006DC3E
:101EA80002280AD004280DD10121002068E707285C
:101EB80005D00C2806D10221F7E700208AE702485E
:101EC8004030C06B70470000004000400090004068
:101ED8005064FF1F245CFF1F10B50D497620C860B1
:101EE800FFF708FD10BD0446FFF70AFD0949C86958
:101EF80040229043C8612046FFF708FD01F0B6FE76
:101F080004490420C03108600120FFF705FDFEE701
:101F18000020004000F0004010B5FFF7F1FC0A482F
:101F28000468094A41178032116008490160FFF7C7
:101F3800F9FC204610BD10B50446FFF7E1FC024845
:101F48000460FFF7EFFC10BD00E100E01000100096
:101F5800F8B5D449D24A002004464A608300401CA0
:101F6800D450FF28FADD4868CF4A014680318A609C
:101F78006E22C262CD4A1278002A01D07F22C26244
:101F88000A220265CA4A13788363CA4BC36115786B
:101F98001023022D08D01578012D05D01578032DB2
:101FA80002D01578042D00D10362C34D456119256F
:101FB800AD0185613725CD6036272826C7630825FA
:101FC800466405644F6032270F603B27CF63412783
:101FD800CF6439274031E0C132274F6002274F6173
:101FE80042270831E0C11E274F60CE608D6005266C
:101FF8004E6142260E615A2660390E614D613C25BC
:102008008D61AF25ED000560AC4D05631578022D97
:1020180009D01578012D08D01578032D07D015782B
:10202800042D06D007E0152504E0436003E00E25E3
:1020380000E00C254560FF252D358560C560FF252E
:10204800F53505619E4D85647D25ED009D4ECD6776
:10205800C66445629C4D85627325C5650625456540
:102068008565C51D0826F93502272E6047664B276A
:10207800FF0087660927C766944F07674667BE1043
:102088008467C667924F8F4E3E601678022E09D03D
:102098001678012E0AD01678032E0BD01278042A4F
:1020A8000CD00EE01A22CA61212205E01422CA616E
:1020B800182201E01322CB610A6202E00E220B62B1
:1020C800CA617F4A8A627D22D2008A6764224A6294
:1020D8000522CA6202220A63C8228C634A63382135
:1020E80069607C4929647C49A9614B21C900E9617F
:1020F80074497B4A643929627D2109016962EC6669
:102108001E212C67A9667149A965E96589102966A8
:10211800696469677149EA67A9677249FF30813064
:1021280006C00160FF21F531416081606F486E494A
:102138005B4A81606E49803A11616C496D4A803111
:102148008A626D4ACA626D4A82616D4AC2626D4A8C
:10215800026366486C4A403842636C4AC2636C4A00
:10216800CA616C49816361496B48403188616C4937
:102178006A4888605D486B4A803842606A4A4263B0
:102188006A4A0A626A49816058496A48C039C8601F
:10219800FFF7CEFB0120FFF7D1FBF8BDF3B50746EB
:1021A800654881B0C169654A1140FF310931C16193
:1021B800002613E000252C461120FFF7C5FB5E48DA
:1021C800406A8007800F610088402843641CE4B29D
:1021D8000546102CF0D301C7761CF6B20298864249
:1021E800E8D3FEBD10B52F4C607800280AD1042131
:1021F8005348FFF7D3FF524804211030FFF7CEFFB2
:102208000120607010BDF0B500248BB00D46064665
:10221800102902D901200BB0F0BDFFF7E3FF4849B0
:1022280000200A5C401C1419C0B21028F9D3002CF5
:1022380003D0102D03D90B20EDE70E20EBE7414822
:102248003F4C0023006802A91034E25CC75C7A4066
:10225800CA545B1CDBB2102BF7D306AA3848FFF729
:1022680079FB102D00D910252A4606A93046FFF71C
:1022780077FBFFF77BFB216840182060FFF776FBB0
:10228800616840186060FFF771FBA1684018A060A2
:10229800FFF76CFBE1684018E0600020BBE7000036
:1022A8000004FF1FD85DFF1F686AFF1F605DFF1FE6
:1022B8004A0AFF1F3A07000080C3C9019A020000BA
:1022C80050C30000280A00006A180000204E0000D1
:1022D800F009FF1F0040001168100000DC05000035
:1022E80040420F00102700007143FF1F0001FF1F2D
:1022F8004526FF1F854EFF1F7151FF1F5123FF1FEA
:10230800E524FF1F6D23FF1F0933FF1F3132FF1F15
:10231800B95AFF1FDD58FF1FB540FF1FC527FF1F14
:102328000002FF1FFD40FF1FC541FF1F0941FF1F9E
:10233800B940FF1FF527FF1F40F0004000FEFEFFD9
:102348003466FF1FF85DFF1F70B50124A407A3685A
:1023580010252B43A360FFF70FFBA068A843A060DC
:1023680070BD0000FFB5064601208007816881B076
:102378001D46102211438160554F002038603046B9
:10238800D730FFF7FFFA9D20800034468059FF368A
:10239800CA3401360028306822462CD00121FFF7C4
:1023A800F7FA4B4F2078F863641C2046FFF7F6FADB
:1023B80000BA000AE17800020843B863241D2046E9
:1023C800FFF7ECFA00BA000AE178000208437863E4
:1023D800241D2046FFF7E2FA00BA000AE17800025D
:1023E800084338630398029900020843F860039F82
:1023F80000243F1D0EE00021D1E72819401CFFF7FB
:10240800CDFA0102285D0143324820180160241DDD
:10241800A4B23F1F042FF0DA032F04D0022F08D0F4
:10242800012F0CD011E02819FFF7B8FA0102090AA8
:1024380006E0291948780A780102114300E0295D6D
:10244800244820180160241DA4B20021214F02E075
:10245800E0190160241DFF2CFADD1D481E4A426068
:102468000F220261012202604269002AFCD04269FF
:10247800930701D4520708D40120800782681021ED
:102488008A438260002005B0F0BD01600020039AF5
:1024980011E0C11909682954401C80B20B0A2B5459
:1024A800401C0B0C80B22B54401C80B2090E2954DE
:1024B800401C80B2121F002AEBDC3068401C3060E0
:1024C80001208007826810218A4382600120DAE7B0
:1024D8000000044000010440080F0000FFB5054655
:1024E80001208007816881B01E4610221143816057
:1024F800504F002038602846D730FFF743FA9D2018
:1025080080002C464059CA3480350028E86F22469E
:102518002BD00021FFF73CFA464F2078F863641C63
:102528002046FFF73BFA00BA000AE17800020843A8
:10253800B863241D2046FFF731FA00BA000AE17893
:10254800000208437863241D2046FFF727FA00BAE3
:10255800000AE178000208433863039802990002F0
:102568000843F8600024039F0EE00121D2E73019E8
:10257800401CFFF713FA0102305D01432E48201872
:102588000160241DA4B23F1F042FF0DA032F04D0EA
:10259800022F08D0012F0FD014E03019FFF7FEF9F1
:1025A8000102090A09E0311948780978000208434C
:1025B80021496118086003E0315D1F482018016057
:1025C800241DA4B200211C4B02E0E0180160241D68
:1025D800FF2CFADD0F221748120242600F22026117
:1025E800012202604269002AFCD00160039A00209F
:1025F800121D11E0C11809683154401C80B20C0A40
:102608003454401C0C0C80B23454401C80B2090E67
:102618003154401C80B2121F002AEBDCE86F401CCA
:10262800E86701208007826810218A43826005B02C
:10263800F0BD00000000044000010440F8B5FFF7B9
:1026480095F9564908600420FFF7AEF9FFF7B2F98B
:102658000646C00715D05249002008605148007846
:10266800012811D0032813D0042815D0022817D028
:10267800052819D0FFF7A4F94B4F044601281AD0B2
:102688001EE0FFF7A3F9F8BD3046FFF7A5F90EE005
:102698003046FFF7A7F90AE03046FFF7A9F906E048
:1026A8003046FFF7ABF902E03046FFF7ADF940B22C
:1026B8000128E8D04FE0387805280BD0062809D043
:1026C8003A483B4D0078022808D0052806D0022C4D
:1026D8000ED005E0304601F015FF3CE0022C02D098
:1026E800012C11D014E0A87B002805D0022803D0C3
:1026F8003878052804D00BE0304601F01BFF15E0C0
:10270800304601F00BFF11E0012807D0062809D058
:102718003046FFF77FF9022C08D01CE0304601F064
:1027280021FF18E0304601F011FF14E03878012845
:1027380011D170050FD4687BC10701D0252004E0B2
:10274800800701D5262000E02720297D814202D973
:102758003220FFF765F9154C2078042804D00328A7
:102768000ED0072811D014E0FFF760F9002810D028
:10277800FFF762F95820FFF765F90220207008E09A
:102788000C48807CFFF764F903E00B48807BFFF777
:1027980065F90320FFF708F9F8BD00009C09FF1F41
:1027A8009809FF1F9009FF1F1C09FF1F2309FF1F1E
:1027B800A60BFF1FBC0BFF1FD40BFF1F10B5FB2977
:1027C80008D8084B9A4205D81B2903D3FF2349335D
:1027D8009A4201D2302010BD034B19825A82FFF76A
:1027E80043F910BD480800008410FF1F10B5FFF71B
:1027F80041F902490020488010BD0000D85DFF1F44
:10280800C106C90E012088400149086070470000D0
:1028180000E100E0F0B585B0FFF7A8F83C4DE860AE
:10282800FFF7C8F80446C00711D03A4900200860ED
:10283800FFF766F8FFF7C4F8374900280BD00F46B2
:102848000C3F2E4601280BD0022831D051E0FFF76B
:10285800BDF805B0F0BD087800284AD1042145E04C
:102868000878012845D12A4A111DC81E02F0D0FC5B
:10287800F878002813D060050FD502AB01AA03A988
:102888002648FFF7FDF8224B00961B1DDA1E029919
:10289800019802F0D5FC02F0EFF9082126E0600764
:1028A800FBD402AB01AA03A91C48FFF7EFF8EAE73B
:1028B800087802281DD1164A111DC81E02F0A8FC6E
:1028C800F87800281AD060050FD502AB01AA03A931
:1028D8001248FFF7D5F80E4B00961B1DDA1E029919
:1028E800019802F0ADFC02F0C7F91021A878FFF7B3
:1028F800D3F8FFF76BF8FFF715F8AAE76007F4D4E9
:1029080002AB01AA03A90548FFF7C0F8E3E70000F6
:10291800645DFF1F9809FF1F3864FF1F0C62FF1FCB
:10292800FEB5454F4649B8704448086106226946D5
:10293800444800F007FE6946384609781C30C170E3
:102948006946497881706946897841706946C978CD
:102958000170694609794171694649790171002018
:10296800394A01461154401CC0B2FF28FAD33748EF
:102978000224047001254570062282701B22C27051
:10298800FF2606710422427105228271C571047204
:1029980003224272CC238372C1720273AA23437347
:1029A80081739321C173037467214174F721817482
:1029B800DB21C17434210175C421417582758E21D2
:1029C800C1755C2101760B21417683769721C1760A
:1029D8003021017756214177E62181771649024651
:1029E800891D08461F23163002F092F917481B4A22
:1029F8002C300670B968416026218160FF21F531CD
:102A080001821349C18104730C3805702521417076
:102A1800C47010494160532181700F4981600221BF
:102A2800B878FFF73FF80121042001F03FF80420AF
:102A380001F0C6F8FEBD0000645DFF1F1D28FF1FE2
:102A48008003FF1F004000110C63FF1F0C64FF1F71
:102A58001027000055555500D6BE898EC4090000C0
:102A6800F8B5474E474D0C463078AB78C90717D0B4
:102A7800FF2803D01422012118460BE0A86900287A
:102A88000CD000210420A96101F010F8FF22F532D2
:102A98000121A878FFF706F801206CE00121F1E791
:102AA800394FA1073BD5FF2803D01422022118462D
:102AB8002FE06E697D20761C6E61C000A968FEF764
:102AC800F7FFB04216D8002068612869002824D092
:102AD80000210420296100F0E9FF00262B48815DD0
:102AE8002BA000F0E9FB761CF6B21D2EF6D32AA027
:102AF80000F0E2FB224E0120307002203073FEF716
:102B080035FF70615320B87002F054F80221A8789C
:102B1800AA68FEF7C7FF02202DE00121D9E7A00629
:102B280003D502F0BBF8202025E060071AD5002164
:102B3800132000F0BBFF307B022804D01A2806D0EF
:102B480050280BD00CE01A203073332002E05020BC
:102B580030737320B87002F057F801E0FF2030702E
:102B6800042008E0200703D502F0F2F8082002E06C
:102B7800E00602D510206040F8BD0020F8BD000036
:102B88003864FF1F645DFF1F2C64FF1F0C63FF1F69
:102B980020253032782000000A0000000149087022
:102BA800704700008C5DFF1F10B50C4601460F48AA
:102BB8000078814217D1210408D5FEF77FFF00284D
:102BC80001D0FEF781FF0120C0030AE0A00701D56C
:102BD800022006E0600701D5042002E0E00602D5E5
:102BE8001020604010BD002010BD00008C5DFF1F4C
:102BF800024901480860704740787D01D45DFF1F95
:102C0800002805DBC106C90E01208840014908607B
:102C18007047000000E100E08307FF22DB0E9A40C6
:102C28008907090E9940002808DB830809489B009A
:102C38001B18186890430843186070470007000F76
:102C48000838830804489B001B18D8699043084338
:102C5800D861704700E400E000ED00E08307FF2240
:102C6800DB0E9A408907090E9940002808DB830883
:102C780009489B001B181868904308431860704760
:102C88000007000F0838830804489B001B18D86900
:102C980090430843D861704700E400E000ED00E08D
:102CA8008307FF22DB0E9A408907090E9940002806
:102CB80008DB830809489B001B18186890430843E1
:102CC800186070470007000F0838830804489B0005
:102CD8001B18D86990430843D861704700E400E0A6
:102CE80000ED00E002E008C8121F08C1002AFAD16E
:102CF80070477047002001E001C1121F002AFBD174
:102D0800704700000248C069002800D0004770479B
:102D18004003FF1F1CB569460120FEF7DBFE0120BA
:102D280000900348019000F001FB01201CBD000049
:102D3800BB0B0000044629A0FEF7D2FE2DA0616A55
:102D4800FEF7CEFE2FA0A16AFEF7CAFE31A0E16A07
:102D5800FEF7C6FE33A0216BFEF7C2FE35A0616800
:102D6800FEF7BEFE37A0A168FEF7BAFE39A0E168FB
:102D7800FEF7B6FE3BA02169FEF7B2FE3DA06169F1
:102D8800FEF7AEFE3FA0A169FEF7AAFE41A0E169E9
:102D9800FEF7A6FE43A0216AFEF7A2FE45A0616BDE
:102DA800FEF79EFE47A02168FEF79AFE49A0A16B98
:102DB800FEF796FE4BA0E16BFEF792FE4DA0216C4C
:102DC800FEF78EFE4F4841684FA0FEF789FE524835
:102DD8000068002800D08047FEE700005B48617269
:102DE80064206661756C742068616E646C65725DE0
:102DF8000A00000052302020203D2030782530384D
:102E0800780A000052312020203D203078253038C3
:102E1800780A000052322020203D203078253038B2
:102E2800780A000052332020203D203078253038A1
:102E3800780A000052342020203D20307825303890
:102E4800780A000052352020203D2030782530387F
:102E5800780A000052362020203D2030782530386E
:102E6800780A000052372020203D2030782530385D
:102E7800780A000052382020203D2030782530384C
:102E8800780A000052392020203D2030782530383B
:102E9800780A000052313020203D20307825303823
:102EA800780A000052313120203D20307825303812
:102EB800780A000052313220203D20307825303801
:102EC800780A000053502020203D203078253038E3
:102ED800780A00004C522020203D203078253038D8
:102EE800780A000050432020203D203078253038D3
:102EF800780A000050535220203D20307825303881
:102F0800780A000000ED00E049435352203D20308C
:102F180078253038780A0000D05DFF1F10B500F022
:102F2800E3F9FFF7F7FE002802D00248804710BDFA
:102F3800FEE70000E1A20000F0B585B00546029169
:102F4800002927D0154F0024144E803F00230094F9
:102F58000222194605200194FEF7C8FD3069800752
:102F6800FCD420200090411E009101D30846FAE7C6
:102F780038680028FCDA012103A8FEF7BDFD684681
:102F8800007B284007D00520FEF7DEFC0298401E93
:102F98000290DBD1112005B0F0BD000080C80040D0
:102FA8000A4610B50146002001F032F810BD10B5F0
:102FB800FEF7A8FD0120FEF7ABFDFEF7AFFD0020F0
:102FC80010BD0000F8B54E484068C043000603D560
:102FD8003C20FEF7B9FCF8BDFEF7A6FD484D009071
:102FE800803D28680121890408432860E86945492B
:102FF80008402830E8610320FEF7A6FC686AC7038A
:10300800FF0B0320FEF7A0FC686AC403E40B03204F
:10301800FEF79AFC686AC603F60BA74201D320465E
:1030280000E03846B04200D33046A74201D33946C3
:1030380000E02146B14200D23146334ABA18C32AC9
:1030480026D2314BDB439C4222D9304A94421FD2CC
:103058009E421DD996421BD2081A132818D2284816
:1030680042680C218A4342604168FF221202914360
:1030780041601420FEF768FC21488038416AC26923
:10308800C903C90B08239A43C2612148C160F8BD2E
:10309800274634460320FEF757FC19488038406A13
:1030A800C603F60BFEF740FD0099884201D3401A8B
:1030B80001E0401A401E17498842AED310484168C3
:1030C80009040D0E4168FF22120291436A1C120680
:1030D800120C1143416041680C229143091D416063
:1030E8000020FEF727FD642D02D30548002141602A
:1030F800062D00D306250748A840FEF7F4FE8CE706
:10310800C0F0004000FEFEFF91FCFFFF320400000B
:10311800D85DFF1FE40C0000F8B53D4840683C4C02
:103128000006803C8021002806DB60680843606058
:103138000320FEF709FCF8BD364D002068612068C1
:103148000122920410432060334F606880210843B5
:1031580060600320FEF7F8FB6869401C68616068DE
:1031680001210904084360600026E0692B493840C2
:103178004018E0610320FEF7E7FB606AE169C003DD
:10318800C00B08229143E161E9680622514381425C
:1031980001D3091A00E0411A3C2909D2E269012148
:1031A80009048A43E26162688A4362602861F8BD63
:1031B800761CF6B2052ED8D3E169012000048143BC
:1031C800E16161688143616068692E46052807D31B
:1031D800BFF34F8F13491248C860BFF34F8FFEE704
:1031E80060688021884360600320FEF7ADFBE069DA
:1031F80038402830E0610320FEF7A6FB606AC00370
:10320800C00BF060E16908208143E1619DE700009F
:10321800C0F00040D85DFF1F00FEFEFF280001003F
:103228000400FA0500ED00E0F8B504460120FEF7B9
:103238008BFBFEF785FC1849184A0860966A184BFC
:103248001E60184BDF6A184D2D68AF4202D2DB6A48
:10325800EB1A00E00023154D2B603319D362536A33
:103268002924E40323435362114A1278002A0FD019
:10327800104A1378022B07D01378012B06D0127846
:10328800032A06D0C01E02E00F3800E008380860A4
:10329800F8BD401FFBE70000E408FF1F00F00040F6
:1032A800340AFF1F00100040180AFF1F1C0AFF1FE6
:1032B8001C09FF1F4A0AFF1F0FB410B503AA0448D0
:1032C800029901F05BF910BC08BC04B01847000073
:1032D800A92FFF1F38B5034B00240FCB009400F033
:1032E80065FE38BDBC5CFF1F0349002048610349E7
:1032F800086048607047000040F0004040F100401E
:1033080010B5044607484068808DC00705D00648B8
:10331800406AC003C00B01F085FD2046FEF716FC8D
:1033280010BD0000D85DFF1F40F0004070B58AB0A6
:1033380000241E4D049405942878012806D004A979
:103348000120FEF7C7FB002802D000200AB070BD9C
:103358000498009005980190154881680291C0680A
:103368001349039006AA10316846FEF705FB104E74
:1033780010222036314606A8FEF7EEFB002811D0B1
:10338800012028700B4A31466846FEF7F5FA049486
:103398000020694605948200401C8C500428FADB02
:1033A8000120D3E7FF202870CFE70000FC5DFF1F56
:1033B800002900115466FF1F10B50448C16B034A69
:1033C80040321068D06000F0B5FB10BD00800040AE
:1033D8000648006AC00708D004481030C06804488E
:1033E8000168002901D005200847704740100040B7
:1033F800905DFF1F0648406BC00708D00448243082
:10340800C06804480168002901D0062008477047B1
:1034180040100040905DFF1F38B5FEF771FA012299
:103428009207936A08240094002B01D1012090622E
:103438000A480221016000994D1E0095FBD2032124
:1034480001600094641E0094FCD200210160002BEE
:1034580000D19162FEF766FA38BD000000C0004056
:10346800012189070122202804D28B6882409343D6
:103478008B607047402805D24B69203882409343BF
:103488004B6170476028FCD20B6A403882409343F6
:103498000B627047012292070121202804D2936809
:1034A80081400B4393607047402805D25369203808
:1034B80081400B43536170476028FCD2136A40383F
:1034C80081400B4313627047012110B5890701221F
:1034D800202813D20346153B012B07D80A68202061
:1034E80082430A600A6802430A6010BD0B68824082
:1034F80093430B6008681043086010BD402814D23D
:103508000346353B032B07D8CA6810208243CA609C
:10351800CA680243CA6010BDCB6820388240934312
:10352800CB60C8681043C86010BD6028FCD24B6AE5
:103538004224201A824093434B62486A10434862EF
:1035480010BD0000F7B582B00446FEF7E5FC009018
:1035580060031121400B090647188D01AE6A224805
:103568008168E812814209D91F20C004044005D0AF
:103578001E4844620168AA1311430160002E09D154
:10358800FEF7BEF91A490220086068620120A862A5
:10359800FEF7C8F9002003E03A5C03990A54401C7E
:1035A80004998842F8D30027002E08D1FEF7A8F91D
:1035B8000F48076003206862AF62FEF7B3F90A4854
:1035C80081680120C004814208D9002C06D0074830
:1035D80047620268012109048A4302600098FEF7E5
:1035E800AAFC002005B0F0BDC45DFF1F00C8004064
:1035F80000C00040F0B52E4C89B02078012818D0C2
:10360800FEF78AFC2B4D079028698007FCD42027F9
:1036180000970098411E0091FBD2264E803E3068EC
:103628000028FCDA24490120FFF786FC002821D174
:1036380002E0002009B0F0BD0020009003460146DA
:10364800019003229F20FEF751FA032102A8FEF7FA
:1036580053FA28698007FCD400970098411E00910E
:10366800FBD230680028FCDA13490120FFF764FC1C
:10367800002801D01120DDE70798FEF75CFC6A46B8
:10368800917A527A0804120210436A46127A0B4B56
:1036980010436060084611380122052802D81046F8
:1036A800884001E00120C004A06098612270C0E752
:1036B800C45DFF1F80C80040FFFFFF078008FF1F91
:1036C80030B5C21F0A2A01D3062030BD0124074D98
:1036D8009440002905D0002100F0C0F82868204354
:1036E80001E02868A0432860002030BD0038004071
:1036F800054B01228240D868002901D0104300E020
:103708009043D860704700000038004070B5FF282B
:1037180014D08207D30E8408094A5E1DA400A51898
:10372800AC69F21A0126521C9640761E9E40B4439C
:1037380099400C43AC610121FFF7DAFF70BD00002E
:103748000038004010B5114C2078002801D007201F
:1037580010BDFF212D310D48FEF704FA012020701D
:103768000B490020086348630A490862486202213D
:103778001020FFF773FA1020FFF742FA064A0749AC
:103788000D2000F0DFFA002010BD00009064FF1F3C
:103798000080004080F00040B539FF1F2939FF1F25
:1037A80010B5172801D3052010BD0C4B9C6B0122C6
:1037B8008240104620439863586B90435863DC6BF3
:1037C800012907D020469043D863186B02431A6337
:1037D800002010BD10462043F6E70000008000409E
:1037E800054B0122801E82405869002901D01043F0
:1037F80000E09043586170470038004070B50446B7
:1038080014480E460519002902D16878012808D005
:1038180000212046FFF76CFF022C04D0032C02D0B5
:1038280005E0072070BD01212046FFF7D9FF0021E0
:103838002046FFF745FF08490120A0404A68012EAD
:1038480005D082434A6002206870002070BD0243A0
:103858004A60FAE79064FF1F0080004070B542009C
:1038680083180D4A9C18A5786478D65C641B0122DD
:10387800641CA240521EAA40084BA940132806D235
:10388800B000C018836893430B43836070BD5869C8
:1038980090430843586170BD475CFF1F00F000402B
:1038A80007494A68012383401A4201D0096802E0A7
:1038B800034940310969C140C807C00F704700007B
:1038C8000080004070B5154C45002E19767801230C
:1038D800114AB34000290ED0142809D0152807D062
:1038E800162805D0605780008018816819430DE0BC
:1038F800506918430EE014280AD0152808D0162855
:1039080006D060578000801881689943816070BD37
:1039180050699843506170BD00F000408C5CFF1FF7
:1039280070B5104D00242E197078012803D1E0B22B
:103938000121FFF7C7FF707802280ED1E0B2FFF728
:10394800AFFF01214140E0B200F074F8E0B2FFF7A8
:10395800A7FF0C21614349194876641C172CE2DB48
:1039680070BD00009064FF1F10B50F4C0D4A012375
:10397800245C142809D2106A002902D0A3401843F5
:1039880001E0A3409843106210BD506A002903D09B
:10399800203CA340184302E0203CA34098435062D7
:1039A80010BD000080F00040305CFF1F70B50221A0
:1039B8001020FFF753F91020FFF722F900241C4DBF
:1039C80007E0022C01D0032C03D1E0B20121FFF75C
:1039D80007FF2819407801280BD1E0B2FFF760FFF4
:1039E800E2B20146104600F061F8E0B20021FFF7AC
:1039F80069FF0C2060434019007E002814D0E0B213
:103A080000F066F8E6B23046FFF74AFF002801D01A
:103A1800012100E000210C2272435219527E824299
:103A280002D0304600F0BAF8641C172CC9DB70BD10
:103A38009064FF1FF8B542008318184AD55C9A189D
:103A48009278521ED4B2164A12185278022A21D1FC
:103A5800144EB76B0122134683401F43B763124BC2
:103A680013280ED2002906D0A900C9188B68A240D5
:103A780093438B600BE0A900C9188B68A2401343DD
:103A8800F7E70029596906D0A240914359610121FD
:103A9800FFF76AFFF8BDA2401143F7E7475CFF1F35
:103AA8009064FF1F0080004000F00040012200B534
:103AB800064B82400029196801D0114300E0914368
:103AC80019600121FFF79AFE00BD00000080004048
:103AD80070B50446164821460C2251430D186A68F1
:103AE8000026002A02D1AA68002A1CD0104B022204
:103AF800183B1B195A700122425400212046FFF737
:103B08007DFE6868002808D0A86800280DD02046E7
:103B1800FFF7C6FE002808D0002631462046FFF7EA
:103B28003FFE002070BD122070BD0126F5E70000A1
:103B3800A864FF1FF3B5184E002481B0074601257D
:103B48002846A040384223D00299084000D00120DE
:103B58000090E0B2009900F021F80C206043801931
:103B68004168806800290ED0002807D000980028F6
:103B780002D00021E0B203E00121FBE7E0B201211D
:103B8800FFF70EFE04E0002802D0E0B20021F7E7BC
:103B9800641C172CD4DBFEBDA864FF1F074A0C2346
:103BA80043439B185A68002A01D0012904D09A6817
:103BB800002A02D0002900D110477047A864FF1FCF
:103BC800074900B509184A78022A06D001224A7026
:103BD8001146FFF713FE002000BD062000BD0000BF
:103BE8009064FF1F30B587B0182217496846FDF763
:103BF800BFFF00246D46600041194978285CFFF733
:103C08002DFE641CE4B20B2CF5D310484169C200A8
:103C18009143052212048918416141690122520623
:103C28001143416141690322520591430122520522
:103C380089184161072000F00DF800F021F800F024
:103C480007F807B030BD0000005CFF1F00F000401F
:103C58000F2070470449420903D00020C86006209D
:103C68007047C86000207047945DFF1F0348C16912
:103C78001F2252049143C1610020704700F00040A8
:103C88000548C1691F2252049143044A928952048B
:103C98001143C1610020704700F00040945DFF1F90
:103CA80010B578210C48FDF75DFF0C480078012815
:103CB80003D0022804D0042804D1FDF75FFF01E0F7
:103CC800FDF736FE06480078C00702D006490548C9
:103CD8000863002010BD0000BC65FF1F945DFF1F36
:103CE80000200040E11EFF1FC000FF1F70B5054601
:103CF800124812240078012815D0042813D0FDF7A3
:103D0800FFFD0F4800210C224A43825C002A11D093
:103D1800AA420CD10C235943012208184270FDF71E
:103D28002DFF002406E0FDF729FF002070BD491C87
:103D38000A29E8DBFDF7F6FD204670BD945DFF1FFC
:103D4800BC65FF1F30B50D4C00230C255D43655D38
:103D5800854201D1072030BD002D04D05B1C0A2B01
:103D6800F3DB032030BD0C256B431B19F9D000246D
:103D78005C7018709A602046596030BDBC65FF1FA2
:103D880070B5FFF77DFF094D002420460C214843FC
:103D9800295C002907D040194068002800D08047D6
:103DA800641C0A2CF1DB002070BD0000BC65FF1FFD
:103DB80070B50546164800240078012811D004285B
:103DC8000FD0FDF79DFD0021124A0B4608460C2630
:103DD8007043165C002E0FD0AE4205D18018437098
:103DE80007E0FDF7CBFE0DE080184078002800D0F2
:103DF800641C491C0A29E9DB002C05D0FDF7BEFE2E
:103E0800FDF790FD002070BDFDF792FDF8E700007A
:103E1800945DFF1FBC65FF1F70B519480121890714
:103E280042688A60826801231A434A6115490A6B0D
:103E38000261496B416100210420FEF731FF012135
:103E48001420FEF72DFF01211520FEF729FF01217F
:103E58001720FEF725FF0C4D002420460C2148436F
:103E6800295C002909D040198068002800D08047C3
:103E7800641C0A2CF1DB002070BD122070BD00000C
:103E8800945DFF1F80F00040BC65FF1F10B5164908
:103E98000A2008701549012008701549002008708B
:103EA8001448C16B490949010931C163C16B6022DA
:103EB80091432031C16300F021F800210420FEF76E
:103EC800ABFE01211420FEF7A7FE01211520FEF705
:103ED800A3FE01211720FEF79FFE01218902064853
:103EE800FDF752FE10BD0000480AFF1F490AFF1FD8
:103EF800680AFF1F80F000400C5EFF1F10B5FFF737
:103F08000DF810BD70B540251C4C012802D00028C2
:103F180011D027E06069052140014009C906401811
:103F28006061E0691649084016494018E061E06997
:103F38002843E06116E000210A20FFF78FFC0021EA
:103F48000B20FFF78BFCE069032109020843E061BD
:103F5800E069A843E06160690B2140014009090755
:103F68004018606160690121090708436061A06920
:103F7800032149048843A06170BD000000F000409F
:103F88007F00FEFF80FD010010B5064AD1609060F9
:103F980000F04EF8044A00211320FFF7D3FE00205A
:103FA80010BD0000B45DFF1F3940FF1FFFB581B091
:103FB8000A9F144D7E01A85D002802D0112005B08B
:103FC800F0BD6846407B002801D00520F7E774194A
:103FD80020212046FDF7C6FD01A80FC810340FC4E4
:103FE800384601F0C1FB0120A855002F06D0064A2B
:103FF80000211920FFF7A6FE0020E0E70021034A70
:104008000820F7E75064FF1FD358FF1FC958FF1F48
:1040180010B5064C43011B199B7E002B02D001F002
:1040280005FB10BD01F0CCFA10BD00005064FF1F65
:10403800F8B5002518480095426800782B460121FC
:10404800FDF7A8FD16491548886301201549800425
:104058000860BFF34F8FBFF36F8F13480168FF22CB
:10406800120402269143B2051143016064200090B6
:104078004120FFF70FFA4020FFF70CFA7407666239
:104088000098411E0091FBD203206062FFF7C4F93B
:10409800A562FFF7AFFAF8BDBC5DFF1F050001FF81
:1040A80000C8004080E100E010E400E07047000034
:1040B80070B50D460446282910D1A420005BE1887C
:1040C800401A0B4980B2884208D321466A3105223A
:1040D8000E46481FFDF740FD002804D0294620461B
:1040E800FDF75EFD70BD31462046FDF75FFD70BDF2
:1040F800FF7F000010B5002901D0FDF75DFD10BD60
:1041080070B5264D264E2868002804D0FDF75AFDC4
:104118002978C84004E0FDF755FD3168FDF758FDE2
:1041280004462868002804D0FDF758FD2978C840BF
:1041380004E0FDF753FD3168FDF74AFD1949A12256
:10414800897892005143184A184B126889180D78DB
:10415800174A002D17D0FF31FF3102314C6C15483A
:10416800641C4C6400689968884201D3401A02E0D4
:10417800114B591A0818D2381060012C02D1FF309F
:10418800F530106070BDFF31FF31002502314D64FC
:104198005968201AC9684018F3E700001C08FF1F77
:1041A8001808FF1F300DFF1F3409FF1FD85DFF1FC0
:1041B800A009FF1F9C09FF1FFFFF3F00F3B506463C
:1041C8006548A121807889004843644983B009681B
:1041D800A12244182046FF3021305F490090897899
:1041E800920051435D4A407D126800258F18FF37C1
:1041F800813732281DD022281BD0F86A016800298F
:1042080009D08188001D090A891CFDF7EDFCF96AAF
:10421800002001250860FDF7EDFC04992746FF37CB
:104228000880C137387C002821D0B0421FDC00202C
:1042380014E04B49012008600020F96A0125086054
:10424800E9E780000019FF308130006B8188001D8C
:10425800090A891CFDF7C8FC0198401C0190397CAB
:104268008142EEDCC8B2361A4519002038743D493F
:104278000020C870FF20AD3000590168002903D024
:104288000079C04380071ED00098C07D00281AD04E
:104298000098807D002816D1387CB04213DAFF20C0
:1042A8004930005B010A2046FF304930891CFDF780
:1042B8009BFC00990020C875009801218175294848
:1042C8006D1CC170761E387C002802D0284605B0C7
:1042D800F0BD2046FDF794FC0090002821DD002E5B
:1042E8001FDD002718E02046FDF790FC800000192C
:1042F800FF300130C06E8188001D090A891CFDF756
:1043080073FC2046FDF788FCE01DFF30FA30016A97
:104318006D1C491C7F1C01620098874201DAB74274
:10432800E1DB092080012018817E002911D0017D60
:1043380000290ED0428E002A0BD0817F914202D2F2
:10434800491C817705E0002181771A212046FDF775
:1043580069FCA8B2BBE70000300DFF1F3409FF1F3E
:1043680000140340E010FF1F70B54E480068012894
:1043780003D14D48816D491C8165FDF7F7FA4B4D16
:104388004B49A8604B4841610124C4600460287807
:10439800002806D0062248494848FDF7E1FA0020DF
:1043A80028704749486B474AC0B21278002A17D18B
:1043B800454A0023D356002B444BD35606DB1B0437
:1043C800002555572A029A18121808E0FF331B04D3
:1043D800002555572A029A183D4B1218D2184A63DD
:1043E800022801D2022002E0502800D95020394A80
:1043F8001278022A11D0384A1578384B1E78B542FF
:104408000FD915781B78EB1A801E4010434310789B
:104418004001C01A1030401104E0314A1578314B80
:10442800ECE710784A69120A120210434861FDF756
:10443800C7FA0546052801D0042D1ED12A48007860
:10444800002806D029480078002802D00020FDF76F
:10445800EFFB2748A121807889004843254909684E
:104468004018FF30FF300230007B042801D00328B9
:1044780003D1FF205F30FDF7E5FA022D0ED11E486B
:104488000078012807D0032805D0022803D01B484C
:104498000078022802D16C20FDF7D4FA1848C482AB
:1044A80070BD00009809FF1FFC0FFF1FD85DFF1F9C
:1044B800FF3F000000100340D50BFF1F7211FF1FC4
:1044C800800003408C09FF1F680AFF1F00000000DE
:1044D800FFFE0000490AFF1F440AFF1F450AFF1F8D
:1044E800460AFF1F470AFF1FF908FF1F2209FF1F7F
:1044F800300DFF1F3409FF1F1C09FF1F2309FF1F71
:10450800BC0BFF1F10B504490968002901D0884772
:1045180010BDFDF77FFA10BD8002FF1F10B50449DA
:104528008968002901D0884710BDFDF773FA10BDCE
:104538008002FF1F10B504494968002901D0884747
:1045480010BDFDF767FA10BD8002FF1F10B50449C2
:104558000969002901D0884710BDFDF75BFA10BD35
:104568008002FF1F10B50449C968002901D0884797
:1045780010BDFDF74FFA10BD8002FF1FF7B50646C4
:1045880086B0002004900390079810E125290AD0EE
:104598000499002901D0039802E0049000200390B8
:1045A800401C039000E10398002805D081B20498CC
:1045B800B04700200490039000250422082310210E
:1045C8000798401C079000782B2819D004DC202875
:1045D80018D0232804D117E02D280FD0302815D063
:1045E800079A00271078FF430346303B3C46092BC7
:1045F8000FD807A800F0D4FF044615E00D43DFE705
:104608001543DDE71D43DBE7202000E001200543DB
:10461800D6E72A2808D1521C0898079210C8089093
:10462800002C01DA64420D43079938460A782E2A8D
:1046380014D1491C079108780246303A092A03D850
:1046480007A800F0ADFF06E02A2806D1491C07910B
:10465800089901C90891002800DA0020079A39460C
:104668001778682F03D06C2F01D04C2F02D1521C21
:1046780039460792079B0A221B786E2B2CD00CDC3C
:10468800632B2AD004DC412B26D0582B11D19BE078
:10469800642B01D0692B0CD19AE0732B3DD004DC3C
:1046A8006F2B77D0702B04D164E0752B73D0782BE7
:1046B8006FD0252B09D0252069460872012102A850
:1046C800B04707980178002975D00798694600789F
:1046D8000872012102A8B04766E0E80609D420253F
:1046E800641E002C05DD68460572012102A8B0474A
:1046F800F6E708986A4601781172001D08900121B2
:1047080002A8B047202504E068460572012102A8E6
:10471800B047641E002CF7DC46E0089A02CA0892EB
:104728000091002901D12DA100910A4600E0491C01
:104738000B78002B01D0401EF9D28F1AE8060AD454
:1047480020252046641EB84205DD68460572012111
:1047580002A8B047F5E7B9B20098B047202504E0B1
:1047680068460572012102A8B0472046641EB84277
:10477800F6DC19E0611C02D1082401210D430090E8
:104788000898019502C823461022089009E001E024
:1047980001E01BE00822089B02CB089301950090DA
:1047A8002346304600F084F80798401C07900178AB
:1047B800002901D0EAE60EE00398002802D081B271
:1047C8000498B04709B0F0BD402215431022E2E733
:1047D80002231D43DFE7401E0790E5E73C4E554C9A
:1047E8004C3E00007CB5194C02202070184D012069
:1047F8002870FDF723FAFDF7ABFBFFF747FBFFF740
:10480800F1F92078FDF720FA2878FFF77BFBFFF70E
:1048180047FA104903C9FFF7B7FBFEF75BFDFEF740
:1048280091FF0D490DA0FEF747FD1249097812487E
:1048380000780191009023782A781048017810A018
:10484800FEF73AFDFEF7B3FB00207CBD4A0AFF1FC6
:10485800605DFF1FF85BFF1F0101030053444B20FD
:1048680056657273696F6E20494420253038782068
:104878000A000000450AFF1F440AFF1F4B0AFF1FDA
:104888007266436C6B202564207263436C6B202531
:104898006420737973436C6B2025642074704361C2
:1048A800705B2530327820253032785D0A000000B0
:1048B800FFB50746574897B0219D006815901E46DA
:1048C8000A46680602D5534840681590E80601D59F
:1048D8006D086D001998801E232870D2E80701D052
:1048E800302100E0202110A8017300210172A807DF
:1048F80010D5002A04DA2D2010A90872524208E0C7
:10490800680701D52B2002E0280703D5202010A92D
:1049180008725E1EA80608D51998102802D0082823
:1049280002D002E0B61E00E0761E0024002A14D051
:1049380010461999FDF74CF9159A525C01A90A55C8
:10494800641C0200F4D12098844200DD2094209851
:10495800361A112005420BD00EE030206946087146
:104968000124F0E720206946087001216846B8470D
:104978003046761E0028F5DC10A8007A002802D000
:10498800012112A8B847A80616D51998082802D0F8
:10499800102802D010E0302009E030206946087065
:1049A80001216846B8471B480068203040786946AE
:1049B800087001216846B847E80604D507E027E0F3
:1049C800012113A8B8473046761E0028F8DC3025A8
:1049D8002099481E2090A1420BDD684605700121F0
:1049E800B847F5E7285D6946087001216846B84769
:1049F80000E001AD2046641E0028F3DC2024304688
:104A0800761E002804DD684604700121B847F6E7E1
:104A18001BB0F0BDAC5DFF1F10B500240420FDF7EE
:104A280019F90749042208600021FDF719F9204601
:104A38000124FDF775FF2046FEF7B0F810BD000011
:104A4800885DFF1F30B51A4800681B481949416145
:104A58000121C16001601949486BC0B2022801D226
:104A6800022002E0502800D95020154A1278022A64
:104A780011D0144A1478144B1D78AC4215D9147807
:104A88001B78E31A801E4010434310784001C01A77
:104A98001030401103E00D4A14780D4BECE74A69D9
:104AA800120A12021043486130BD1078F7E700007F
:104AB8009809FF1FFF3F00000010034080000340DB
:104AC8002C64FF1F440AFF1F450AFF1F460AFF1FE9
:104AD800470AFF1F37B56846007800F073FA684642
:104AE800C078104C002816D00146FDF7BFF8A06822
:104AF8000199000E00060843A0600220FDF7BCF8EB
:104B0800A068694600028978000A09060843A0607F
:104B18000298E0603EBD68464078FDF7B3F8002093
:104B2800ECE700004000034010B5FCF78BFFFDF7F1
:104B3800AFF83C2208215A20FDF7B0F810BD10B597
:104B4800FDF7B2F83C2208215A20FDF7A7F810BD5E
:104B580010B5FCF777FFFDF7ADF83C2208215A2085
:104B6800FDF79CF810BD000070B500242120FCF76B
:104B780069FF064D06E00320FCF7E6FE641CE4B27C
:104B88000A2C02D828680028F5D170BD9809FF1FA3
:104B980010B501210A20FDF793F83C20FDF796F89F
:104BA8004220FDF799F8342208213920FDF776F8DC
:104BB80010BD000010B501211420FEF777FFFFF7A4
:104BC800D3FFFCF79DFE0E4807C8FFF783FFFFF7EA
:104BD800DFFF0B4C0C34207B00F076F8E089FFF700
:104BE800A3FFFDF77FF8FDF783F8FF20FDF720F816
:104BF800FFF728FF034901200860FCF793FE10BD6A
:104C08002C64FF1F9809FF1F10B501211320FEF720
:104C18004DFFFFF7A9FFFCF773FE144807C8FFF71D
:104C280059FFFFF7B5FF114C0C34207B00F04CF80E
:104C38002078022815D0FFF782FFFDF753F8FDF71B
:104C480057F8FF20FCF7F4FF09484178891CFCF766
:104C5800CBFFFFF7F7FE074901200860FCF762FE6B
:104C680010BD208AFFF774FFE7E700002C64FF1FE0
:104C78000C63FF1F9809FF1F10B50648007803282A
:104C880006D0054820218078FCF706FF002010BDDB
:104C9800012010BD3864FF1F645DFF1F0949C878F3
:104CA80000280DD1087900280AD14879002807D1B1
:104CB800CA1DF9320B5C1354401CC0B21D28F9D32D
:104CC800704700000C62FF1F10B50D490023CB563A
:104CD8000C4A002B0C4BCB5606DB1B0400240C574C
:104CE80021025918081808E0FF331B0400240C5748
:104CF80021025918081805494018506310BD0000D2
:104D0800680AFF1F8000034000000000FFFE00004B
:104D180070B5164604461D4602220C48FCF720FED4
:104D280021460A4C0622A01CFCF71AFE20462A46F9
:104D380031460830FCF714FE61780020891C01E038
:104D4800401CC0B28142FBD870BD00000C63FF1F3D
:104D580010B500211420FEF7A9FEFCF707FE124942
:104D68004A69824201D8821A02E0104B9A1A121834
:104D7800CB899A4202D2FFF71DFF10BD48610A4A4B
:104D8800087B0C3A022806D01A2808D05028F4D1FB
:104D9800FF20087010BD1A200873332002E050204D
:104DA800087373209070E6E73864FF1FFFFF3F0029
:104DB800F8B51B484168802211434160184D0A2606
:104DC8000027803DE86940084000E8610620FCF7BC
:104DD800BBFD134CC03CA06980210843A061E86971
:104DE80001210843E86102E00820FCF7ADFDA86A4C
:104DF800800504D43046761EF6B20028F4D1002E81
:104E080007D0286A7E21C70BA0690F408843384322
:104E1800A061A16980208143A1613806400EF8BDD8
:104E2800C0F00040124B10B512497E2298420AD9B0
:104E38008B695B069B0E06D088698B694006800EDD
:104E48009343401E0CE00C4B98420FD288691040E7
:104E58007E280BD288698B694006800E9343401CDC
:104E6800400003438B610320FCF76EFD10BD00007A
:104E78000B20000000F00040FD1C000010B50849A0
:104E8800064808600749086000F0D6FA064A01217A
:104E9800582000F041FAFFF78BFF10BD841E000078
:104EA800140AFF1F380AFF1F600AFF1F30B5384871
:104EB800016801229204114301604168032212062D
:104EC8009143344A13781B06194341604368032110
:104ED80089058B4330490C78A40523434360436814
:104EE8006024234343601378022B08D01378012BE6
:104EF80005D00B78022B02D00B78012B04D1436824
:104F0800FF240134234343601278032A02D00A782D
:104F1800032A03D1426880231A434260426803236C
:104F28009B041A4342600B780122D2051B48002BD0
:104F380003D11B4B1B78032B19D0C3689343C36061
:104F4800164A184B4032D360FF2581351561164C3F
:104F58005461164B9361114B80335D609C60144C17
:104F6800DC60144B03600978002903D006E0C368AD
:104F78001343E4E701680123194301600E490978E6
:104F88000E4BC906C90BC91881630D48D06130BDE5
:104F980040F000404C0AFF1F4B0AFF1F80000340EF
:104FA8004A0AFF1FC00B00207A3E6A0700008904E6
:104FB80000808904CC240000480AFF1F250800004F
:104FC8002FFCA601F8B505004A484B4B4B4C4C4A00
:104FD8004C4934D0022D32D08615571006628669A6
:104FE8009E43B31883612078002833D00F61464868
:104FF8000863464800780122120380184861414E30
:10500800404C434B803E403C002D27D06521414A0F
:10501800C9024148012D2ED0022D31D0032D5AD07E
:10502800042D58D03D49691831603D49A16023607D
:10503800E06002210846FCF719FE3A482BE080267A
:10504800066286699E430123DB04F6188661207890
:10505800002801D00A61CAE70B61C8E7324830600E
:105068000020A06023603148E06003210846FCF777
:10507800FDFD2F480FE02F4B3360A2602160D7E77A
:105088002C4B5B1C3360A2602160E0600221084663
:10509800FCF7ECFD28482061F068FF210843F06028
:1050A800264860612648A0612648E06126482062BB
:1050B800264860622648A0622648E06226482063A7
:1050C80026486063E020012D0DD02168022D0ED006
:1050D80081432160F8BD224BEB183360214B73608C
:1050E8002160A260A4E7216881432031F1E7814370
:1050F8004031EEE7C000034000001C004B0AFF1FD0
:10510800000004008000034003000001440AFF1F60
:1051180000280B0055555537D6BE898E00800642AB
:1051280055555500805508220080067807EE7536DB
:10513800806608220180063D80450822A49C5C54B4
:105148004C44434241524C46403A342E28007F5545
:105158004F49433D37312B4C46403A342E28221CC8
:1051680000800698545A9850F0B5224B214D214999
:105178008026204A0727BF04403BC03DE0248039F1
:1051880002281662966914D0BE430127BF04F61997
:105198009661194A1278002A1ED07A101A610128DD
:1051A8001ED0164A80182860154808610868A04370
:1051B80014E00120BE43C004361896610E4A1278E6
:1051C800002A00D0401018610E4828600E48086177
:1051D8000868A043403001E01F61E0E70860F0BDC7
:1051E8000848401E2860094808610868A043203024
:1051F800F4E70000C00003404B0AFF1F0080069838
:10520800805508220280063D8045082280660822D3
:1052180070B50A4B5C6A9D6AA30501269B0D760250
:10522800B34201D99B1B02E0FF33FF3302330B80EB
:10523800290E0170200E107070BD0000C0000340E0
:1052480070B584050126A40D7602049DB44201D9E7
:10525800A41B02E0FF34FF340234090E1C801170D5
:10526800000E287070BD000010B50A4900200870B3
:10527800094902200870FFF719FE0848007800F075
:1052880011F8074C2078FFF79DFE2078FCF736FDD3
:1052980010BD00004B0AFF1F4C0AFF1F480AFF1FE2
:1052A800490AFF1FF0B51A4A03230725D6001949F2
:1052B8009B026024ED0157693F281AD0B7430526A1
:1052C8003604BE195661CA689A43CB14D218CA600C
:1052D800CA69A2432032CA61CA69AA43CA610D4990
:1052E80040398A6BC0061205120DC00B02438A634F
:1052F800F0BDB7430126B604BE195661CA689A4381
:10530800CA60CA69A243CA61CA69AA438032E5E78A
:1053180000F00040C0000340F8B53A4B5D6A9C6A53
:1053280000265E629E62384B58630E2018629E15F6
:105338005E62402098625020D862FF202B3058626D
:1053480031484030012915D0802101622F49FF23BF
:105358002D48A533403083602D4B43602A4B2D48A0
:10536800403B18617D20C0000090471E009705D380
:105378003846FAE7066225498331E8E72648890571
:105388000F18214840388763234B5B1CC918816379
:1053980022480090224800780300FCF7B5FC050479
:1053A8000408060D08001F4800E01F4800901F4829
:1053B80010601548403005E01D48F7E7C16AC94349
:1053C800890F14D000994B1E0093F7D20E4940392B
:1053D8008F630D4900228A62CA6282604E620A6245
:1053E800FF2041304862074845628462F8BDC16ABF
:1053F800104B1940116011680122090C1204891818
:105408004160E3E70010034080000340CA02000047
:105418002020000080560C20646521001027000021
:105428004A0AFF1F204E00003075000000002020AF
:10543800409C0000FFFF3F3F00B50021022000F024
:1054480021F80C49801C08700021422000F01AF84D
:105458000949801C08700121022000F013F807494F
:10546800801C08700121422000F00CF80449801CBF
:10547800087000BD440AFF1F450AFF1F460AFF1FA8
:10548800470AFF1FF8B53B4C394A2260394D394A63
:1054980007239B04803540320129A9690ED099431E
:1054A80001239B04C918A9613349D16033490B789A
:1054B8000121C905324E002B07D009E09943012389
:1054C800DB04C918A9612F49EFE73378032B14D0FF
:1054D800D3688B43D36050630E2010620027576255
:1054E800FF20153050622848009030780300FCF700
:1054F8000BFC0507070D090B0D00D3680B43E9E703
:10550800224802E0224800E0224800900098431E0A
:105518000093FBD2686B57620002000E17621E4BA5
:10552800D360FF23413353626523DB0223601B4DA5
:105538002F78E023012F0AD02D78022D25680AD074
:105548009D4325600D4B1B78002B07D009E025688B
:105558009D432035F5E79D434035F2E73378032B2B
:1055680003D0D3688B43D360F8BDD3680B43FAE705
:1055780010000300400003407F4073004B0AFF1FE8
:105588004A0AFF1F7F40530010270000204E0000EA
:1055980030750000409C000040401000490AFF1F81
:1055A8000146002006E0531C0B600A23127858437A
:1055B800303810180A681378303B092BF3D9704734
:1055C80078B5174B012800D1164B002416480094D3
:1055D80004E0009D6E1C009685421ADCDD6FED0725
:1055E800F7D10AE0009D6E1C0096854211DC1D7DF6
:1055F800AD06F7D50D781D70491C1546521E92B29E
:10560800002D0094F3D106E000994A1C00928142D3
:1056180001DD0D2078BD197D4906F5D5002078BD3E
:105628000040004000900040A0860100F7B5074602
:105638002A49400144182A4E241D1546002A10D034
:10564800019800280DD02178002908D0E088A842C8
:1056580005D3012916D0A1884919814203D903200D
:10566800FEBD0620FEBDFCF74BF9A188A0682A46BE
:1056780040180199FCF74EFBA0884019A080FCF760
:1056880051F927E0A0680199FCF744FBA5800020A8
:10569800608002202070A168102D00D91025012FEC
:1056A80000D1104E726802208243726004E0608864
:1056B800421C6280085C307028466D1EADB200281E
:1056C800F5D1002F08D01920FEF710FB70680221D1
:1056D800084370600020FEBD0820F5E75064FF1FF6
:1056E8000040004000900040F8B5064608270B200F
:1056F800184C012E02D11927174C11200121814085
:1057080016480160BFF34F8FBFF36F8F14487101C4
:105718000D18287C0021FDF7EBFF687C0021FDF7C0
:10572800E7FF8020207300252571257025732572D9
:1057380065603846FDF7C8FE3846FDF791FE002E35
:1057480003D0084845600020F8BD06484038C562C7
:10575800F9E70000004000400090004080E100E0D0
:105768005064FF1FC003FF1FF0B587B00746FCF762
:10577800D7FA069008200190042000900520039095
:10578800464C0B263846FFF7AFFF012F07D11920EB
:105798000190082011260090414C092003904148AF
:1057A80079010D18287CFF2802D1687CFF282CD0AD
:1057B80010350198FDF76EFE0198FDF785FE2878F3
:1057C8000221FEF74BF868780221FEF747F828789F
:1057D8000099FDF79BFF68780399FDF797FF002074
:1057E80020730698696800114A088018FCF7F0F9D8
:1057F800014600202061802020730A0A227121704E
:10580800E97A002904D01B2103E0062007B0F0BD87
:1058180003212173297A002900D0872121720121CF
:1058280061602A7A002A02D0626802436260AA7A1A
:10583800002A03D0626802231A436260002F12D044
:105848001A4B194A5A60FF22002E11DBB408184B74
:10585800A400E4182368B507ED0EAA409343A840B6
:105868000343236013E0114B124A403BDA62EAE734
:1058780033071B0F083B9C080F4BA400E418E3698F
:10588800B507ED0EAA409343A8400343E361002EF9
:1058980002DB0A48B14001600020B7E70040004041
:1058A800009000405064FF1F671EFF1FC003FF1FCA
:1058B80000E400E09B1EFF1F00ED00E000E100E0B7
:1058C80010B50020FFF750FF10BD10B50120FFF7FD
:1058D8004BFF10BDF8B5614C60688030806880F37C
:1058E8000888FCF7ABF95E485E49006802258842E3
:1058F80006D00020FCF71EF968070169A943016179
:1059080000F0D6F858480078FCF7F8F9574E002010
:10591800F061F561564D75610120FCF715F803201B
:10592800F061FCF701F90746FCF720F80646FCF79A
:10593800FBF850490860FFF797FC4F48006887421A
:1059480001D9381A01E0381A401E4C49884200D95A
:10595800084061688A8DD20709D0494A030C126849
:1059680080B2534350431B02000A18180BE0C201CF
:105978008300D21A4300D21AC3001818921C803030
:105988009208400A1018E061FF313E480131496829
:10599800006809183C480068081A41198B083B48F8
:1059A8008A073B4903600D68920F52190A60042A5E
:1059B80004D95B1C9207920F03600A60E169354FB6
:1059C800C8183946FCF704F902463348334D0368D2
:1059D800D31803602A688A182A60BA4206D95B1C61
:1059E800036039461046FCF7F3F82960FCF79EF986
:1059F8002B480078002810D0FBF7B8FF294AE16946
:105A0800801B12680B18934202D2511A091A01E03E
:105A18007D21C9001548FCF78FF9234D287A002805
:105A280011D0FBF7A3FF811BE3691048EA685C18F3
:105A38003C30A24202D9D21A511A00E01B49FCF7A5
:105A48007BF900202872FCF77DF90220FBF7ACFFF8
:105A58000020FCF76FF8FCF761F8F8BDD85DFF1F70
:105A68000C0AFF1FB6412103490AFF1F001000401E
:105A7800C4090000100AFF1F340AFF1FFFFF3F0080
:105A8800380AFF1F1C0AFF1F200AFF1F240AFF1FD6
:105A9800280AFF1F710200006008FF1F2C0AFF1F61
:105AA8001C09FF1FE408FF1F740BFF1FDC05000023
:105AB800F8B5FDF719FCFDF725F90120404E0090D7
:105AC8003078404C022810D0FCF72EF805463220DA
:105AD800FBF73AFFFDF776FA0F20FBF735FF307832
:105AE800012808D0FDF718FB1AE037484068006A1B
:105AF800FBF72AFF24E033484038C06B4007400FCB
:105B0800012802D10020FCF79FF86068FF270137C1
:105B1800B84360600220FBF717FF60683843606095
:105B2800FCF702F8A84201D3401B01E0401B401ECD
:105B380025491E2288615043244A49688018C86153
:105B4800244923480860234823498030C163FF2142
:105B5800413141623078FCF777F820492048FCF75A
:105B6800EBF81F481F491430FCF7E6F80420FCF74F
:105B780047FE1420FCF744FE1520FCF741FE1720D1
:105B8800FCF73EFEFF20FCF753F80120FCF7E0F895
:105B9800FF20F530FCF7E2F85820FBF753FF1248D6
:105BA800FCF7E2F80098FCF7E5F80720FCF764F842
:105BB800E0690E490840FF300930E061F8BD000097
:105BC8004A0AFF1F40F00040D85DFF1F7206000020
:105BD8000180063D00000340340800007102000007
:105BE80014100040FFFF3F003075000000FEFEFF6C
:105BF800040000003B000108020003000400050245
:105C080006020700080009000C000D00160000003D
:105C1800692AFF1FB12BFF1F0200000003000000CC
:105C280000000000000000000001020307090A0B41
:105C38000E0F101112141718191A1B1F20212200F9
:105C48000201000504000807000B0A001716001DD2
:105C58001C010201010504010E0D011110011413AC
:105C6800011716011A19020201020B0A020E0D028F
:105C78001110021413021716030504030807030B77
:105C88000A030E0D000D000E001000110013001481
:105C980001070108010A010B011C011D020402058C
:105CA800020702080219021A021C021D030103025C
:105CB800031700000203FFFF00C2010001000000FB
:105CC800000000003031323334353637383941423C
:105CD800434445464748494A4B4C4D4E4F50515214
:105CE800535455565758595A000000003031323332
:105CF8003435363738396162636465666768696A5E
:105D08006B6C6D6E6F707172737475767778797A63
:105D1800000000005048592B36325858504C555303
:105D280030353034000000000004FF1F0C5EFF1FF8
:105D38000C000000EC2CFF1F0C5EFF1F0004FF1F6F
:105D480000040000C018FF1F0C5EFF1F0C5EFF1F41
:105D58005C0C0000FC2CFF1F00000000000000008D
:105D680000000025250000000000000000000000E1
:105D7800000000000000000000000000000000001B
:105D88000000000000000000000000000200000009
:105D9800882108005902E00100000000000000000E
:105DA80000000000F45CFF1FCC5CFF1F0000000037
:105DB80000000000040000003B0001080000000093
:105DC80000000000000008000000000040787D018D
:105DD80000000000000000000000000000000000BB
:105DE80000000000010000000000000000000000AA
:105DF8001C5DFF1F00000000000000000000000004
:045E08000000000096
:040000051FFF184180
:00000001FF
