:020000040800F2
:10000000183C00206D020008350A00085103000862
:10001000310A00080D070008051000080000000064
:10002000000000000000000000000000A50A000819
:10003000DD08000800000000DB020008CD0C00080D
:10004000870200088702000887020008870200086C
:100050008702000887020008E10800085B09000821
:10006000650900086F0900087909000853070008AE
:10007000670700087B07000891070008D5070008FC
:10008000EB07000801080008870200088702000843
:100090000000000087020008000000008509000839
:1000A00087020008410D0008870200088702000847
:1000B000550D0008690D00087D0D00088702000835
:1000C000000000008702000800000000870200080E
:1000D00087020008E10D00083D0E00087D0E0008B3
:1000E000EB08000887020008870200088702000862
:1000F000CD0D00088702000887020008870200086B
:100100000000000087020008910D00088702000827
:10011000BD0E0008F90E0008A50D0008B90D000875
:10012000190800083108000849080008610800089B
:1001300079080008870200080000000000000000A5
:10014000870200080000000000000000870200088D
:100150000000000000000000000000002D0F00085B
:10016000000000000000000000000000000000008F
:10017000000000000000000000000000000000007F
:100180000000000000000000690F0008A50F000833
:1001900000F002F800F05AF80AA090E8000C82443F
:1001A0008344AAF10107DA4501D100F04FF8AFF21C
:1001B000090EBAE80F0013F0010F18BFFB1A43F045
:1001C00001031847FC6600001C6700000A444FF05A
:1001D000000C10F8013B13F0070408BF10F8014BA6
:1001E0001D1108BF10F8015B641E05D010F8016BEB
:1001F000641E01F8016BF9D113F0080F1EBF10F84F
:10020000014BAD1C0C1B09D16D1E58BF01F801CB71
:10021000FAD505E014F8016B01F8016B6D1EF9D5F4
:100220009142D6D370470000002300240025002609
:10023000103A28BF78C1FBD8520728BF30C148BF49
:100240000B6070471FB51FBD10B510BD00F0EBF976
:100250001146FFF7F7FF00F021FA00F009FA03B4A6
:10026000FFF7F2FF03BC00F013FA000009488047D3
:1002700009480047FEE7FEE7FEE7FEE7FEE7FEE788
:10028000FEE7FEE7FEE7FEE704480549054A064BA0
:1002900070470000DD0C000891010008181A0020CA
:1002A000183C0020181C0020181C0020EFF31080C0
:1002B00072B6704780F310887047324A1368012B7A
:1002C00004D04FF0010313602F4A10602F4A1160D1
:1002D0002F484FF0805101607047EFF3108272B6E3
:1002E0002848016891B14FF000010160264801687B
:1002F00029B1EFF3098121E9F00F0068016023497A
:1003000009680968B1E8F00F81F3098882F3108861
:100310004EF0040E70471D4908601B494FF0000065
:10032000086018494FF0010008601A481A49D0F8CF
:10033000002041EA0201016015484FF08051016040
:1003400016480068006880F3088861B662B6704796
:100350001EF0040F0CBFEFF30880EFF3098020E9D3
:10036000F00F40F804ED1EF0040F0CBF80F3088876
:1003700080F3098800B503F0B1F95DF804EB4EF0A5
:10038000040E7047E8010020E0010020E401002095
:1003900004ED00E020ED00E00000FFFF08ED00E0CC
:1003A00040EA0103024630B59B0710D14FF00134FB
:1003B00000E008C208C91D1B9D4315EAC41FF8D000
:1003C00013F0FF0102F8011B0DD01B0AF8E711F82A
:1003D000013B002B02F8013B05D011F8013B002B3B
:1003E00002F8013BF3D130BD10B5431C02E010F818
:1003F000011B71B18107FAD14FF0013202C88C1A8A
:100400008C4314EAC211F9D0C01A0A0603D0C01EE8
:1004100010BDC01A10BD0A0401D0801E10BD090213
:10042000FCD0401E10BD40EA010370B59B072ED1E1
:100430004FF00136042A2AD308C810C99D1B9D43DA
:10044000121F15EAC61517D0D8B2E1B2401A50EA09
:10045000056110D198B2A1B2401A50EA05410AD103
:1004600023F07F4024F07F41401A50EA052102D159
:10047000180EA0EB146070BDA342DBD018BA21BAED
:10048000884201D9012070BD4FF0FF3070BD0AB91C
:10049000002070BD10F8013B11F8014B63B1A3427D
:1004A0000AD1521E08D010F8013B11F8014B1BB1C4
:1004B000A34201D1521EEDD1181B70BD421E12F88D
:1004C000013F002BFBD111F8013B002B02F8013B4F
:1004D000F9D1704710B5203AC0F00B80B1E8185040
:1004E000203AA0E81850B1E81850A0E81850BFF41E
:1004F000F5AF5FEA027C24BFB1E81850A0E81850BD
:1005000044BF18C918C0BDE810405FEA827C24BF10
:1005100051F8043B40F8043B08BF7047D20728BF9E
:1005200031F8023B48BF11F8012B28BF20F8023BED
:1005300048BF00F8012B70474FF000020429C0F0BB
:10054000128010F0030C00F01B80CCF1040CBCF105
:10055000020F18BF00F8012BA8BF20F8022BA1EB57
:100560000C0100F00DB85FEAC17C24BF00F8012B3C
:1005700000F8012B48BF00F8012B70474FF0000234
:1005800000B5134694469646203922BFA0E80C5089
:10059000A0E80C50B1F12001BFF4F7AF090728BF64
:1005A000A0E80C5048BF0CC05DF804EB890028BFE0
:1005B00040F8042B08BF704748BF20F8022B11F009
:1005C000804F18BF00F8012B704710B5044610F09B
:1005D000030F08BF11F0030F40F015804FF0013EEC
:1005E000121FC0F20E8051F8043BA3EB0E0C2CEA54
:1005F000030C1CEACE1C08BF40F8043BF0D0A1F16C
:10060000040102F10402521E08DB11F8013B002B29
:1006100000F8013BF7D11146FFF78EFF204610BDD1
:10062000704770477047754600F02CF8AE460500DD
:100630006946534620F00700854618B020B5FFF7FD
:1006400023FEBDE820404FF000064FF000074FF0BA
:1006500000084FF0000B21F00701AC46ACE8C009E0
:10066000ACE8C009ACE8C009ACE8C0098D467047E9
:1006700010B50446AFF300802046BDE81040FFF7F8
:10068000EEBD000000487047B4190020704700001C
:1006900001491820ABBEFEE72600020010B504F0A9
:1006A000F4FB002010BD2DE9F043054616461F4619
:1006B00008464FF0000C002423E0002319E003F16A
:1006C000010805FB08F804F10109B8FBF9F28A42B8
:1006D00002D9A2EB010801E0A1EB020842469042D8
:1006E00002D9104633703C7010B94FF0010C02E093
:1006F0005B1C402BE3D300BFBCF1000F00D002E035
:10070000641C042CD9D300BFBDE8F08300BFFEE712
:10071000014600224FF0E0231A61CA005A6100220C
:100720009A6105221A6100BF4FF0E022106900F0C3
:1007300001021AB100F48032002AF5D04FF0E02215
:10074000126922F001024FF0E0231A6100229A613F
:10075000704710B5022000F0A9F8012802D102204C
:1007600000F096F810BD10B5202000F09FF8012889
:1007700002D1202000F08CF810BD10B54FF40070AD
:1007800000F094F8012802D1400200F081F810BD79
:1007900010B54FF4005000F089F8012816D140033D
:1007A00000F076F80A480078012804D0022805D025
:1007B000032809D105E002F0E9FC06E002F0F6FCAE
:1007C00003E002F08FFB00E000BF00BF10BD00009F
:1007D0005400002010B54FF4003000F067F80128F5
:1007E00002D1400400F054F810BD10B54FF40010D1
:1007F00000F05CF8012802D1400500F049F810BD76
:1008000010B54FF0007000F051F8012802D14006F9
:1008100000F03EF810BD000010B5044800F046F8A6
:10082000012802D1014800F033F810BD0200001089
:1008300010B5044800F03AF8012802D1014800F050
:1008400027F810BD2000001010B5044800F02EF865
:10085000012802D1014800F01BF810BD0002001071
:1008600010B5044800F022F8012802D1014800F038
:100870000FF810BD0020001010B5044800F016F865
:10088000012802D1014800F003F810BD0000021059
:10089000B0F1805F02D9034908607047024948609F
:1008A00000BFFAE704040240000002400146B1F133
:1008B000805F07D907480068084008B101207047E9
:1008C0000020FCE704480068084008B10120F6E772
:1008D0000020F4E7000402400000024000BFFEE7F1
:1008E00010B5012000F08EF810BD10B54FF48060F7
:1008F00000F08EF818B14FF4806000F083F84FF4E8
:10090000006000F085F818B14FF4006000F07AF84C
:100910004FF4805000F07CF818B14FF4805000F094
:1009200071F84FF4005000F073F818B14FF4005014
:1009300000F068F84FF4804000F06AF818B14FF406
:10094000804000F05FF84FF4004000F061F818B10B
:100950004FF4004000F056F810BD10B5022000F032
:1009600051F810BD10B5042000F04CF810BD10B5C2
:10097000082000F047F810BD10B5102000F042F834
:1009800010BD000010B5202000F042F810B120206A
:1009900000F038F8402000F03BF810B1402000F0A3
:1009A00031F8802000F034F810B1802000F02AF8EF
:1009B0004FF4807000F02CF8B8B11148007801288D
:1009C00004D0022805D0032809D105E002F00AFC72
:1009D00006E002F0FBFB03E002F0BEFA00E000BF1D
:1009E00000BF4FF4807000F00DF84FF4007000F07D
:1009F0000FF818B14FF4007000F004F810BD0000BB
:100A000054000020014908607047000014040140B0
:100A1000014606480068084030B1044814380068B0
:100A2000084008B1012070470020FCE71404014091
:100A300000BFFEE700BFFEE710B5C17809B3164A54
:100A4000126802F4E0634FF4E0629A43110A4278BC
:100A5000C1F104039A4083780F240C4123401A43C8
:100A600011010E4A04781155027802F01F03012289
:100A70009A4003785B119B0003F1E023C3F8002147
:100A800009E0017801F01F0201219140044A037836
:100A90005B1142F8231010BD0CED00E000E400E013
:100AA00080E100E000BFFEE710B50A48006820F0D2
:100AB0001800084908600846006840F00100086016
:100AC00000BF0448406800F003000228F9D100F09C
:100AD00003F810BD0060014000B587B0002003900E
:100AE00002907148006840F001006F49086000BF43
:100AF0006D48006800F002000028F9D06A480068DC
:100B000040F48030684908600520FFF701FE67481F
:100B100000686749884210D96348006B40F08050F4
:100B2000614908636348006820F4404061490860F7
:100B30000846006840F44040086010E05A480068E9
:100B400000F400300290029800B109E00398401CC4
:100B500003900398B0F5485F01D307B000BDEDE7FF
:100B600000BF5148006800F4003010B90020029026
:100B7000F3E7012002900520FFF7CAFD4E484B49DC
:100B800008604E48006840F010004C490860084674
:100B9000006820F00700086044480068401E48498B
:100BA000B0FBF1F0069045480068069901F0070196
:100BB0000843424908603C48406843F6F071884366
:100BC00039494860084640684860084640684860BF
:100BD0000846406848606B4601AA344801683948B5
:100BE000FFF761FD3048806C20F003002E498864D7
:100BF0000846806C40F0010088649DF8000000F019
:100C0000070004909DF8040000F07F00059008465E
:100C1000006B40F0805008630846806C2A49084009
:100C20002149886405980004049940EA01201E497E
:100C3000896C08431C4988640846006840F080704D
:100C4000086000E000BF1848006800F0007000284D
:100C5000F8D01548406820F0030013494860084662
:100C6000406840F00200486000E000BF0E48406865
:100C700000F00C000828F8D10120FFF749FD0A48D0
:100C8000406820F01000084948600120FFF740FD4F
:100C90000548406820F08000034948600120FFF7C4
:100CA00037FD00BF59E70000001002405C00002043
:100CB00000D8B80500700040000E27070020024051
:100CC00000366E0100127A00FFF880FF10B502F0C6
:100CD0002FFE03F0A7FD02F03BFE10BD10B5144837
:100CE000006840F001001249086008464068114958
:100CF00008400F494860084600680F4908400C4901
:100D000008600846006820F48020086008464068B3
:100D100020F4430048600846006808490840044938
:100D200008604FF41F008860FFF7BEFE10BD000092
:100D3000001002400CC0FFF8FFFFF6FEFFFF8F001F
:100D40000349086809688143014A1160704700003F
:100D5000102C01404FF080410869096981434FF030
:100D600080421161704700000349086809688143A7
:100D7000014A1160704700001004004003490868F0
:100D800009688143014A1160704700001008004063
:100D90000349086809688143014A116070470000EF
:100DA000100C00400349086909698143014A116137
:100DB000704700000010004003490868096881433B
:100DC000014A116070470000101400400349086890
:100DD00009688143014A11607047000010340140E6
:100DE00008B502F0A5FD1348006800F0010038B115
:100DF00010480830006840F001000E4908310860D2
:100E00000C48006800F0020088B16946002004F038
:100E100049FD9DF800100848006802F079FF054878
:100E20000830006840F0020002490831086002F012
:100E30008FFD08BD0C3801405000002010B50E4851
:100E4000006800F0010038B10B480830006840F03D
:100E500001000949083108600748006800F00200F5
:100E600048B100F085FF04480830006840F00200F7
:100E700001490831086010BD0C44004010B50E480F
:100E8000006800F0010038B10B480830006840F0FD
:100E900001000949083108600748006800F00200B5
:100EA00048B100F09BFF04480830006840F00200A1
:100EB00001490831086010BD0C4800400D48006829
:100EC00000F0010038B10B480830006840F0010024
:100ED0000849083108600748006800F0020038B18E
:100EE00004480830006840F00200024908310860F8
:100EF000704700000C4C00400B48C06800F0010037
:100F000028B10948406940F0010007494861064896
:100F1000C06800F0020028B10348406940F00200B8
:100F20000149486170470000005000400D480068CA
:100F300000F0010038B10B480830006840F00100B3
:100F40000849083108600748006800F0020038B11D
:100F500004480830006840F0020002490831086087
:100F6000704700000C3C01400D48006800F0010093
:100F700038B10B480830006840F0010008490831DA
:100F800008600748006800F0020038B104480830E3
:100F9000006840F002000249083108607047000014
:100FA0000C78004010B51548006800F0010038B119
:100FB00012480830006840F001001049083108600C
:100FC0000E48006800F00200B0B10C48083000681C
:100FD00040F00200094908310860094800780228F9
:100FE00002D0032806D102E002F0A6F803E001F0E7
:100FF00089FF00E000BF00BF10BD00000C7C004076
:101000005400002000BFFEE7014609B900207047E8
:10101000C8B220B1C8B20E4A105C401CF7E701F418
:101020007F4028B10A48C1F30722805C0930EEE70F
:1010300001F47F0028B10648C1F30742805C1130FB
:10104000E5E7034800EB116000781930DFE70000A6
:101050000665000870B504462068A0F1140528460E
:1010600003F02AFB002070BD2DE9F04105460C4637
:101070009046204603F07AFBB8F1000F03D0B8F198
:10108000010F23D105E004F11401284602F0A0FC71
:101090001DE02E680FE0A6F1140794F8350097F8CC
:1010A0003510884206DA04F1140107F1140002F049
:1010B0008FFC02E03668AE42EDD100BFAE4204D1F3
:1010C00004F11401284602F083FC00E000BF00BFD9
:1010D0000020BDE8F08110B5044604F1140002F0D0
:1010E00063FC002010BD2DE9F04389B00646884618
:1010F0009146002400E0641C305D202804D0305D5F
:10110000092801D04445F6D324B94FF0FF3009B087
:10111000BDE8F0832146304601F002FE054615B9D0
:101120004FF0FF30F3E7202101A8FFF727FA01AACB
:101130004146304601F05EFE074617B94FF0FF30DA
:10114000E5E701A93846A847C9F800000020DEE716
:101150002DE9F04704460E4617469846DDF82090E4
:1011600084F80990607A20F001006072E6612762DD
:101170000020A062C4F82480002506E004F11401D8
:1011800001EBC50002F013FC6D1C012DF6DBBDE880
:10119000F08770B50546002406E005F1140101EB67
:1011A000C40002F050FC641C012CF6DB70BD000092
:1011B00070B5044606480068FFF726FF451E05483F
:1011C00050F83500A0F114062560304670BD0000CF
:1011D000C40100207017002070B50446FFF766F8C0
:1011E0000546A06F10B12046A16F88472846FFF73B
:1011F00061F870BD70B503F07DFA0446FFF756F84C
:1012000005462046FFF7E8FF204602F0AFFF042026
:1012100084F8340004F14C0003F0CAFB204602F0CD
:10122000D6FE012803D1204602F083FE02E02046CC
:1012300003F0DCF902F0D4FE2846FFF73BF870BD5E
:101240002DE9FC5F04468B4615461E46DDE90C9AE7
:10125000DDE90E7804F114004060006000BF1C342A
:101260006560A660C4F80C90C4F810A02321D4E9EE
:10127000030202F0FEFDD4E9033C63441A1F0F4B46
:10128000D4E9010102F02EFB2060A77667760020EA
:10129000E061C4F82880C4F82C8060612076E065A5
:1012A00020661C3C00902346054A2146019004F12B
:1012B0004C0003F091FB0020BDE8FC9FF5110008F5
:1012C000B5470008F0B504460D461646210904F05E
:1012D0000F02334FBF6A4FF0010C0CFA01FC47EAD2
:1012E0000C07DFF8BCC0CCF82870082A27DA2D4F8D
:1012F00057F82170386A4FEA820C0F2707FA0CF76B
:10130000B843970006FA07F73843264F57F821707D
:101310003862244F57F8217038684FEA820C0F2743
:1013200007FA0CF7B84345EA03074FEA820C07FABD
:101330000CF738431B4F57F8217038602EE0194FD7
:1013400057F82170786AA2F108074FEA870C0F2737
:1013500007FA0CF7B843A2F10807BF0006FA07F72F
:101360003843104F57F8217078620E4F57F82170AC
:101370007868A2F108074FEA870C0F2707FA0CF7E5
:10138000B84345EA0307A2F1080C4FEA8C0C07FAB0
:101390000CF73843034F57F821707860F0BD000018
:1013A00000100240700000207CB5002211461FA0F2
:1013B00002F006FF1F4908600846006828B91EA011
:1013C00002F0D6FA4FF0FF307CBD24A002F0D0FA34
:1013D000052000904FF4007300222B4901902BA0B0
:1013E00003F0C1F805461DB1284603F0A9F904E051
:1013F0002BA002F0BDFA0120E6E7052006214FF4FC
:1014000000730022CDE900102E492FA003F0ABF8A5
:1014100004461CB1204603F093F904E02FA002F02B
:10142000A7FA0120D0E70020CEE700006473656DC5
:10143000000000000800002063726561746520648C
:10144000796E616D69632073656D6170686F726537
:10145000206661696C65642E0A0000006372656134
:10146000746520646F6E652E2064796E616D6963AA
:101470002073656D6170686F72652076616C75654B
:10148000203D20302E0A0000395200087468726531
:1014900061645F656E7472795F6F6E6C696E650012
:1014A0007468726561645F6F6E6C696E65207468E4
:1014B0007265616420637265617465204552524FA4
:1014C000522E0A00C5510008746872656164325F6B
:1014D000656E7472795F73656E740000746872650E
:1014E00061645F73656E7420746872656164206303
:1014F0007265617465204552524F522E0A000000F9
:1015000010B540F203735A1E4FF4E131012004F08C
:10151000DBF90121084604F0D1FA40F21B735A1E90
:101520004FF4E131022004F0CFF90121022004F050
:10153000C5FA00231A460321722000F085FC00231F
:101540001A4603211D2000F07FFC00231A460321C8
:10155000302000F079FC00231A460321312000F0EE
:1015600073FC002010BD10B504463CB140F20A7374
:101570005A1E4FF4E131002004F0A6F901210020A9
:1015800004F09CFA10BD000010B520A002F0F0F9A4
:101590002148017821A002F0EBF91F48007800F003
:1015A000010010B123A002F0E3F91B48007800F01D
:1015B000020010B122A002F0DBF91748007800F019
:1015C000040010B121A002F0D3F91348007800F014
:1015D000080010B121A002F0CBF90F48007800F00C
:1015E000100010B120A002F0C3F90B48007800F001
:1015F000800030B108480F3001681DA002F0B8F932
:1016000002E01FA002F0B4F910BD00006275732063
:101610006661756C743A0A0029ED00E05343425F3D
:10162000434653525F424653523A3078253032583F
:10163000200000004942555345525220000000004E
:10164000505245434953455252200000494D505293
:10165000454349534552522000000000554E535413
:101660004B4552522000000053544B45525220002B
:101670005343422D3E424641523A253038580A00E3
:101680000A00000010B502A002F072F9002010BD9F
:101690001B5B324A1B5B480070B504460D4600F0E8
:1016A0001FFF002070BD70B504460D4601F092F892
:1016B000002070BD10B51548006890F82100C0F3F7
:1016C000400020B9002012490870084610BD11489A
:1016D000006840B14FF400720E4801680C48FEF7F4
:1016E00074FF0B48F2E701F083FB20B10AA1084820
:1016F000FEF756FE03E00AA10548FEF751FE0AA1D7
:101700000348FEF7DBFE0248E0E70000000200208D
:10171000B0170020040200206D7368200000000054
:1017200066696E73682000003E00000010B501F08D
:10173000B3FF10BD0549096891F8211060F341011C
:10174000024A126882F8211070470000000200204F
:10175000024A1060024A116070470000F001002048
:10176000F40100207CB5002517491848FFF7F0FF69
:101770007821012001F060FE1549086008460068E4
:1017800020B914A002F0F4F8681E7CBD0A200521DF
:101790004FF440730022CDE90010144914A002F068
:1017A000E2FE044600231A4613A10948006802F02D
:1017B0001CFD0120FFF7BEFF1CB115B9204602F049
:1017C000BFFF0020E1E70000C068000810680008C3
:1017D000000200206E6F206D656D6F727920666F5C
:1017E00072207368656C6C0A000000000118000824
:1017F000747368656C6C0000736872780000000098
:10180000E948006890F8210020F00100401CE649FA
:10181000096881F82100FFF74DFF054602F0A8F89E
:10182000C1E1FFF783FF0446002C00DABBE11B2C6B
:1018300005D10120DC49096881F82000B3E1DA48CC
:10184000006890F8200001280DD15B2C05D1022002
:10185000D549096881F82000A5E10020D24909682E
:1018600081F8200045E0D048006890F82000022868
:101870003FD10020CC49096881F82000412C00D1DB
:1018800091E1422C00D18EE1442C11D1C648006870
:10189000B0F8760058B1C5A002F06AF8C2480068F6
:1018A000B0F87600401EC0490968A1F876007AE1D8
:1018B000432C1ED1BC480068B0F87600BA490968CC
:1018C000B1F87410884213DAB7480068B0F876208F
:1018D000B54800682230815CB5A002F049F8B248F2
:1018E0000068B0F87600401CAF490968A1F876009E
:1018F00059E10CB1FF2C00D155E1092C1FD1002575
:1019000003E0AAA002F034F86D1CA7480068B0F804
:101910007600A842F5DCA4480068223003F0E2FB20
:10192000A14800682230FEF75FFD80B29E49096839
:10193000A1F874009C490968A1F8760033E17F2C76
:1019400001D0082C6ED198480068B0F8760000B934
:1019500029E195480068B0F87400401E9249096872
:10196000A1F8740090480068B0F87600401E8E49D7
:101970000968A1F876008C480068B0F874008A49BC
:101980000968B1F8761088423FDD874B1B68B3F8D1
:101990007430854E3668B6F876609A1B824B1B68A9
:1019A000B3F876305B1C804E3668223699197E4B30
:1019B0001B68B3F876607C4B1B682233F01802F08A
:1019C00037FA002278480068B0F87410764800684A
:1019D0002230425474480068B0F87620724800689B
:1019E0002230111873A001F0C3FF6F480068B0F8EF
:1019F000765003E06DA001F0BBFF6D1C6A480068E3
:101A0000B0F87400A842F5DA0BE06CA001F0B0FF6A
:101A1000002165480068B0F87420634800682230EF
:101A20008154C0E00D2C01D00A2C2BD101F0E0F93B
:101A3000012812D15C48006890F8210000F00100F4
:101A400010B15FA001F094FF57480068B0F874101F
:101A500055480068223001F02DF9FFF72BFE0546AE
:101A600001F086FF5121504800682230FEF764FDE6
:101A700000204D490968A1F874004B490968A1F894
:101A8000760090E048480068B0F87400502804DB05
:101A9000002045490968A1F8740043480068B0F87F
:101AA000760041490968B1F87410884245DA3E4B26
:101AB0001B68B3F874303C4E3668B6F876609A1BF3
:101AC000394B1B68B3F87660374B1B682233F1182B
:101AD000354B1B68B3F876305B1C334E36682236C4
:101AE000981902F0A5F930480068B0F876202E4821
:101AF0000068223084542C48006890F8210000F0DF
:101B0000010050B128480068B0F8762026480068E7
:101B1000223011182BA001F02BFF23480068B0F8E9
:101B2000765003E021A001F023FF6D1C1E480068E1
:101B3000B0F87400A842F5DC12E01B480068B0F869
:101B4000742019480068223084541748006890F8BF
:101B5000210000F0010018B1214615A001F008FF96
:101B6000002411480068B0F87400401C0E49096850
:101B7000A1F874000C480068B0F87600401C0A49CF
:101B80000968A1F8760008480068B0F87400502889
:101B900008DB002004490968A1F8740002490968BB
:101BA000A1F8760000BF3CE600020020080000001B
:101BB0002563000008257320200800000820080085
:101BC0000A000000257300002DE9F04F8BB0054698
:101BD0008A4693460026B1460024504604F0E0FAB7
:101BE00006460021504604F00FFB03D22D2005F8D5
:101BF000010B0DE0504604F039FA07460022134667
:101C000004F090F904D1302028700BB0BDE8F08FBB
:101C1000304604F0E1FA0746514604F0F5FB8246EF
:101C200004E03649504604F023FB8246BBF1000035
:101C3000ABF1010101F0FF0BF3D1504604F0B0FA13
:101C400081460DE00A2096FBF0F100FB1162204670
:101C5000611CCCB206A941F820200A2096FBF0F6C0
:101C6000002EEFD113E0601E06A951F820000028D5
:101C700003DB601E51F8200004E0601E06A951F845
:101C800020004042303005F8010B601EC4B2002C29
:101C9000E9D12E2005F8010BB9F1000F02D1302057
:101CA000287028E00DE00A2099FBF0F100FB11926A
:101CB0002046611CCCB201A941F820200A2099FBE2
:101CC000F0F9B9F1000FEED113E0601E01A951F84F
:101CD0002000002803DB601E51F8200004E0601E95
:101CE00001A951F820004042303005F8010B601E78
:101CF000C4B2002CE9D100BF87E7000000002041FA
:101D000010B511A1022003F0CBFE0120124908708A
:101D100005E01D2000F062F9642002F0C3FC0E48CB
:101D200000780028F5D10DA1022003F0B9FE0120B2
:101D30000E49087002E0642002F0B4FC0B48007801
:101D40000028F8D110BD000041542B475053524495
:101D50003D320D0A000000004B00002041542B478B
:101D6000505352443D300D0A00000000470000204F
:101D700008B516480068012810D1002014490860F1
:101D80006946012003F08EFD9DF80010114802788D
:101D90000078401C0F4B18700F4881540B480068A6
:101DA00090B900200B490870012008490860694675
:101DB00003F078FD9DF80020064801780078401C6B
:101DC000044B18700448425408BD00001400002061
:101DD00010000020180000200802002008B5164856
:101DE0000068012810D100201449086069460220CB
:101DF00003F058FD9DF80010114802680068401C6F
:101E00000F4B18600F4881540B48006898B90020A8
:101E10000B4908600120084908606946022003F068
:101E200041FD9DF80010064802680068401C044B04
:101E300018600448815408BD380000203400002098
:101E40003C000020150400202DE9F04104460D4619
:101E50001646210904F00F024C4FBF6A4FF0010CE7
:101E60000CFA01FC47EA0C07DFF820C1CCF8287017
:101E7000082A29DA464F57F82170386A4FEA820C4F
:101E80000F2707FA0CF7B8434FEA820C0F2707FA1F
:101E90000CF738433E4F57F8217038623C4F57F8E3
:101EA000217038684FEA820C0F2707FA0CF7B84305
:101EB00045EA03074FEA820C07FA0CF73843344F20
:101EC00057F82170386030E0314F57F82170786A48
:101ED000A2F108074FEA870C0F2707FA0CF7B8435F
:101EE000A2F108074FEA870C0F2707FA0CF73843CF
:101EF000274F57F821707862254F57F8217078687E
:101F0000A2F108074FEA870C0F2707FA0CF7B8432E
:101F100045EA0307A2F1080C4FEA8C0C07FA0CF70C
:101F200038431B4F57F821707860B6B12711DFF89E
:101F300060C05CF827703F6904F00F084FF0010C97
:101F40000CFA08FC47EA0C074FEA241CDFF8408033
:101F500058F82CC0CCF8107015E02711DFF830C00D
:101F60005CF827707F6904F00F084FF0010C0CFA41
:101F700008FC47EA0C074FEA241CDFF8148058F8E5
:101F80002CC0CCF81470BDE8F081000000100240B5
:101F90007000002010B579B102090F4B53F82220D0
:101FA000126900F00F040123A3401A4303090A4CED
:101FB00054F823301A610EE00209074B53F822202F
:101FC000526900F00F040123A3401A430309024C95
:101FD00054F823305A6110BD700000200109154AE1
:101FE00052F82110896800F00F0301229A40114035
:101FF00079B101090F4A52F82110496900F00F0325
:1020000001229A40114302090A4B53F822205161E0
:102010000EE00109074A52F82110096900F00F0388
:1020200001229A4011430209024B53F82220116108
:10203000704700007000002010B51448006800F0E0
:10204000020010B112A001F093FC1048006800F0EB
:10205000804088B10D48C01E007808B1FFF794FA9F
:102060000A48001F007808B100F060FD0748801E94
:10207000008808B103F046FD0448006800F0004005
:1020800010B109A001F074FC10BD00002CED00E0BF
:102090006661696C656420766563746F722066653D
:1020A0007463680A000000006465627567206576E5
:1020B000656E740A0000000010B502A001F058FC23
:1020C000002010BD48656C6C6F2052542D5468720E
:1020D000656164210A00000070B50C4600230125EB
:1020E0000121002A03DA2D2606705B1C8D1E02E0FA
:1020F00001EB8106710092FBF1F60A2EF8DA92FBF1
:10210000F1F616F10A0FF3DD0CE092FBF1F66E43E7
:102110003036C65492FBF1F601FB16220A2691FBDB
:10212000F6F15B1C661E9E4201DD0029EDD1002602
:10213000C65470BD10B50CA001F01AFC0F4804681D
:102140000CE002220EA12068FEF76DF900B904E050
:102150000CA0216801F00CFC00BF08340A4800689C
:102160008442EED3002010BD2D2D46756E63746938
:102170006F6E204C6973743A0A000000F001002071
:102180005F5F000025730A00F40100202DE9F04F85
:102190008FB000270FF2C009082302AA04210AA861
:1021A00000F096F84FF008084A4641462CA001F08E
:1021B000DFFB404600F0F0FE32A001F0D9FB00BF8B
:1021C0000AA9384600F099F8074600253BE002A826
:1021D00050F82500A0F10C06FEF768F88346307A27
:1021E00020F080009DF83010884203D05846FEF75A
:1021F00061F827E05846FEF75DF8344604F1140014
:1022000001F0FDFBA8B904F1140001F000FC8246C6
:10221000E069234608224146CDE9000A21A001F0E9
:10222000A7FB04F1140002F079FF15A001F0A0FB58
:1022300007E0E06923460822414600901FA001F014
:1022400097FB00BF6D1C0E98A842C0DC002FB7D1D1
:1022500000200FB0BDE8F08F6576656E7400000059
:10226000252D2A2E73202020202020736574202005
:10227000202073757370656E642074687265616484
:102280000A00000020202D2D2D2D2D2D2D2D2D2D42
:10229000202D2D2D2D2D2D2D2D2D2D2D2D2D2D0A9E
:1022A00000000000252D2A2E2A73202030782530AA
:1022B000387820253033643A00000000252D2A2E7E
:1022C0002A73202030782530387820300A0000002A
:1022D0002DE9F04704460D4616461F46284601F0F4
:1022E00037FE814609F10408C4F800802572666053
:1022F000E76000202061BDE8F0872DE9F84F074630
:102300000C464FF0000A00202061E06808B1207AF6
:1023100010B90020BDE8F88FD4F800801FB94546F9
:102320004FF0010A00E03D46FDF7C0FF0090BAF112
:10233000000F0ED1A5F10C0B9BF8080020F08000D7
:10234000217A884204D00098FDF7B4FF0020E1E72D
:1023500000BF0026D4F804900BE02D68454501D15C
:10236000002507E0761C49F8045BE068B04200D124
:1023700000E0F2E700BF0098FDF79CFF26612846C9
:10238000C8E700002DE9F04F91B000270FF2D40903
:10239000082304AA05210CA8FFF79AFF4FF00808AC
:1023A0004A46414631A001F0E3FA404600F0F4FD10
:1023B00037A001F0DDFA00BF0CA93846FFF79DFFFA
:1023C0000746002545E004A850F82500A0F10C06BA
:1023D000FDF76CFF8346307A20F080009DF83810BE
:1023E000884203D05846FDF765FF31E05846FDF7B7
:1023F00061FF344604F1140001F001FBB8B904F1A7
:10240000140001F004FB8246208C618C23460822D4
:10241000CDE9010A0091414624A001F0A9FA04F196
:10242000140002F07BFE27A001F0A2FA0FE004F1F5
:10243000140001F0ECFA8246208C618C23460822BD
:10244000CDE9010A009141461FA001F091FA00BFB9
:102450006D1C1098A842B6DC002FADD1002011B041
:10246000BDE8F08F6D61696C626F7800252D2A2EB2
:102470007320656E7472792073697A652073757341
:1024800070656E64207468726561640A0000000003
:10249000202D2D2D2D20202D2D2D2D202D2D2D2DA0
:1024A0002D2D2D2D2D2D2D2D2D2D0A00252D2A2EB6
:1024B0002A7320253034642020253034642025649C
:1024C0003A0000000A000000252D2A2E2A7320253C
:1024D0003034642020253034642025640A00000054
:1024E00010B50848016808A001F042FA0B480168DD
:1024F0000BA001F03DFA0F4801680FA001F038FA77
:1025000010BD000058010020746F74616C206D656F
:102510006D6F72793A2025640A0000005C0100208A
:1025200075736564206D656D6F7279203A2025643E
:102530000A000000600100206D6178696D756D20F2
:10254000616C6C6F6361746564206D656D6F727929
:102550003A2025640A0000002DE9F04F8FB00027D3
:102560000FF2CC09082302AA06210AA8FFF7B0FE41
:102570004FF008084A46414630A001F0F9F94046BC
:1025800000F00AFD34A001F0F3F900BF0AA93846B3
:10259000FFF7B3FE0746002541E002A850F82500EA
:1025A000A0F10C06FDF782FE8346307A20F0800011
:1025B0009DF83010884203D05846FDF77BFE2DE091
:1025C0005846FDF777FE344604F1140001F017FA7F
:1025D000A8B904F1140001F01AFA8246A08C23462F
:1025E00008224146CDE9000A21A001F0C1F904F119
:1025F000140002F093FD23A001F0BAF90DE004F1FC
:10260000140001F004FA8246A08C234608224146B9
:10261000CDE9000A1CA001F0ABF900BF6D1C0E98BB
:10262000A842BADC002FB1D100200FB0BDE8F08F76
:102630006D7367717565756500000000252D2A2E84
:102640007320656E7472792073757370656E642083
:102650007468726561640A00202D2D2D2D20202DB7
:102660002D2D2D2D2D2D2D2D2D2D2D2D2D0A000017
:10267000252D2A2E2A732025303464202025643A03
:10268000000000000A000000252D2A2E2A732025B4
:10269000303464202025640A000000002DE9F04F4A
:1026A0008FB000270FF2CC09082302AA02210AA842
:1026B000FFF70EFE4FF008084A46414630A001F0F1
:1026C00057F9404600F068FC34A001F051F900BF12
:1026D0000AA93846FFF711FE0746002541E002A887
:1026E00050F82500A0F10C06FDF7E0FD8346307A96
:1026F00020F080009DF83010884203D05846FDF746
:10270000D9FD2DE05846FDF7D5FD344604F11400FF
:1027100001F075F9A8B904F1140001F078F98246C6
:10272000A08B234608224146CDE9000A21A001F0F2
:102730001FF904F1140002F0F1FC17A001F018F9E0
:102740000DE004F1140001F062F98246A08B2346EB
:1027500008224146CDE9000A1AA001F009F900BF9C
:102760006D1C0E98A842BADC002FB1D100200FB02A
:10277000BDE8F08F73656D6170686F726500000071
:10278000252D2A2E73207620202073757370656E98
:1027900064207468726561640A000000202D2D2D8C
:1027A000202D2D2D2D2D2D2D2D2D2D2D2D2D2D0A89
:1027B00000000000252D2A2E2A73202530336420A6
:1027C00025643A00252D2A2E2A73202530336420D3
:1027D00025640A002DE9F04FB1B04FF000090FF267
:1027E0001C1B082323AA01212BA8FFF771FD4FF022
:1027F000080A5A465146434801F0BAF8504600F0DC
:10280000CBFB41A001F0B4F800BF2BA94846FFF76D
:1028100074FD81464FF0000865E023A850F82800B9
:10282000A0F10C05FDF742FD3090287A20F08000E1
:102830009DF8B410884203D03098FDF73BFD50E07E
:102840008022294603A8FDF745FE3098FDF732FDAA
:102850002C4694F8350023460822514600903AA0B1
:1028600001F086F894F8340000F00706012E03D139
:1028700038A001F07DF815E0022E03D138A001F058
:1028800077F80FE01EB939A001F072F80AE0042EC3
:1028900003D139A001F06CF804E0032E02D139A075
:1028A00001F066F8A76A00E07F1C38782328FBD087
:1028B000D4E90A10791A401A64214843E16AB0FB4E
:1028C000F1F00290216BA06CCDE90001E369A06AF0
:1028D000C01AE36AC1181A462DA0029B01F048F8FD
:1028E00000BF08F101082F98404596DCB9F1000FB0
:1028F0008BD1002031B0BDE8F08F000074687265A4
:1029000061640000A8670008202D2D2D20202D2DAA
:102910002D2D2D2D2D202D2D2D2D2D2D2D2D2D2DF4
:10292000202D2D2D2D2D2D2D2D2D2D20202D2D2DFE
:102930002D2D2D20202D2D2D2D2D2D2D2D2D2D20EE
:102940002D2D2D0A00000000252D2A2E2A7320256A
:10295000336420002072656164792020000000004B
:102960002073757370656E640000000020696E69E5
:10297000742020200000000020636C6F736520200D
:10298000000000002072756E6E696E670000000026
:10299000203078253038782030782530387820205D
:1029A000202025303264252520202030782530381D
:1029B0007820253033640A002DE9F04790B00027D5
:1029C0000FF2B409082303AA0A210BA8FFF780FC21
:1029D0004FF008084A46414629A000F0C9FF40468A
:1029E00000F0DAFA30A000F0C3FF00BF0BA93846B0
:1029F000FFF783FC074600262DE003A850F82600C9
:102A0000A0F10C04FDF752FC8246207A20F08000F1
:102A10009DF83410884203D05046FDF74BFC19E076
:102A20005046FDF747FC2546D5E909012B4608220B
:102A3000CDE90001414625A000F09AFF687A00F038
:102A4000010018B127A000F093FF02E028A000F0D9
:102A50008FFF00BF761C0F98B042CEDC002FC5D18F
:102A600001F0DAFE0446214625A000F081FF002097
:102A700010B0BDE8F087000074696D657200000059
:102A8000252D2A2E732020706572696F646963207A
:102A9000202074696D656F7574202020202020200F
:102AA000666C61670A000000202D2D2D2D2D2D2D27
:102AB0002D2D2D202D2D2D2D2D2D2D2D2D2D202D60
:102AC0002D2D2D2D2D2D2D2D2D2D0A00252D2A2E90
:102AD0002A732030782530387820307825303878BF
:102AE000200000006163746976617465640A000007
:102AF00064656163746976617465640A000000004E
:102B000063757272656E74207469636B3A307825F0
:102B10003038780A000000000020704710B50446E5
:102B200000F0AAFCFFF7F8FF10BD000010B51CA0D4
:102B300000F01EFF1F4801781FA000F019FF1D487C
:102B4000007800F0010010B121A000F011FF194839
:102B5000007800F0020010B120A000F009FF154835
:102B6000007800F0080010B11FA000F001FF11482C
:102B7000007800F0100010B11EA000F0F9FE0D4822
:102B8000007800F0800030B10A480C3001681CA0C9
:102B900000F0EEFE02E01EA000F0EAFE10BD000014
:102BA0006D656D206D616E616765206661756C7421
:102BB0003A0A000028ED00E05343425F4346535277
:102BC0005F4D4653523A307825303258200000008D
:102BD0004941434356494F4C200000004441434380
:102BE00056494F4C200000004D554E53544B455212
:102BF000522000004D53544B45525220000000001B
:102C00005343422D3E4D4D41523A253038580A002B
:102C10000A0000002DE9F04781460026002799F8B8
:102C2000000028B90021084600F0A8F8BDE8F087A8
:102C30001B48046827E006221AA12068FDF7F3FB71
:102C400000B11FE0206800F106084846FDF7CCFB04
:102C50008246524641464846FDF7E5FB88B926B90B
:102C600047463846FDF7C0FB06464146384602F067
:102C700080FA0546B54200DA2E4641460BA000F028
:102C800077FE00BF08340A4800688442D3D327B1D6
:102C900032463946484601F092FB00BFC6E70000C5
:102CA000F00100205F5F636D645F000025730A0020
:102CB000F401002038B504460D4601E0641C6D1E89
:102CC0002DB120782028F9D020780928F6D00DB928
:102CD000002038BD6A4629462046FEF704FA08B9A6
:102CE0000098F6E7204600E0401C0178202902D039
:102CF00001780029F8D100210170214602A000F0DE
:102D000037FE4FF0FF30E4E725733A20636F6D6DB7
:102D1000616E64206E6F7420666F756E642E0A009B
:102D20002DE9F04106460D4600271048046815E0DD
:102D300006220FA12068FDF776FB00B10DE02168A7
:102D4000881D2A463146FDF76EFB28B9A81D21686B
:102D5000085C08B9676805E000BF083406480068E9
:102D60008442E5D300BF3846BDE8F081F001002081
:102D70005F5F636D645F0000F401002070B505467D
:102D80000E460EA000F0F4FD134804680DE0062284
:102D900012A12068FDF747FB00B105E02068811D06
:102DA00010A000F0E5FD00BF08340F480068844221
:102DB000EDD30EA000F0DCFD002070BD52542D5468
:102DC0006872656164207368656C6C20636F6D6DFB
:102DD000616E64733A0A0000F00100205F5F636D6A
:102DE000645F000025732000F40100200A00000049
:102DF000012070472DE9F04782460E469046544622
:102E00000025002755E003E000202070641C6D1CA5
:102E10002078202802D02078092801D1B542F3D3A8
:102E2000082F12D326A000F0A3FD4FF0000906E002
:102E300058F829102AA000F09BFD09F10109B945B5
:102E4000F6D326A000F094FD35E0B54200D332E081
:102E5000207822281CD1641C6D1C48F827407F1C58
:102E600009E020785C2804D16078222801D1641C14
:102E70006D1C641C6D1C2078222801D0B542F0D353
:102E8000B54200D317E000202070641C6D1C10E0D8
:102E900048F827407F1C01E0641C6D1C2078202826
:102EA00004D02078092801D0B542F5D3B54200D32B
:102EB00001E0B542A7D300BF3846BDE8F087000067
:102EC000546F6F206D616E792061726773202120CD
:102ED0005765206F6E6C79205573653A0A000000C3
:102EE000257320000548406C4FF6FE7108400349E9
:102EF0004864012002490870704700000000024049
:102F0000BC0000201048C06940681049104A12787F
:102F100088540F480078401C0D4908700846007816
:102F2000012805D109480078A52801D000200870A3
:102F300007480078032805D10020054908700120C2
:102F4000044908707047000090000020BD00002078
:102F5000C0000020C100002045F62000034988641D
:102F60000846406C40F00100486470470000024091
:102F7000F8B506460C461546F0B28DF8000004F090
:102F800007008DF8010000208DF802008DF8035035
:102F90006846FDF751FDF8BD10B5044602E004A0F7
:102FA00000F0E6FC201EA4F10104F8D110BD0000E1
:102FB0002D00000010B54FF47A7001F073FB38A1BA
:102FC000022002F06DFD01203949087002E0642002
:102FD00001F068FB364800780028F8D135A10220BE
:102FE00002F05EFD01203249087002E0642001F029
:102FF00059FB2F4800780028F8D135A1022002F0B3
:103000004FFD01202A49087002E0642001F04AFBCC
:10301000274800780028F8D131A1022002F040FDB5
:1030200001202349087002E0642001F03BFB2048A6
:1030300000780028F8D101203549087035A1022018
:1030400002F02EFD02E0642001F02CFB30480078F5
:103050000028F8D13349022002F022FD1A21022073
:1030600002F00EFD01203049087002E0642001F0FA
:1030700019FB2D4800780028F8D12CA1022002F07D
:103080000FFD01200A49087003E04FF4FA7001F0C7
:1030900009FB074800780028F7D1FEF731FE10BD84
:1030A00041542B43474154543D310D0A0000000068
:1030B0004700002041542B434744434F4E543D3179
:1030C0002C224950222C22434D4E4554220D0A00F9
:1030D00041542B43474143543D312C310D0A0000EC
:1030E00041542B43495053544152543D2254435070
:1030F000222C226170692E7A686979756E333630B8
:103100002E636F6D222C32383038320D0A000000E9
:103110004800002041542B43495053454E440D0A6A
:1031200000000000346700084600002041542B4195
:103130004750533D310D0A001048C069406810499E
:10314000104A127888540F480078401C0D490870C6
:1031500008460078012805D109480078A52801D043
:103160000020087007480078032805D10020054991
:10317000087001200449087070470000900000208A
:103180003401002037010020380100200548406C40
:103190004FF6FE7108400349486401200249087057
:1031A0007047000000000240B80000200548406C55
:1031B0004FF6FE7108400349486401200249087037
:1031C0007047000000000240060100204FF4166026
:1031D000034988640846406C40F001004864704729
:1031E000000002404FF41660034988640846406CB2
:1031F00040F00100486470470000024030B51A4CAE
:10320000436824681919884215D04B889BB9174B1D
:103210001B6899420FD0164B1B688B4201D1144B8F
:1032200018604B684360104B1B68C31A0E4D4C6806
:103230002D682C44A3600C4C836824681A198242C0
:1032400011D053887BB90A4B1B68834201D1084BCC
:103250001A6043685360044B1B68D31A024D4468DC
:103260002D682C44A36030BD4C010020500100208B
:10327000540100202DE9F04F86B00D469C46DDE953
:10328000106401960F9B04F04008B8F1000F02D0C3
:10329000DFF8708101E0DFF87081CDF8008004F084
:1032A0001008B8F1000F01D024F0010404F0010867
:1032B000B8F1000F02D04FF0300801E04FF02008C5
:1032C000C246002704F00208B8F1000F11D0002A0E
:1032D00002DA2D2752420CE004F00408B8F1000F86
:1032E00001D02B2705E004F00808B8F1000F00D04A
:1032F0002027002142B94FF0300B8846491C0DF1C0
:10330000080909F808B01DE01AE0E146B9F10A0F12
:1033100008D14FF00A0BB2FBFBFE0BFB1E28B2FBE1
:10332000FBF202E002F00F08120900BFDDF8009086
:1033300019F808B08846491C0DF1080909F808B0C9
:10334000002AE2D1B14200DD0E469B1B04F01108B9
:10335000B8F1000F10D117B1002B00DD5B1E06E0A5
:10336000A84203D24FF0200880F80080401CB3F13F
:103370000008A3F10103F3DC27B1A84200D20770D3
:103380005B1E401C04F01008B8F1000F0AD104E0E5
:10339000A84201D280F800A0401CB3F10008A3F1BC
:1033A0000103F5DC06E0A84203D24FF0300880F8B4
:1033B0000080401CB046761E8845F4DC08E0A84238
:1033C00005D20DF1080818F8018080F80080401C33
:1033D000B1F10008A1F1010104DDDDF80480B8F1CC
:1033E000000FECD106E0A84203D24FF0200880F88D
:1033F0000080401CB3F10008A3F10103F3DC06B028
:10340000BDE8F08F17660008066600081CB514209A
:1034100002210B020022CDE90010044904A001F0B2
:10342000A2F80446204601F08BF91CBD1D2B0008B4
:103430006D61696E0000000070B504460D4604FB26
:1034400005F000F009FB06462EB104FB05F2002151
:10345000304600F00EFD304670BD000010B5044C43
:1034600002E020688047241D02488442F9D310BD41
:10347000F0670008F867000810B5044C02E0206807
:103480008047241D02488442F9D310BDF867000824
:103490000C68000870B52AE0FCF708FF064601F04A
:1034A0008BF804461CB93046FCF704FF20E0A56FFA
:1034B0003DB13046FCF7FEFE2046A847FCF7F6FE7D
:1034C0000646204600F083FD012806D1204600F084
:1034D00030FD3046FCF7EEFE08E03046FCF7EAFE31
:1034E000A06A00F039F8204600F011FD00BFD3E7D4
:1034F00000BF70BD10B5FCF7D9FE04460448008833
:10350000401C00B2024908802046FCF7D3FE10BDE3
:10351000C801002010B5FCF7C9FE04460C4800881D
:10352000401E00B20A4908800846B0F90000002891
:103530000ADC002008802046FCF7BCFE0548006835
:1035400028B100F04DFD02E02046FCF7B3FE10BDAF
:10355000C8010020CC01002070B5054605B970BD3A
:103560001D480068854203D31C480068854200D38B
:10357000F5E7A5F10C044FF0FF31194800F071FE9A
:10358000608818B12088B0F5F55F08D015A000F06C
:10359000EFF923886288214619A000F0E9F900209C
:1035A00060804FF4F550208021480068844201D2A9
:1035B0001F480460084960680968611A401A1D497B
:1035C0000968081A1B4908602046FFF717FE0448DF
:1035D00000F01EFE00BFC2E74C0100205001002099
:1035E00050170020746F206672656520612062614B
:1035F00064206461746120626C6F636B3A0A00003E
:103600006D656D3A203078253038782C20757365DB
:103610006420666C61673A2025642C206D616769BF
:103620006320636F64653A203078253034780A006F
:10363000540100205C01002000487047E008002091
:1036400000487047D013002070B50F4800684FF451
:103650007A71B0FBF1F4204601F09BFD0120FDF7EB
:1036600082FFFFF7FBFEFFF7EBFF0446FFF7E4FFE7
:103670000546214600F0BEFE00220A2103A000F00C
:10368000A1FA0449086070BD5C0000207561727485
:103690005F6D62005000002008B54FF0FF326946B0
:1036A0000348006800F0B7FA0098C0B208BD0000F7
:1036B0005000002010B504460BE020780A2803D102
:1036C0000D21002002F0DCF914F8011B002002F0AB
:1036D000D7F920780028F0D110BD000070B505465C
:1036E0002C1D3048006838B128462E4909688847A3
:1036F000064606B970BD00BF2BA0E16B00F038F99B
:103700002DA0216A00F034F92FA0616A00F030F991
:1037100031A0A16A00F02CF933A0E16A00F028F989
:1037200035A0216800F024F937A0616800F020F985
:1037300039A0A16800F01CF93BA0E16800F018F97D
:103740003DA0216900F014F93FA0616900F010F973
:1037500041A0A16900F00CF943A0E16900F008F96B
:1037600045A0216B00F004F947A0616B00F000F95F
:1037700049A0A16B00F0FCF8287800F0040048B1E3
:1037800000F0B8FF0646314647A000F0F1F8FFF719
:1037900021F802E04CA000F0EBF8FEF74DFC00BF72
:1037A000FEE70000EC0100207073723A20307825AB
:1037B0003038780A000000007230303A2030782526
:1037C0003038780A000000007230313A2030782515
:1037D0003038780A000000007230323A2030782504
:1037E0003038780A000000007230333A20307825F3
:1037F0003038780A000000007230343A20307825E2
:103800003038780A000000007230353A20307825D0
:103810003038780A000000007230363A20307825BF
:103820003038780A000000007230373A20307825AE
:103830003038780A000000007230383A203078259D
:103840003038780A000000007230393A203078258C
:103850003038780A000000007231303A2030782584
:103860003038780A000000007231313A2030782573
:103870003038780A000000007231323A2030782562
:103880003038780A00000000206C723A2030782529
:103890003038780A000000002070633A2030782524
:1038A0003038780A00000000686172642066617533
:1038B0006C74206F6E207468726561643A202573A1
:1038C0000D0A0D0A000000006861726420666175CF
:1038D0006C74206F6E2068616E646C65720D0A0DE9
:1038E0000A000000F0B504460D461646301D20F0D3
:1038F000070040380146002203E00C4F41F82270D7
:10390000521C102AF9D30D624FF0000CC1F824C0EC
:10391000C1F828C0C1F82CC0C1F830C04B638C631B
:103920004FF0807CC1F83CC0F0BD0000EFBEADDEC2
:1039300010B5FCF7BBFC044604480078401C034962
:1039400008702046FCF7B6FC10BD000048010020BE
:1039500010B5FCF7ABFC044604480078401E034950
:1039600008702046FCF7A6FC10BD000048010020AE
:103970000FB438B505A8009040F2FF110948009B2C
:10398000049A01F0CFF80446B4F5007F01D340F269
:10399000FF140448FFF78EFE0020009038BC5DF84D
:1039A00014FB00005015002040600060704740602C
:1039B000006070470268516002680A6001604860F8
:1039C00070470268516002680A6001604860704791
:1039D0004268116042684A60416008607047014671
:1039E0000868884201D1012070470020FCE70146A9
:1039F0000868884201D1012070470020FCE7014699
:103A00000868884201D1012070470020FCE7014688
:103A100000200A4601E01268401C13688B42FAD16C
:103A20007047D0E900215160D0E900121160406078
:103A300000607047D0E900215160D0E900121160A8
:103A4000406000607047D0E900215160D0E9001269
:103A500011604060006070472DE9F041054615B9DE
:103A60000020BDE8F081E81C20F003054E48006806
:103A7000854201D90020F4E70C2D00D20C254FF02F
:103A8000FF314A4800F0EDFB4948006849490968A0
:103A9000461A7EE04748006884196088002874D17F
:103AA00006F10C006168081AA8426ED306F10C00FA
:103AB0006168091A05F11800814230D306F10C0043
:103AC00000EB05083B48006800EB08074FF4F55091
:103AD00038800020788060687860BE60C4F8048018
:103AE000012060803048796800680C30814205D040
:103AF0003049786809680844C0F808802E48016891
:103B000005F10C0008442C4908602C48006809683D
:103B1000884219D2284800682849086014E001202A
:103B20006080244960680968611A401A224909685E
:103B3000084421490860214800680968884203D286
:103B40001D4800681D4908604FF4F5502080184852
:103B50000068844212D107E01548006840681549A2
:103B6000096808441249086011480068408828B173
:103B70000F480068124909688842EDD10B4800F0EF
:103B800047FB04F10C006CE7FFE70A48006830448B
:103B9000466805480068401BB0423FF67BAF0348CB
:103BA00000F036FB00205CE7580100205017002091
:103BB000540100204C0100205C0100206001002025
:103BC000500100202DE9F04105460E4617462946D2
:103BD000052000F072F9044614B92046BDE8F081D2
:103BE00067722046FDF777FA2684218C8800FFF75C
:103BF00033FFE061E06920B9204600F088F9002039
:103C0000ECE700206084A084E08404F12800FFF742
:103C1000CBFE2046E2E72DE9F74304460E46002797
:103C200000F068FD0546FCF741FB8046608C38B922
:103C3000029828B94046FCF73DFBB81EBDE8FE835C
:103C40003AE000202863029830B94046FCF732FB86
:103C50006FF001002863F1E7627A294604F114004D
:103C6000FDF702FA029800280CDD00F0D5FD0746AA
:103C700002AA002105F14C0000F04EFE05F14C00B7
:103C800000F0C2FE4046FCF715FB00F0A9F9286BD6
:103C900008B1286BD2E7FCF709FB804602980028A0
:103CA0000ADD00F0B9FDC71B0298C01B0290029804
:103CB000002801DA00200290608C0028C1D0E18C3D
:103CC000E06950F821003060E08C401CE084E08C1A
:103CD000218C884201DB0020E084608C002802DD1A
:103CE000608C401E608404F12800FFF778FE50B914
:103CF00004F12800FDF7AEF94046FCF7DBFA00F0CE
:103D00006FF900209AE74046FCF7D4FA002095E7C7
:103D100070B504460D4600222946204600F001F801
:103D200070BD2DE9F74304460E46002700F0E2FC83
:103D30000546FCF7BBFA8046608C218C884207D18F
:103D4000029828B94046FCF7B5FAF81EBDE8FE8394
:103D500039E000202863029828B94046FCF7AAFA07
:103D60006FF00200F2E7627A294604F12800FDF7BD
:103D70007BF9029800280CDD00F04EFD074602AAF0
:103D8000002105F14C0000F0C7FD05F14C0000F0EA
:103D90003BFE4046FCF78EFA00F022F9286B08B192
:103DA000286BD3E7FCF782FA8046029800280ADDE8
:103DB00000F032FDC71B0298C01B02900298002839
:103DC00001DA00200290608C218C8842C1D0A18C45
:103DD000E06940F82160A08C401CA084A08C218C5C
:103DE000884201DB0020A084608C4FF6FF7188427E
:103DF00003DA608C401C608405E04046FCF75AFA08
:103E00006FF00200A2E704F11400FFF7E8FD50B9DB
:103E100004F11400FDF71EF94046FCF74BFA00F0E0
:103E2000DFF8002092E74046FCF744FA00208DE7D7
:103E300070B50C46014623468B4210D29D188D4228
:103E40000DD91144134405E05D1E2B462E784D1EFE
:103E500029462E70151EA2F10102F5D108E003E0FB
:103E600013F8015B01F8015B151EA2F10102F7D105
:103E700070BDF0B50C460546E6B2042A15D300F035
:103E8000030797B9014646EA062343EA034304E0E1
:103E900008C108C108C108C1103A102AF8D201E0CF
:103EA00008C1121F042AFBD20D4601E005F8016B80
:103EB000171EA2F10102F9D1F0BD2DE9F04106462D
:103EC0000F46304600F044F80546E868FFF7C4FDA9
:103ED000044614B90020BDE8F08100212046EA68BC
:103EE000FFF7C7FF2672002060720822394620467D
:103EF00000F065FAFCF7DAF9804604F10C01281DA0
:103F0000FFF758FD4046FCF7D5F92046E3E770B5CA
:103F1000044600202072FCF7C9F9054604F10C00A4
:103F2000FFF77FFD2846FCF7C5F92046FFF714FB95
:103F300070BD70B5044600202072FCF7B7F9054645
:103F400004F10C00FFF76DFD2846FCF7B3F970BDD6
:103F5000024600210AE0074800EB01100078904279
:103F600003D1044800EB01107047491C0629F2DB1D
:103F70000020F9E7640100202DE9F04704460D46D2
:103F8000904600262846FFF7E3FF0746FFF7B2FA00
:103F90007E6802E0A6F10C003668381D8642F9D131
:103FA000FFF7B8FA45F0800020720822414620460B
:103FB00000F005FAFCF77AF9814604F10C01381D8E
:103FC000FFF7F8FC4846FCF775F9BDE8F0870146B5
:103FD000087A00F0800008B1012070470020FCE75B
:103FE000F8B5FCF763F906463F480088002875D10C
:103FF0003E480068002870D000276846FDF7D8F8D2
:1040000004463B48006890F8340000F0070003289D
:1040100025D13748006890F835000099884202D2CF
:104020003348046811E03248006890F83500009980
:10403000884209D12E48006890F8340000F008004A
:1040400010B92B48046800E001272948006890F85F
:10405000340020F008002649096881F8340024481B
:104060000068844228D023490098087020480568D9
:10407000046017B1284600F041F8204600F076F8B9
:1040800094F8340020F0070040F0030084F8340076
:104090001948007848B904F11C0105F11C00FCF72F
:1040A0000CF93046FCF706F91CE004F11C0105F19F
:1040B0001C00FCF702F90FE00D48006800F056F80C
:1040C0000B48006890F8340020F0070040F003002F
:1040D0000749096881F8340000BF00BF3046FCF78B
:1040E000E9F800BFF8BD0000C8010020C4010020AD
:1040F000CC010020D00100204801002070B504460A
:10410000FCF7D4F8054616480068844208D194F8B4
:10411000340020F0070040F0030084F834001BE076
:1041200014F8340F20F0070040F00100207062788E
:10413000343C0C4B03EBC20004F1140142681160E3
:1041400042684A604160086000BF0749A06B096887
:1041500008430549086000BF2846FCF7ABF870BD6E
:10416000CC01002070170020C401002070B5044667
:10417000FCF79CF8054604F11400D0E900215160D9
:10418000D0E9001211604060006000BF94F8351063
:10419000094A02EBC1000168814201D1012100E01E
:1041A000002129B10548A16B0068884303490860D4
:1041B0002846FCF77FF870BD70170020C40100206E
:1041C0002DE9F04105460E46174629460220FFF725
:1041D00074FE044614B92046BDE8F0812046FCF781
:1041E0007AFFA68367722046F6E72DE9F041044680
:1041F0000D4616461F462A4602212046FFF7BCFE02
:104200002046FCF768FFA68367720020BDE8F081B6
:1042100070B504460025FCF749F8064604F1140081
:10422000FFF7DDFB28B904F11400FCF713FF0125AB
:104230000EE0A08B4FF6FF71884203DAA08B401C82
:10424000A08305E03046FCF735F86FF0020070BD42
:104250003046FCF72FF8012D01D1FFF7C1FE0020F9
:10426000F5E773B50546FCF721F80646A88B00284C
:1042700006DDA88B401EA8833046FCF71BF828E01B
:10428000019828B93046FCF715F86FF001007CBDA5
:1042900000F030FA0446002020636A7A214605F1D6
:1042A0001400FCF7E1FE0198002809DD01AA0021B5
:1042B00004F14C0000F030FB04F14C0000F0A4FBD2
:1042C0003046FBF7F7FFFFF78BFE206B08B1206B42
:1042D000DDE70020DBE700001CB50AA0FFF748FB84
:1042E0000BA0FFF745FB13A015A104230022CDE985
:1042F0000010194615A0FFF73BFB1DA0FFF738FB88
:104300001CBD00000A205C207C202F0A0000000059
:104310002D205254202D20202020205468726561C9
:1043200064204F7065726174696E6720537973748D
:10433000656D0A0031393A30393A323200000000F6
:104340004D6179203136203230323200202F207CEE
:10435000205C202020202025642E25642E2564202A
:104360006275696C642025732025730A00000000C3
:104370002032303036202D203230323120436F70E1
:104380007972696768742062792072742D7468721A
:10439000656164207465616D0A0000000FB438B572
:1043A000044606A800902046009A059900F05AFDA0
:1043B000054600200090284638BC5DF814FB70B517
:1043C0000346A2B118460C4600BF14F8016B00F872
:1043D000016B3EB902E0002500F8015B551E2A1E64
:1043E000F9D102E0551E2A1EEFD100BF00BF1846CA
:1043F00070BD00002DE9F04105460E46E81C20F096
:10440000030726F00308B8F1180F09D9A8F118001E
:10441000B84205D3A8EB070018381E49086006E02B
:10442000324629461CA0FFF7A3FABDE8F0812948CF
:10443000076004684FF4F5502080164800680C307F
:1044400060600020A06060802249606809680844BC
:10445000214908604FF4F5500968088001201E4981
:10446000096848800B4800680C301B49096848609F
:10447000084800680C3018490968886001231A460A
:1044800016A11848FFF7B1FE1248006816490860E7
:1044900000BFCAE7580100206D656D20696E697420
:1044A0002C206572726F7220626567696E2061648C
:1044B000647265737320307825782C20616E6420D7
:1044C000656E64206164647265737320307825784A
:1044D0000A0000004C010020500100206865617056
:1044E0000000000050170020540100200020094A5D
:1044F0001080014607E0084A02EBC10040600060FE
:1045000000BF481C01460829F5DB0020034A106063
:1045100070470000C801002070170020C40100206F
:1045200038B56846FCF744FE044606480460204659
:10453000FFF71CFE032084F8340004F11C00FBF795
:10454000EAFE38BDCC01002010B5002405E0044986
:1045500001EBC400FFF72BFA641C002CF7D010BD50
:10456000D401002070472DE9FF5F06460F469046B4
:104570001D46DDE90EAB31460120FFF79EFC81466A
:10458000B9F1000F03D1002004B0BDE8F09F284628
:10459000FFF762FA044624B94846FFF7B8FC00204A
:1045A000F2E743463A46314648468DE8300CFCF780
:1045B00047FE4846E8E7000010B500220A490868AF
:1045C00088420ED00868A0F1140202F11400D0E96C
:1045D00000436360D0E9003423604060006000BFA6
:1045E00000BF104610BD00004001002002460548F3
:1045F00002F114010368596003680B6001604860B0
:1046000000BF70474001002001E0FEF743FFFCE7D8
:1046100010B586B000241CE0224610A104A8FFF7C4
:10462000BDFE20210722CB000E4800EB0420CDE97F
:104630000132039100900C4901EBC41000230B4A96
:1046400004A900F015F8084901EBC41000F078F84F
:10465000641C002CE0D006B010BD00007469646CCE
:104660006525640050140020D0130020094600087E
:104670002DE9FF5F05460C4616461F46DDE910ABE7
:10468000DDE90E89224601212846FFF775FC3B46ED
:104690003246214628468DE8000FFCF7D1FD04B0D4
:1046A000BDE8F09F70B50446204600F099F8054635
:1046B000284600F025F870BD70B5044694F8340023
:1046C00000F00700022802D04FF0FF3070BDFBF76A
:1046D000EDFD054604F11400FFF7ACF904F14C00C0
:1046E00000F008FA2046FFF709FD2846FBF7E2FD37
:1046F0000020EBE70148006870470000CC01002073
:1047000031B5FFF7F7FF0446FBF7D0FD054620461D
:1047100000F02CF86A46002104F14C0000F0FCF88F
:1047200004F14C0000F070F92846FBF7C3FDFFF7D9
:1047300057FC206B801C08B900202063002038BD86
:1047400010B504463434A078607061780120884048
:104750006060022004F834092046FFF7ADFFFFF740
:10476000C9FF08B1FFF73CFC002010BD70B504463E
:1047700094F8340000F00705012D04D0032D02D079
:104780004FF0FF3070BDFBF791FD06462046FFF766
:10479000EDFC94F8340020F0070040F0020084F8AB
:1047A000340004F14C0000F0A5F93046FBF782FD1F
:1047B0000020E7E770B504462546FBF777FD06467F
:1047C0006FF00100286305F11400FFF733F9284664
:1047D000FFF794FC3046FBF76DFDFFF701FC70BD61
:1047E0000146002902DA4FF0FF3014E04FF47A72EC
:1047F00091FBF2F24FF47A7302FB03F01A4691FB3D
:10480000F2F302FB13124FF47A735A4302F2E732C7
:1048100092FBF3F2104470470148006870470000B3
:104820003C01002070B5FBF741FD054610480068CB
:10483000401C0F490860FFF75DFF0446A06C401E56
:10484000A064A06C68B9606CA06494F8340040F077
:10485000080084F834002846FBF72CFDFFF7C0FB66
:1048600002E02846FBF726FD00F004F870BD0000CA
:104870003C0100207CB56846FFF799F8FFF7CCFFB4
:104880000546FBF713FD06463AE022480068A0F112
:104890001404A06A281A6FF0004188422ED22046E4
:1048A000FCF777FC607A00F0020018B9607A20F01B
:1048B0000100607204F114016846FFF782F8D4E940
:1048C00007108847FFF7A8FF05466846FFF78FF8EF
:1048D00000B115E004F11400FFF7B5F8607A00F0BC
:1048E000020060B1607A00F0010040B1607A20F00F
:1048F00001006072204600F087F800E005E000BF8C
:104900000448FFF774F80028BFD000BF3046FBF71B
:10491000D1FC7CBDD40100202DE9F04104460E46B7
:104920001546FBF7C3FC0746052E1ED2DFE806F04E
:104930000603090E1300606A286017E028686062A9
:1049400014E0607A20F0020060720FE0607A40F0BC
:10495000020060720AE0607A00F0010010B10120EC
:10496000286001E00020286000E000BF00BF38465A
:10497000FBF7A0FC0020BDE8F0812DE9F8430446D8
:104980000E4617469846DDF8209021460A20FFF78C
:1049900094FA054615B90020BDE8F88343463A4627
:1049A00031462846CDF80090FCF7D2FB2846F3E7C5
:1049B00070B50446FBF77AFC05462046FCF7E9FB98
:1049C000607A20F0010060722846FBF773FC2046F5
:1049D000FFF7AFFA002070BD2DE9F84307460C46FB
:1049E00015461E46DDE9088922460A213846FFF7AA
:1049F000C3FA4346324629463846CDF80090FCF7C4
:104A0000A7FBBDE8F88300002DE9F8430546FBF756
:104A10004DFC80462846FCF7BCFB687A20F001007C
:104A20006872FFF7F9FE696A0844A8622F4F009781
:104A300000242AE019E05DF824201168142202EB1A
:104A4000C402881A826AAB6AD21A00D108E0826A6C
:104A5000AB6AD21A6FF000439A4200D20CE000BF5A
:104A60005DF8240000684DF824005DF8240007EB91
:104A7000C40149688842DED100BF2CB15DF8240032
:104A80000830611C4DF82100641C002CD2D018485D
:104A90000068401C164908600846066805F11401C4
:104AA0000098FEF78EFF022412E006F0030060B9C2
:104AB000C4F1010305F1140202EBC301C4F10102C8
:104AC0005DF82200FEF77DFF00E003E0B608641CFD
:104AD000012CEAD900BF687A40F0010068724046B4
:104AE000FBF7E8FB0020BDE8F8830000D4010020BC
:104AF000DC01002070B50446607A00F0010010B9B6
:104B00004FF0FF3070BDFBF7D1FB05462046FCF7A8
:104B100040FB607A20F0010060722846FBF7CAFB78
:104B20000020EFE72DE9FF4F89B081464C460A98F7
:104B300009EB00064E4504D24FF0FF36A6EB090004
:104B40000A9077E10B980078252806D0B44202D26B
:104B50000B9800782070641C69E1002526E00B9812
:104B6000401C0B900B9800782D2802D145F01005C1
:104B70001CE00B9800782B2802D145F0040515E0C5
:104B80000B980078202802D145F008050EE00B981C
:104B90000078232802D145F0200507E00B98007823
:104BA000302802D145F0010500E000E0D7E700BF62
:104BB0004FF0FF370B98007830380A2804D20BA842
:104BC00000F0C4FA07460EE00B9800782A280AD1B4
:104BD0000B98401C0B900C9880C80C90002F02DAA8
:104BE0007F4245F010054FF0FF3A0B9800782E28D1
:104BF0001CD10B98401C0B900B98007830380A2879
:104C000004D20BA800F0A2FA82460AE00B980078C2
:104C10002A2806D10B98401C0B900C9850F804AB36
:104C20000C90BAF1000F01DA4FF0000A0020049056
:104C30000B980078682803D00B9800786C2805D171
:104C40000B98007804900B98401C0B900A2005905C
:104C50000B9800786F2873D00CDC632813D004DC29
:104C600025286ED058286DD195E064286BD069282E
:104C7000F9D197E0702873D0732825D075286ED0AD
:104C80007828F0D18AE005F0100040B904E0B44281
:104C900001D220202070641C781E071EF7DC0C98BF
:104CA00010F8041B0C90C8B20790B44201D20798C8
:104CB0002070641C04E0B44201D220202070641CE7
:104CC000781E071EF7DCB2E00C98006806900C987E
:104CD000001D0C90069808B960A006904FF00008DF
:104CE00001E008F10108B84504D0069810F8080062
:104CF0000028F6D1BAF1000F02DDD04500DDD04624
:104D000005F0100048B904E0B44201D22020207020
:104D1000641C38467F1E4045F6DC002008900BE0FE
:104D2000B44202D2069800782070641C0698401C99
:104D300006900898401C089008984045F0DB09E070
:104D400026E01FE032E02CE00AE0B44201D220204D
:104D50002070641C38467F1E4045F6DC67E024E086
:104D6000781C10B9082745F00105CDE9007A0295B5
:104D70000C9804C8102331460C902046FEF77AFAAE
:104D8000044654E0B44201D225202070641C4EE059
:104D9000082005901DE045F0400500BF102005905B
:104DA00017E000BF45F0020500BF12E0B44201D297
:104DB00025202070641C0B98007830B1B44202D2D8
:104DC0000B9800782070641C02E00B98401E0B903A
:104DD0002DE000BF04986C2807D10C9850F804BB54
:104DE0000C9005F00200B8B116E0049868280BD1C9
:104DF0000C9830F8041B1FFA81FB0C9005F00200A0
:104E000050B10FFA8BFB07E00C9850F804BB0C90E4
:104E100005F0020000B100BFCDE9007A02955A46C4
:104E200031462046059BFEF725FA044600BF0B9845
:104E3000401C0B900B98007800287FF483AE0A98F2
:104E400038B1B44202D20020207002E0002006F8FF
:104E5000010CA4EB09000DB0BDE8F08F284E554CB5
:104E60004C29000037B505460C4622464FF0FF316D
:104E70002846029BFFF756FE3EBD002070470020EB
:104E80007047002070470020704710B5FBF70EFAFE
:104E9000FEF7DAFBFFF720FAFFF756FBFFF726FBDA
:104EA000FEF7B4FAFFF75EFBFFF7B2FBFFF738FB44
:104EB000002010BD2DE9F84359480088009059485A
:104EC000036859480288594959A0FEF751FD01204D
:104ED0006049087060A1022000F0E2FD02E0642059
:104EE000FFF7E0FB5B4800780028F8D14E480088C7
:104EF00001F054F8054600225B4B00F0BBFE07466C
:104F000000F07AFE0446012221465848FCF75CFE78
:104F10004448322102685648FDF7DEF840480288CE
:104F200032215448FDF7D8F8002011E04100C1F1CA
:104F30000B013E4A525C4100491C4F4B5A54410000
:104F4000491CC1F10B01394A515C03F81010401C97
:104F50000628EBDB002014E0474A12F8101000EBA3
:104F60004002464B99544100491C434A525C00EBB5
:104F70004001491C5A543A2200EB4001891C5A5402
:104F8000401C0628E8DB00203C4948743CA1022074
:104F900000F086FD41A1022000F082FD3749022089
:104FA00000F07EFD3FA1022000F07AFD2F49022093
:104FB00000F076FD3FA1022000F072FD2C49022096
:104FC00000F06EFD3DA1022000F06AFD294902209B
:104FD00000F066FD3BA1022000F062FD3B4902208B
:104FE00000F05EFD3AA1022000F05AFD3A4902208D
:104FF00000F056FD39A1022000F052FD1A210220D6
:1050000000F03EFD01203649087002E06420FFF701
:1050100049FB334800780028F8D1BDE8F883000048
:10502000300000202C0000202A000020080400206E
:105030006D61633A257320746D703A256420207782
:10504000616C6B3A256420207663633A2564200DF9
:105050000A0000004800002041542B4349505345AA
:105060004E440D0A00000000000024407908002092
:10507000830800208D080020D30800209708002016
:105080007B226D6574686F64223A2273656E736F5C
:1050900072222C2261646472223A220030303A304B
:1050A000303A0000222C2264617461223A227B4152
:1050B000303D00002C41313D000000002C41323DCC
:1050C000000000002C41333D000000004708002094
:1050D0002C41343D00000000150800207D227D0099
:1050E0004700002070B5044609A0FEF741FCFDF71B
:1050F0007FFE012802D12046FDF78CFDFCF7DAFA8D
:1051000005462246294603A0FEF732FC70BD00008A
:105110000A000000257325730000000070B50446E6
:1051200025680CE0A5F11406314606A0FEF720FC28
:105130002868A04202D004A0FEF71AFC2D68A54200
:10514000F0D170BD257300002F0000000146002043
:1051500009E00B685A1C0A601A7800EB800302EB26
:105160004302A2F130000A681278303A0A2AF0D3DA
:10517000704710B503461A4601E0521C491C1078CE
:1051800028B1087818B110780C78A042F5D0D01A60
:1051900010BD10B50446601EB0F1807F01D3012020
:1051A00010BD601E4FF0E021486101220321081F5D
:1051B000FDF7DEFE00204FF0E02188610720086146
:1051C0000020EDE710B504464FF0FF3110480068AD
:1051D000FFF747F80F49086008460068B8B90EA005
:1051E000FEF7C6FB12E013480078012807D13020F3
:1051F000FCF7F4FEFFF75EFE00200E4908704FF446
:10520000FA70FFF74FFA7220FCF7E8FEEBE710BDEB
:10521000080000200C0000207468726561645F65FE
:105220006E7472795F6F6E6C696E652073746172F3
:10523000740000004500002010B5044612E0312043
:10524000FCF7CCFE1D20FCF7C9FE4FF49670FFF76B
:1052500029FA0C480078012804D10B48007801286D
:1052600000D100E0EBE700BF00213120FCF792FE07
:10527000FDF7A0FE05480068FEF7CAFF04A0FEF790
:1052800077FB10BD4A0000204900002008000020E4
:105290007468726561645F656E7472795F6F6E6C5D
:1052A000696E65206F7665720000000070B58648F3
:1052B0000068401C844908600846006803287AD3C7
:1052C00082480068012876D100208049086000BF2C
:1052D00004E07F49095C7F4A1154401C9628F8DBA2
:1052E0007C484078302867D17A4880783028FAD1D5
:1052F000784840793228F6D1764880793528F2D13D
:10530000092000210DE0002207E08318714CE35CC6
:1053100002EB4104704D2B55521C022AF5DB001D97
:10532000491C0629EFDB001D6A49095C64297DD10F
:105330000146401C674A515C6429F8D1C01C002218
:105340001BE0002115E04318624CE35C392B07DDBC
:105350004318E35C573B01EB4204604D2B5507E0DB
:1053600043185C4CE35C303B01EB42045B4D2B5536
:10537000491C0229E7DB001D521C022AE1DB5749C8
:1053800009784FF4704202EA0131544A52784FF4DE
:10539000706303EA02221143504A9278F02303EA31
:1053A000021211434D4AD27802F00F0211434C4AC7
:1053B000118000221DE086E080E0002115E0431806
:1053C000444CE35C392B07DD4318E35C573B01EBAE
:1053D0004204444D2B5507E043183E4CE35C303B00
:1053E00001EB42043F4D2B55491C0229E7DB001D10
:1053F000521C032AE1DB3B4909794FF4700202EAAF
:105400000151384A52794FF4702303EA02421143A2
:10541000344A92781B1103EA02321143314AD2789E
:105420001B1103EA022211432E4A00E045E01278E4
:10543000F02303EA021211432A4A527802F00F02C3
:105440001143294A116000221BE0002115E0431896
:10545000204CE35C392B07DD4318E35C573B01EB41
:105460004204224D2B5507E043181A4CE35C303BB5
:1054700001EB42041D4D2B55491C0229E7DB001DA1
:10548000521C022AE1DB194909784FF4704202EA02
:105490000131164A52784FF4706303EA0222114335
:1054A000124A9278F02303EA021211430F4AD2788B
:1054B00002F00F0211430E4A118000BF4FF48071B9
:1054C0000348FBF739F870BD1000002014000020DD
:1054D0000802002008030020080400201900002012
:1054E0002A0000201E0000202C00002025000020A3
:1054F0003000002008B502206423002207490090F4
:1055000007A0FFF73AFA094908600846006818B191
:1055100008460068FFF778FA002008BD31550008FA
:1055200075617274325F74696D65720000000020ED
:1055300010B50446FFF7BAFE10BD000070B59C48D8
:10554000007880B99B480078401C9A49087008464A
:10555000007899490968884205DB01209449087060
:1055600000209449087095480068401C93490860E1
:105570000846006803287DD391480068012879D146
:1055800000208F49086000BF04E08E49095C8E4A04
:105590001154401CB0F5FA7FF7DB8B498BA0FEF766
:1055A000E7F94FF4FA718748FAF7C6FF894800789F
:1055B000012813D100200CE08349095C4F2907D151
:1055C000814A411C515C4B2902D10021814A117052
:1055D000401C81490968491E8142EDD87F48007806
:1055E00001285FD10025002456E07748005D24287B
:1055F0003BD17549601C085C472836D1A01C085C6B
:105600004E2832D1E01C085C52282ED1201D085CA7
:105610004D282AD1601D085C432826D1002506E0CC
:10562000281914306849085C6D4948556D1C092DCE
:10563000F6DB00206A494855002506E0281920308D
:105640006149085C674948556D1C0A2DF6DB00204E
:1056500064494855624964A0FEF78AF9614967A028
:10566000FEF786F900205D4908705748005D47281D
:1056700011D100E09BE05449601C085C50280AD11D
:10568000A01C085C472806D1E01C085C532802D106
:10569000002052490870641C4F480068401EA04218
:1056A000A3D800BF4C48046818E04748005D222892
:1056B00013D1601E4449085C6B280ED1A01E085C03
:1056C0006F280AD1E01E085C222806D100204F492D
:1056D00008704FA0FEF74CF902E0641E032CE4DCD6
:1056E00000BF00240AE03848005D3E2805D10020B4
:1056F0004A4908704AA0FEF73BF9641C3648006826
:10570000401EA042EFD84D48007850BB3248046894
:1057100025E02D48005D312820D1601E2A49085C13
:1057200020281BD1A01E085C3A2817D1E01E085C77
:10573000472813D1201F085C45280FD1601F085C43
:1057400052280BD1A01F085C432807D101203B49F8
:105750000870084601783AA0FEF70AF9641E062C84
:10576000D7DC3A48007810BB1B4804681DE0164897
:10577000005D592818D1601E1349085C442813D1D4
:10578000A01E085C41280FD1E01E085C45280BD103
:10579000201F085C522807D101202C4908700846B8
:1057A00001782BA0FEF7E4F8641E062CDFDC70BD48
:1057B000450000204400002040000020340000206C
:1057C00038000020150400201506002025730D0A5E
:1057D00000000000470000203C0000204B0000209B
:1057E00047080020150800204750535F696E666F18
:1057F0005F6F6B3A25730D0A000000004750535F3E
:10580000696E666F5F6F6B3A25730000460000207B
:10581000636C6F75642072656164790048000020D4
:10582000506C6561736520656E746572207468657F
:1058300020617420636F6D6D616E64004A0000200A
:105840004139475F6F6B3A25640000004900002032
:10585000696E745F6F6B3A256400000008B5022022
:10586000642300220749009007A0FFF786F8094942
:1058700008600846006818B108460068FFF7C4F8D9
:10588000002008BD9958000875617274335F74690F
:105890006D6572000400002010B50446FFF74EFE4F
:1058A00010BD000000BF074A52F82020926802F0A5
:1058B0000202002AF7D0034A52F8202052680A70E8
:1058C00070470000900000202DE9F04104460D468D
:1058D00016461F463946304600F0C0F8082C15D24F
:1058E000DFE804F00415263748596A7B5848C06A37
:1058F00040F010005649C8620846806940F0100028
:1059000088610846806920F01000886176E0504880
:10591000006B40F400304E4908630846C06940F40B
:105920000030C8610846C06920F40030C86165E0F5
:105930004748006B40F48020454908630846C06929
:1059400040F48020C8610846C06920F48020C86106
:1059500054E03F48006B40F400203D49086308468E
:10596000C06940F40020C8610846C06920F40020E6
:10597000C86143E03648006B40F480103449086346
:105980000846C06940F48010C8610846C06920F428
:105990008010C86132E02E48C06A40F020002C49D7
:1059A000C8620846806940F0200088610846806926
:1059B00020F02000886121E02548006B40F0804005
:1059C000234908630846C06940F08040C861084622
:1059D000C06920F08040C86110E01D48006B40F0B5
:1059E00000401B4908630846C06940F00040C86198
:1059F0000846C06920F00040C86100BF00BF1548DC
:105A00000068B0FBF5F00009134951F82410086252
:105A100010480068B0FBF5F000F00F000E4951F897
:105A2000241048620C4850F82400C06940F030004F
:105A3000094951F82410C861074850F824008069CA
:105A400040F01900044951F824108861BDE8F08144
:105A5000001002405C0000209000002070B5044659
:105A60000D46E0B20823C4F303220321FBF72AFC0E
:105A7000E8B20423C5F303220021FBF723FC70BD29
:105A8000064A52F82020116000BF044A52F8202034
:105A9000926802F00102002AF7D0704790000020BF
:105AA00010B504460B4604E013F8011B2046FFF72F
:105AB000E7FF18780028F7D110BD000070B5044644
:105AC0000D4655B10D4850F82400006940F0020021
:105AD0000A4951F82410086109E0084850F82400E8
